{
  "address": "0xAD164822576740906a505233c463cb76b7640e41",
  "abi": [
    {
      "inputs": [
        {
          "internalType": "address",
          "name": "_factory",
          "type": "address"
        },
        {
          "internalType": "address",
          "name": "_communityVault",
          "type": "address"
        }
      ],
      "stateMutability": "nonpayable",
      "type": "constructor"
    },
    {
      "inputs": [
        {
          "internalType": "address",
          "name": "dataStorage",
          "type": "address"
        },
        {
          "internalType": "address",
          "name": "token0",
          "type": "address"
        },
        {
          "internalType": "address",
          "name": "token1",
          "type": "address"
        }
      ],
      "name": "deploy",
      "outputs": [
        {
          "internalType": "address",
          "name": "pool",
          "type": "address"
        }
      ],
      "stateMutability": "nonpayable",
      "type": "function"
    },
    {
      "inputs": [],
      "name": "getDeployParameters",
      "outputs": [
        {
          "internalType": "address",
          "name": "_dataStorage",
          "type": "address"
        },
        {
          "internalType": "address",
          "name": "_factory",
          "type": "address"
        },
        {
          "internalType": "address",
          "name": "_communityVault",
          "type": "address"
        },
        {
          "internalType": "address",
          "name": "_token0",
          "type": "address"
        },
        {
          "internalType": "address",
          "name": "_token1",
          "type": "address"
        }
      ],
      "stateMutability": "view",
      "type": "function"
    }
  ],
  "transactionHash": "0xc989825d0697e750c6d4e5b431ede8f1c5925f52aa911c1547a06b4b1a6db041",
  "args": [
    "0xdbBf7cB1ee1ad2FD3F6e8Db99208D2851e27DdA4",
    "0xF68cE1a032dF78767725959c6a4235ed8EAa4270"
  ],
  "numDeployments": 2,
  "solcInputHash": "848a7a3022e23014b2690e2ccd83f889",
  "bytecode": "0x60c060405234801561001057600080fd5b5060405161607f38038061607f83398101604081905261002f9161008b565b6001600160a01b0382161580159061004f57506001600160a01b03811615155b61005857600080fd5b6001600160a01b0390811660a052166080526100be565b80516001600160a01b038116811461008657600080fd5b919050565b6000806040838503121561009e57600080fd5b6100a78361006f565b91506100b56020840161006f565b90509250929050565b60805160a051615f976100e86000396000607f015260008181604e01526101170152615f976000f3fe608060405234801561001057600080fd5b50600436106100365760003560e01c806304889e261461003b578063d9181cd3146100df575b600080fd5b60005460015460408051606084811c82527f00000000000000000000000000000000000000000000000000000000000000006001600160a01b0390811660208401527f000000000000000000000000000000000000000000000000000000000000000081168385015260a085811c9690941b73ffffffffffffffffffffffff0000000000000000169590951790820152929091166080830152015b60405180910390f35b6100f26100ed366004610226565b61010a565b6040516001600160a01b0390911681526020016100d6565b6000336001600160a01b037f0000000000000000000000000000000000000000000000000000000000000000161461014157600080fd5b6bffffffffffffffffffffffff604084901c166bffffffffffffffffffffffff19606086901b16176000556001600160a01b031960a084901b166001600160a01b03831617600155604080516001600160a01b038086166020830152841691810191909152606001604051602081830303815290604052805190602001206040516101cb906101fd565b8190604051809103906000f59050801580156101eb573d6000803e3d6000fd5b50600060018190558055949350505050565b615d218061026a83390190565b80356001600160a01b038116811461022157600080fd5b919050565b60008060006060848603121561023b57600080fd5b6102448461020a565b92506102526020850161020a565b91506102606040850161020a565b9050925092509256fe6101206040523480156200001257600080fd5b50336001600160a01b03166304889e266040518163ffffffff1660e01b815260040160a060405180830381865afa15801562000052573d6000803e3d6000fd5b505050506040513d601f19601f8201168201806040525081019062000078919062000200565b6001600160a01b0390811660e05290811660c0529081166101005290811660a052166080526002805464ffffffffff60b81b1916630c9e4ec360bb1b1790556003805465ffffffffffff60801b1916733c00003c00000000000000000000000000000000179055620000f76007620000fd602090811b62001fcf17901c565b620002a1565b620d89e7196200010d8162000270565b620d89e7196000818152602085905260409020600301805465ffffffffffff1916630100000062ffffff9485160262ffffff19161793909216929092179055620001578162000270565b82600062000169620d89e71962000270565b60020b60020b81526020019081526020016000206003016000846000620d89e719620001959062000270565b60020b81526020810191909152604001600020600301805462ffffff94851663010000000265ffffff0000001990911617905581549383166101009190910a90810292021990921617905550565b80516001600160a01b0381168114620001fb57600080fd5b919050565b600080600080600060a086880312156200021957600080fd5b6200022486620001e3565b94506200023460208701620001e3565b93506200024460408701620001e3565b92506200025460608701620001e3565b91506200026460808701620001e3565b90509295509295909350565b60008160020b627fffff1981036200029857634e487b7160e01b600052601160045260246000fd5b60000392915050565b60805160a05160c05160e0516101005161597e620003a36000396000818161054901528181612bbb01528181612c0601528181612e270152612e7801526000818161092001528181610b8c01528181610d9a0152818161109a015281816112630152818161131701528181611cc801528181612be501528181612e570152612fa201526000818161024101528181610c1201528181610d560152818161105701528181611299015281816112e101528181611c6801528181612b9a01528181612d1a0152612e060152600081816108260152818161149001528181611ec701526131640152600081816103bb01528181611def0152613b05015261597e6000f3fe608060405234801561001057600080fd5b50600436106101f05760003560e01c80637c1fe0c81161010f578063d0c93a7c116100a2578063ecdecf4211610071578063ecdecf4214610a02578063f30dba9314610a0b578063f637731d14610b04578063facb0eb114610b2a57600080fd5b8063d0c93a7c14610907578063d21220a71461091b578063d64c6d7114610942578063e76c01e41461095c57600080fd5b8063aafe29c0116100de578063aafe29c01461074f578063c45a015514610821578063c677e3e014610848578063c8a67f931461087557600080fd5b80637c1fe0c8146106735780637e9061b514610699578063920c34e5146106c3578063a34123a71461071557600080fd5b80634f1eb3d81161018757806370cf754a1161015657806370cf754a14610586578063713346941461059a578063779ab362146106375780637bd780251461065757600080fd5b80634f1eb3d814610469578063514ea4bf146104ba57806353e97868146105445780636378ae441461056b57600080fd5b806318dd8891116101c357806318dd88911461035c5780631a6865021461038757806329047dfa146103b6578063490e6cbc146103dd57600080fd5b80630902f1ac146101f55780630dfe16811461023c5780631131b1101461027f578063128acb08146102af575b600080fd5b600b546001600160801b0380821691600160801b9004165b60405180836001600160801b03168152602001826001600160801b031681526020019250505060405180910390f35b6102637f000000000000000000000000000000000000000000000000000000000000000081565b604080516001600160a01b039092168252519081900360200190f35b60035461029690600160b01b900463ffffffff1681565b6040805163ffffffff9092168252519081900360200190f35b610343600480360360a08110156102c557600080fd5b6001600160a01b0382358116926020810135151592604082013592606083013516919081019060a081016080820135600160201b81111561030557600080fd5b82018360208201111561031757600080fd5b803590602001918460018302840111600160201b8311171561033857600080fd5b509092509050610b3d565b6040805192835260208301919091528051918290030190f35b60035461037090600160981b900460020b81565b6040805160029290920b8252519081900360200190f35b60035461039a906001600160801b031681565b604080516001600160801b039092168252519081900360200190f35b6102637f000000000000000000000000000000000000000000000000000000000000000081565b610467600480360360808110156103f357600080fd5b6001600160a01b038235169160208101359160408201359190810190608081016060820135600160201b81111561042957600080fd5b82018360208201111561043b57600080fd5b803590602001918460018302840111600160201b8311171561045c57600080fd5b509092509050610d1e565b005b61020d600480360360a081101561047f57600080fd5b506001600160a01b03813516906020810135600290810b91604081013590910b906001600160801b0360608201358116916080013516610f8c565b61050d600480360360208110156104d057600080fd5b50600a60205235600090815260409020805460018201546002830154600390930154919290916001600160801b0380821691600160801b90041685565b604080519586526020860194909452848401929092526001600160801b039081166060850152166080830152519081900360a00190f35b6102637f000000000000000000000000000000000000000000000000000000000000000081565b61057460005481565b60408051918252519081900360200190f35b6d020000040000080000100000200061039a565b610343600480360360c08110156105b057600080fd5b6001600160a01b0382358116926020810135821692604082013515159260608301359260808101359091169181019060c0810160a0820135600160201b8111156105f957600080fd5b82018360208201111561060b57600080fd5b803590602001918460018302840111600160201b8311171561062c57600080fd5b509092509050611164565b6104676004803603602081101561064d57600080fd5b503560ff166113cd565b6004546001600160801b0380821691600160801b90041661020d565b6104676004803603602081101561068957600080fd5b50356001600160a01b031661148e565b610467600480360360408110156106af57600080fd5b508035600290810b9160200135900b611576565b6106ed600480360360408110156106d957600080fd5b508035600290810b9160200135900b61160d565b604080516001600160a01b03909316835263ffffffff90911660208301528051918290030190f35b6103436004803603606081101561072b57600080fd5b508035600290810b91602081013590910b90604001356001600160801b0316611745565b6107fa600480360360c081101561076557600080fd5b6001600160a01b0382358116926020810135909116916040820135600290810b92606081013590910b916001600160801b03608083013516919081019060c0810160a0820135600160201b8111156107bc57600080fd5b8201836020820111156107ce57600080fd5b803590602001918460018302840111600160201b831117156107ef57600080fd5b5090925090506118e6565b6040805193845260208401929092526001600160801b031682820152519081900360600190f35b6102637f000000000000000000000000000000000000000000000000000000000000000081565b6105746004803603602081101561085e57600080fd5b5060096020523560010b6000908152604090205481565b6108ce6004803603602081101561088b57600080fd5b50600860205235600290810b60009081526040902080546001820154928201546003909201546001600160801b0380831694600160801b90930416929060ff1685565b604080516001600160801b0396871681529490951660208501528385019290925260608301521515608082015290519081900360a00190f35b60035461037090600160801b900460020b81565b6102637f000000000000000000000000000000000000000000000000000000000000000081565b60055461026390600160201b90046001600160a01b031681565b600280546109b2916001600160a01b03821691600160a01b8104820b91600160b81b8204900b9061ffff600160d01b8204811691600160e01b81049091169060ff600160f01b8204811691600160f81b90041687565b604080516001600160a01b039098168852600296870b60208901529490950b8685015261ffff92831660608701529116608085015260ff1660a084015290151560c0830152519081900360e00190f35b61057460015481565b610a9b60048036036020811015610a2157600080fd5b50600760205235600290810b60009081526040902080546001820154828401546003909301546001600160801b03831694600160801b909304600f0b93919281810b916301000000810490910b90600160301b81046001600160a01b031690600160d01b810463ffffffff1690600160f01b900460ff1689565b604080516001600160801b03909a168a52600f9890980b60208a0152888801969096526060880194909452600292830b6080880152910b60a08601526001600160a01b031660c085015263ffffffff1660e0840152151561010083015251908190036101200190f35b61046760048036036020811015610b1a57600080fd5b50356001600160a01b0316611dae565b600654610263906001600160a01b031681565b600080610b486120ad565b600080600080610b598b8b8b6120e8565b949a50929850909650945092509050600080610b7481612a44565b915091508c15610c04576000871215610bb557610bb57f00000000000000000000000000000000000000000000000000000000000000008f89600003612c37565b610bc188888c8c612ca1565b610bc9612d02565b610bd3898461578d565b1115610bf257604051633ed6d50560e21b815260040160405180910390fd5b610bff8888856000612d93565b610c85565b6000881215610c3b57610c3b7f00000000000000000000000000000000000000000000000000000000000000008f8a600003612c37565b610c4788888c8c612ca1565b610c4f612f8a565b610c59888361578d565b1115610c7857604051633ed6d50560e21b815260040160405180910390fd5b610c858888600086612d93565b8d6001600160a01b0316336001600160a01b03167fc42079f94a6350d7e6235f29174924f928cc2ac818eb64fed8004e115fbcca678a8a8a898b60405180868152602001858152602001846001600160a01b03168152602001836001600160801b031681526020018260020b81526020019550505050505060405180910390a3505050505050610d13612fd9565b965096945050505050565b610d266120ad565b600080610d336000612a44565b909250905060008615610d7c57610d4f876064620f4240612ff0565b9050610d7c7f00000000000000000000000000000000000000000000000000000000000000008989612c37565b60008615610dc057610d93876064620f4240612ff0565b9050610dc07f00000000000000000000000000000000000000000000000000000000000000008a89612c37565b336001600160a01b031663a60b0d3c838389896040518563ffffffff1660e01b815260040180858152602001848152602001806020018281038252848482818152602001925080828437600081840152601f19601f82011690508083019250505095505050505050600060405180830381600087803b158015610e4257600080fd5b505af1158015610e56573d6000803e3d6000fd5b505050506000610e64612d02565b905080610e71848761578d565b1115610e90576040516336de50ff60e11b815260040160405180910390fd5b6000610e9a612f8a565b905080610ea7848761578d565b1115610ec65760405163c998149f60e01b815260040160405180910390fd5b60025491869003919085900390600160f01b900460ff168015610f225760008315610efb57610ef884836103e8613071565b90505b60008315610f1357610f1084846103e8613071565b90505b610f1f82828484612d93565b50505b604080518c8152602081018c90528082018590526060810184905290516001600160a01b038e169133917fbdbdb71d7860376ba52b25a5028beea23581364a40522f6bcfb86bb1f2dca6339181900360800190a350505050505050610f85612fd9565b5050505050565b600080610f976120ad565b6000610fc333888862ffffff9081169116601892831b1790911b176000908152600a6020526040902090565b60038101549091506001600160801b0380821691600160801b90048116908716821015610fee578196505b806001600160801b0316866001600160801b0316111561100c578095505b6001600160801b03878717161561114f576001600160801b0387830381168783038216600160801b026001600160801b031916176003850155879550869450851615611086576110867f00000000000000000000000000000000000000000000000000000000000000008b876001600160801b0316612c37565b6001600160801b038416156110c9576110c97f00000000000000000000000000000000000000000000000000000000000000008b866001600160801b0316612c37565b6110ee856001600160801b0316600003856001600160801b0316600003600080612d93565b604080516001600160a01b038c1681526001600160801b038088166020830152861681830152905160028a810b92908c900b9133917f70935338e69775456a85ddef226c395fb668b63fa0115f5f20610b388e6ca9c0919081900360600190a45b50505061115a612fd9565b9550959350505050565b60008061116f6120ad565b6000861215611191576040516334cb3a0160e11b815260040160405180910390fd5b60008061119e6000612a44565b915091506000808a156111cb576111b88a60008a8a612ca1565b836111c1612d02565b90925090506111e7565b6111d860008b8a8a612ca1565b826111e1612f8a565b90925090505b60006111fb6111f684846157a0565b61310a565b90508a81121561120957809a505b50505050508560000361122f57604051633ed6d50560e21b815260040160405180910390fd5b6000806000806112408b8b8b6120e8565b949a509298509096509450925090508a156112d357600085121561128c5761128c7f00000000000000000000000000000000000000000000000000000000000000008d87600003612c37565b898612156112c1576112c17f00000000000000000000000000000000000000000000000000000000000000008e888d03612c37565b6112ce8686836000612d93565b61134c565b600086121561130a5761130a7f00000000000000000000000000000000000000000000000000000000000000008d88600003612c37565b8985121561133f5761133f7f00000000000000000000000000000000000000000000000000000000000000008e878d03612c37565b61134c8686600084612d93565b60408051878152602081018790526001600160a01b03868116828401526001600160801b0385166060830152600286900b60808301529151918e169133917fc42079f94a6350d7e6235f29174924f928cc2ac818eb64fed8004e115fbcca67919081900360a00190a3505050506113c1612fd9565b97509795505050505050565b6113d56120ad565b6113dd61311e565b60fa60ff821611806113fd575060025460ff828116600160f01b90920416145b1561141b5760405163a709b9af60e01b815260040160405180910390fd5b6002805460ff60f01b1916600160f01b60ff84169081029190911790915560080361144d5761144a6001612a44565b50505b6040805160ff8316815290517fc78d4b4d53b7da1ae87376021bf9a299c7bc3d753247820f385bbc7062d6b30f9181900360200190a161148b612fd9565b50565b7f00000000000000000000000000000000000000000000000000000000000000006001600160a01b0316638a2ade586040518163ffffffff1660e01b8152600401602060405180830381865afa1580156114ec573d6000803e3d6000fd5b505050506040513d602081101561150257600080fd5b50516001600160a01b0316331461152c576040516315ce962f60e31b815260040160405180910390fd5b600680546001600160a01b0319166001600160a01b0383169081179091556040517f915c5369e6580733735d1c2e30ca20dcaa395697a041033c9f35f80f53525e8490600090a250565b61157e6120ad565b61158661311e565b6003805462ffffff838116600160981b0262ffffff60981b19918616600160801b029190911665ffffffffffff60801b199092169190911717905560408051600284810b825283900b602082015281517fb8aba2df34923184c9a36375c4555c9f807234ffee9fd39d57e971170c593b71929181900390910190a1611609612fd9565b5050565b600080838361161c82826131e6565b600286810b60009081526007602052604080822088840b8352912060038201549192909163010000008104820b910b14806116685750600381015463010000008104600290810b91900b145b1561168657604051630d6e094960e01b815260040160405180910390fd5b60038083015490820154600280546001600160a01b03600160301b80860482169563ffffffff600160d01b9182900481169692830490931694910490911691600160a01b9004810b908d900b8112156116e957509203975003945061173c915050565b8b60020b8160020b121561172a576003544290849087906117149084906001600160801b0316613269565b03039b509390930303975061173c945050505050565b5092900397509003945061173c915050565b50509250929050565b6000806117506120ad565b848461175c82826131e6565b60016001607f1b036001600160801b038616111561178d57604051638995290f60e01b815260040160405180910390fd5b6117976000612a44565b505060006117c533898962ffffff9081169116601892831b1790911b176000908152600a6020526040902090565b905060006117d2876157b3565b90508760020b8960020b146117f2576117ed828a8a846132da565b6117fd565b6117fd828a8361356f565b9096509450858517156118675760038201546118239087906001600160801b03166157d9565b6003830154611843908790600160801b90046001600160801b03166157d9565b6001600160801b039182169116600160801b026001600160801b0319161760038301555b6001600160801b03871686178517156118d257604080516001600160801b038916815260208101889052808201879052905160028a810b92908c900b9133917f0c396cd989a39f4459b5fa1aed6a9a8dcdbc45908acfd67e028cd568da98982c919081900360600190a45b505050506118de612fd9565b935093915050565b60008060006118f36120ad565b87876118ff82826131e6565b876001600160801b03166000036119295760405163e6ace6df60e01b815260040160405180910390fd5b60008960020b8b60020b1461194a57600354600160801b900460020b611958565b600354600160981b900460020b5b90508060020b8a60020b8161196f5761196f6157f9565b078160020b8c60020b81611985576119856157f9565b071760020b15158061199d5750600281900b627fffff145b156119bb57604051635f6e14f360e01b815260040160405180910390fd5b508860020b8a60020b03611a075760028054600160a01b9004810b908b900b136119f0576000886001600160801b03166119fd565b876001600160801b031660005b9095509350611a35565b60028054611a2e918c918c918c91600160a01b810490910b906001600160a01b031661367b565b5090955093505b600080611a426000612a44565b91509150336001600160a01b0316633dd657c588888c8c6040518563ffffffff1660e01b815260040180858152602001848152602001806020018281038252848482818152602001925080828437600081840152601f19601f82011690508083019250505095505050505050600060405180830381600087803b158015611ac857600080fd5b505af1158015611adc573d6000803e3d6000fd5b5050505086600014611b005781611af1612d02565b611afb91906157a0565b611b03565b60005b91508515611b235780611b14612f8a565b611b1e91906157a0565b611b26565b60005b90506000611b548e8e8e62ffffff9081169116601892831b1790911b176000908152600a6020526040902090565b90508b60020b8d60020b03611bb15760008311611b715781611b73565b825b9550856001600160801b0316600003611b9f57604051633ed6d50560e21b815260040160405180910390fd5b611baa818e8861356f565b5050611c54565b87831015611bd457611bcd8b6001600160801b0316848a613071565b9550611bd8565b8a95505b86821015611c18576000611bf68c6001600160801b0316848a613071565b9050866001600160801b0316816001600160801b03161015611c16578096505b505b856001600160801b0316600003611c4257604051632fae8a9b60e21b815260040160405180910390fd5b611c4e818e8e896132da565b90985096505b508615611cb55786821115611c9557611c907f00000000000000000000000000000000000000000000000000000000000000008f898503612c37565b611cb5565b868214611cb5576040516344a31ad760e01b815260040160405180910390fd5b8515611d155785811115611cf557611cf07f00000000000000000000000000000000000000000000000000000000000000008f888403612c37565b611d15565b858114611d15576040516344a31ad760e01b815260040160405180910390fd5b611d228787600080612d93565b8a60020b8c60020b8e6001600160a01b03167f7a53080ba414158be7ec69b987b5fb7d07dee101fe85488f0853ae16239d0bde33898c8c60405180856001600160a01b03168152602001846001600160801b0316815260200183815260200182815260200194505050505060405180910390a450505050611da1612fd9565b9750975097945050505050565b6002546001600160a01b031615611dd857604051631499a6b760e21b815260040160405180910390fd5b6000611de38261372a565b90506001600160a01b037f00000000000000000000000000000000000000000000000000000000000000001663475fb80c42836040518363ffffffff1660e01b8152600401808363ffffffff1681526020018260020b815260200192505050600060405180830381600087803b158015611e5c57600080fd5b505af1158015611e70573d6000803e3d6000fd5b50505050611e7b4290565b600560006101000a81548163ffffffff021916908363ffffffff16021790555081600260000160006101000a8154816001600160a01b0302191690836001600160a01b031602179055507f00000000000000000000000000000000000000000000000000000000000000006001600160a01b0316632f8a39dd6040518163ffffffff1660e01b8152600401602060405180830381865afa158015611f23573d6000803e3d6000fd5b505050506040513d6020811015611f3957600080fd5b505160028054600160f81b6001600160f01b03909116600160f01b60ff909416939093026001600160f81b0316929092179190911762ffffff60a01b1916600160a01b62ffffff841602178155604080516001600160a01b03851681529183900b602083015280517f98636036cb66a9c19a37435efc1e90142190214e8abeb821bdba3f2990dd4c959281900390910190a15050565b620d89e719611fdd8161580f565b620d89e7196000818152602085905260409020600301805465ffffffffffff1916630100000062ffffff9485160262ffffff191617939092169290921790556120258161580f565b826000612035620d89e71961580f565b60020b60020b81526020019081526020016000206003016000846000620d89e71961205f9061580f565b60020b81526020810191909152604001600020600301805462ffffff94851663010000000265ffffff0000001990911617905581549383166101009190910a90810292021990921617905550565b600254600160f81b900460ff166120d757604051636798480960e11b815260040160405180910390fd5b600280546001600160f81b03169055565b60008060008060008087600003612112576040516301e76e6160e61b815260040160405180910390fd5b600160ff1b8803612136576040516334cb3a0160e11b815260040160405180910390fd5b60408051610180810182526000602082018190529181018290526080810182905260a0810182905260c0810182905261016081018290526002805461ffff600160d01b82048116610100850152600160e01b82041661012084015260ff600160f01b8204168352600160b81b8104820b610140840152928b1360e0830152606082018b90526003546001600160a01b0384169750600160a01b909304900b94506001600160801b039091169250891561224357846001600160a01b0316886001600160a01b031610158061221857506401000276a36001600160a01b03891611155b1561223657604051631662672360e01b815260040160405180910390fd5b60005460a08201526122a8565b846001600160a01b0316886001600160a01b0316111580612281575073fffd8963efd1fc6a506488495d951d5263988d266001600160a01b03891610155b1561229f57604051631662672360e01b815260040160405180910390fd5b60015460a08201525b4263ffffffff16610160820181905261012082015160009182916122cd918888613a30565b9150915082610120015161ffff168261ffff16146123425761ffff8083166101208501526101008401518116908216146123425761ffff811661010084018190526040519081527f598b9f043c813aa6be3426ca60d1c65d17256312890be5118dab55b0775ebe2a9060200160405180910390a15b50506040805161010081018252600080825260208201819052918101829052606081018290526080810182905260a0810182905260c0810182905260e08101919091528a6123b557610140820151600290810b60009081526007602052604090206003015463010000009004900b6123bc565b8161014001515b60020b60208201525b6001600160a01b03861681526001604082015260208101516123e690613bba565b6001600160a01b0390811660608301819052825190911614801561242b575060208181015160020b600090815260079091526040902060030154600160f01b900460ff165b1561250157600160e082015260208101516101008301516000916124649189908f908f9060029061ffff16600895949392919004613eb9565b60c0860152608085015260a0840152905080156124fb5760208083015160020b6000908152600790915260408120546001600160801b031690036124cd576124b882602001518785610140015160016140f9565b60020b610140840152600060408301526124f3565b60208083015160020b6000908152600790915260409020600301805460ff60f01b191690555b600060e08301525b50612554565b6125428b878b6001600160a01b031684606001516001600160a01b03161015158e151514612533578360600151612535565b8b5b878e8761010001516141df565b60c085015260a0840152608083015295505b8160e001511561259a576125718160c0015182608001510161310a565b8a0399506125906125858260a0015161310a565b6080840151906143ca565b60808301526125d2565b6125a78160a0015161310a565b8a0199506125cc6125c18260c0015183608001510161310a565b6080840151906143e6565b60808301525b81511561261457815160c08201516000916103e8916125f0916143fc565b816125fd576125fd6157f9565b60c084018051929091049182900390529390930192505b6001600160801b0384161561264b5761263f8160c00151600160801b866001600160801b0316613071565b60a08301805190910190525b80606001516001600160a01b0316866001600160a01b031614801561267257508060e00151155b15612816578060400151156127be5760208181015160020b600090815260079091526040902060030154600160f01b900460ff16156126ca578a6126bd5760018160200151036126c3565b80602001515b94506123c5565b81604001516127095760016040830152600554600160201b90046001600160a01b031660208301528a6126ff57600054612703565b6001545b60c08301525b60008b1561276e5761274282602001518460a001518560c00151866020015187610160015160076144269095949392919063ffffffff16565b61014084018051600290810b60009081526007602052604081206003015490910b9091520390506127b0565b61279f82602001518460c001518560a00151866020015187610160015160076144269095949392919063ffffffff16565b602083015160020b61014085015290505b6127ba85826144cc565b9450505b8a6127f857602080820151610140840151600290810b6000908152600790935260409092206003015490916301000000909104900b612807565b60018160200151038261014001515b60020b6020830152945061283a565b80516001600160a01b0387811691161461283a576128338661372a565b945061285e565b8915806128585750886001600160a01b0316866001600160a01b0316145b156123c5575b816040015115612938576006546001600160a01b031680156129365760405163034d335960e41b8152600287900b60048201528c151560248201526000906001600160a01b038316906334d33590906044016020604051808303816000875af19250505080156128eb575060408051601f3d908101601f191682019092526128e891810190615828565b60015b156128f35790505b8061293457600680546001600160a01b03191690556040516000907f915c5369e6580733735d1c2e30ca20dcaa395697a041033c9f35f80f53525e84908290a25b505b505b8160e0015115158b1515146129585781608001518a836060015103612965565b8982606001510382608001515b6101008401516101208501516101408601516002805466ffff0000ffffff60b81b1916600160b81b62ffffff9384160261ffff60e01b191617600160e01b61ffff948516021767ffff000000ffffff60a01b1916600160d01b939094169290920262ffffff60a01b191692909217600160a01b928a1692909202919091176001600160a01b0319166001600160a01b038a16179055600380546001600160801b0319166001600160801b03881617905590985096508a15612a2d5760a0820151600055612a36565b60a08201516001555b505093975093979195509350565b600080612a4f612d02565b612a57612f8a565b909250905060ff806001600160801b03841115612a84576001600160801b03936002600160801b03190191505b6001600160801b03831115612aa857506001600160801b03916002600160801b0319015b6003546001600160801b03166000819003612ac557505050915091565b8515612ae157612ad3612d02565b612adb612f8a565b90935091505b600b546001600160801b0380821691600160801b9004168187118187118180612b075750805b15612b95578115612b3f57612b35846001600160801b03168a03600160801b876001600160801b0316613071565b6000805490910190555b8015612b7257612b68836001600160801b03168903600160801b876001600160801b0316613071565b6001805490910190555b6001600160801b03808a16908916600160801b026001600160801b03191617600b555b612be07f00000000000000000000000000000000000000000000000000000000000000007f000000000000000000000000000000000000000000000000000000000000000089612c37565b612c2b7f00000000000000000000000000000000000000000000000000000000000000007f000000000000000000000000000000000000000000000000000000000000000088612c37565b50505050505050915091565b600060405163a9059cbb60e01b6000526001600160a01b03841660045282602452602060006044600080895af19150813d1560203d146001600051141617169150806040525080612c9b57604051637232c81f60e11b815260040160405180910390fd5b50505050565b604051631644ac7b60e11b81523390632c8958f690612cca90879087908790879060040161584a565b600060405180830381600087803b158015612ce457600080fd5b505af1158015612cf8573d6000803e3d6000fd5b5050505050505050565b6040516370a0823160e01b81523060048201526000907f00000000000000000000000000000000000000000000000000000000000000006001600160a01b0316906370a08231906024015b602060405180830381865afa158015612d6a573d6000803e3d6000fd5b505050506040513d601f19601f82011682018060405250810190612d8e9190615887565b905090565b81811715612f01576004546003546001600160801b03808316850192600160801b9004168301904290617080600160b01b90910463ffffffff908116830316101580612de557506001600160801b0383115b80612df657506001600160801b0382115b15612ede578215612e4c57612e4c7f00000000000000000000000000000000000000000000000000000000000000007f000000000000000000000000000000000000000000000000000000000000000085612c37565b8115612e9d57612e9d7f00000000000000000000000000000000000000000000000000000000000000007f000000000000000000000000000000000000000000000000000000000000000084612c37565b6003805463ffffffff60b01b1916600160b01b63ffffffff841602179055612ec48361310a565b8703612ecf8361310a565b90975090950394600092508291505b506001600160801b039182169116600160801b026001600160801b031916176004555b83831715612c9b57600b546001600160801b0380821691600160801b9004168515612f4457612f38612f3387846158a0565b614546565b6001600160801b031691505b8415612f6357612f57612f3386836158a0565b6001600160801b031690505b6001600160801b039182169116600160801b026001600160801b03191617600b5550505050565b6040516370a0823160e01b81523060048201526000907f00000000000000000000000000000000000000000000000000000000000000006001600160a01b0316906370a0823190602401612d4d565b600280546001600160f81b0316600160f81b179055565b60008315806130115750508282028284828161300e5761300e6157f9565b04145b15613032576000821161302357600080fd5b8181049082900615150161306a565b61303d848484613071565b90506000828061304f5761304f6157f9565b848609111561306a57600019811061306657600080fd5b6001015b9392505050565b6000838302816000198587098281108382030391505080841161309357600080fd5b806000036130a65750829004905061306a565b8385870960008581038616958690049560026003880281188089028203028089028203028089028203028089028203028089028203028089029091030291819003819004600101858411909403939093029190930391909104170290509392505050565b80600081121561311957600080fd5b919050565b6040805163e8ae2b6960e01b81527fb73ce166ead2f8e9add217713a7989e4edfba9625f71dfd2516204bb67ad3442600482015233602482015290516001600160a01b037f0000000000000000000000000000000000000000000000000000000000000000169163e8ae2b699160448083019260209291908290030181865afa1580156131af573d6000803e3d6000fd5b505050506040513d60208110156131c557600080fd5b50516131e457604051634994c26960e11b815260040160405180910390fd5b565b6131f3620d89e71961580f565b60020b8160020b131561321957604051631445443d60e01b815260040160405180910390fd5b8160020b8160020b12156132405760405163d5e6ef3b60e01b815260040160405180910390fd5b620d89e719600283900b121561160957604051631d1ac7f160e21b815260040160405180910390fd5b6005546001600160a01b03600160201b8204169063ffffffff90811690841681146132d3576000836001600160801b0316116132a65760016132a8565b825b6001600160801b031663ffffffff60801b82860360801b16816132cd576132cd6157f9565b04820191505b5092915050565b60408051608081018252600280546001600160a01b0381168352600160b81b8104820b602084015261ffff600160d01b8204811694840194909452600160e01b81049093166060830152600080546001549194859493600160a01b909104900b9184918291600f89900b156133945760035442906000906133659083906001600160801b0316613269565b905061337a60078e898e88888789600061455c565b955061338f60078d898e88888789600161455c565b945050505b6000806133a660078e8e8a88886146b2565b915091506133b68e8c8484614750565b5050505086600f0b6000146135625781806133ce5750805b1561341757602084015182156133f3576133f08a858360008c600f0b126140f9565b90505b811561340e5761340b89858360008c600f0b126140f9565b90505b60020b60208501525b600061342a8a8a8a87896000015161367b565b91985096509050600f81900b156134fe5760035460608601516001600160801b0390911690600090819061346090428986613a30565b915091508161ffff16886060015161ffff16146134d05761ffff80831660608a015260408901518116908216146134d05761ffff81166040898101829052519081527f598b9f043c813aa6be3426ca60d1c65d17256312890be5118dab55b0775ebe2a9060200160405180910390a15b6134da838c6144cc565b600380546001600160801b0319166001600160801b03929092169190911790555050505b506020840151604085015160608601516002805463ffffffff60d01b1916600160e01b61ffff9384160261ffff60d01b191617600160d01b92909316919091029190911762ffffff60b81b1916600160b81b62ffffff909316929092029190911790555b5050505094509492505050565b60008061357d858585614845565b82600f0b6000146118de57600280546000600f86900b1291600160a01b8204810b91600160b81b9004900b6135b56008888489614b69565b1561363957600287810b600090815260076020526040902060038101805460ff60f01b19168615600160f01b021790819055909181810b6301000000909204900b03613637576000613609898585886140f9565b90508260020b8160020b14613635576002805462ffffff60b81b1916600160b81b62ffffff8416021790555b505b505b8215613670578160020b8760020b1361365a57600086600003600f0b613664565b85600003600f0b60005b945094505050506118de565b505050935093915050565b60008060008061368a89613bba565b9050600061369789613bba565b90506000808b60020b8960020b12156136bc576136b584848c614cca565b91506136fa565b8a60020b8960020b12156136ec576136d588848c614cca565b91506136e284898c614d02565b90508994506136fa565b6136f784848c614d02565b90505b60008a600f0b1261370c578181613715565b81600003816000035b909d909c50949a509398505050505050505050565b60006401000276a36001600160a01b0383161080613765575073fffd8963efd1fc6a506488495d951d5263988d266001600160a01b03831610155b15613783576040516355cf1e2360e01b815260040160405180910390fd5b640100000000600160c01b03602083901b166001600160801b03811160071b81811c67ffffffffffffffff811160061b90811c63ffffffff811160051b90811c61ffff811160041b90811c60ff8111600390811b91821c600f811160021b90811c918211600190811b92831c9790881196179094179092171790911717176080811061381757607f810383901c9150613821565b80607f0383901b91505b908002607f81811c60ff83811c9190911c800280831c81831c1c800280841c81841c1c800280851c81851c1c800280861c81861c1c800280871c81871c1c800280881c81881c1c800280891c81891c1c8002808a1c818a1c1c8002808b1c818b1c1c8002808c1c818c1c1c8002808d1c818d1c1c8002808e1c9c81901c9c909c1c80029c8d901c9e9d607f198f0160401b60c09190911c678000000000000000161760c19b909b1c674000000000000000169a909a1760c29990991c672000000000000000169890981760c39790971c671000000000000000169690961760c49590951c670800000000000000169490941760c59390931c670400000000000000169290921760c69190911c670200000000000000161760c79190911c670100000000000000161760c89190911c6680000000000000161760c99190911c6640000000000000161760ca9190911c6620000000000000161760cb9190911c6610000000000000161760cc9190911c6608000000000000161760cd9190911c66040000000000001617693627a301d71055774c8581026f028f6481ab7f045a5af012a19d003aa9198101608090811d906fdb2df09e81959a81455e260799a0632f8301901d600281810b9083900b14613a2157886001600160a01b0316613a0682613bba565b6001600160a01b03161115613a1b5781613a23565b80613a23565b815b9998505050505050505050565b600554600090819063ffffffff9081169086168103613a56578660009250925050613bb1565b6000846001600160801b031611613a6e576001613a70565b835b6001600160801b031663ffffffff60801b82880360801b1681613a9557613a956157f9565b6005805463ffffffff8a1663ffffffff196001600160a01b03600160201b808504821697909604969096018616909402939093166001600160c01b03199091161782179055604051633a9b2bcd60e11b815261ffff8a1660048201526024810191909152600287900b60448201527f000000000000000000000000000000000000000000000000000000000000000090911690637536579a9060640160408051808303816000875af1925050508015613b6b575060408051601f3d908101601f19168201909252613b68918101906158d2565b60015b613ba5576040517fa0685fed6ef96337148df08777f7ae2a60f01eed5d13c1299f1f0610c691f2b390600090a18660009250925050613bb1565b9093509150613bb19050565b94509492505050565b6000600282900b60171d62ffffff81841882900316620d89e8811115613bf357604051633c10250f60e01b815260040160405180910390fd5b600081600116600003613c0a57600160801b613c1c565b6ffffcb933bd6fad37aa2d162d1a5940015b70ffffffffffffffffffffffffffffffffff1690506002821615613c50576ffff97272373d413259a46990580e213a0260801c5b6004821615613c6f576ffff2e50f5f656932ef12357cf3c7fdcc0260801c5b6008821615613c8e576fffe5caca7e10e4e61c3624eaa0941cd00260801c5b6010821615613cad576fffcb9843d60f6159c9db58835c9266440260801c5b6020821615613ccc576fff973b41fa98c081472e6896dfb254c00260801c5b6040821615613ceb576fff2ea16466c96a3843ec78b326b528610260801c5b6080821615613d0a576ffe5dee046a99a2a811c461f1969c30530260801c5b610100821615613d2a576ffcbe86c7900a88aedcffc83b479aa3a40260801c5b610200821615613d4a576ff987a7253ac413176f2b074cf7815e540260801c5b610400821615613d6a576ff3392b0822b70005940c7a398e4b70f30260801c5b610800821615613d8a576fe7159475a2c29b7443b29c7fa6e889d90260801c5b611000821615613daa576fd097f3bdfd2022b8845ad8f792aa58250260801c5b612000821615613dca576fa9f746462d870fdf8a65dc1f90e061e50260801c5b614000821615613dea576f70d869a156d2a1b890bb3df62baf32f70260801c5b618000821615613e0a576f31be135f97d08fd981231505542fcfa60260801c5b62010000821615613e2b576f09aa508b5b7a84e1c677de54f3e99bc90260801c5b62020000821615613e4b576e5d6af8dedb81196699c329225ee6040260801c5b62040000821615613e6a576d2216e584f5fa1ea926041bedfe980260801c5b62080000821615613e87576b048a170391f7dc42444e8fa20260801c5b60008560020b1315613ea8578060001981613ea457613ea46157f9565b0490505b63ffffffff0160201c949350505050565b600080808080861380613ecd578660000396505b6000871215613eef576040516334cb3a0160e11b815260040160405180910390fd5b6000613f096001600160a01b038b1680600160301b613071565b905060008215158a151514613f2c57613f2789600160901b84613071565b613f3b565b613f3b8983600160901b613071565b905082613f49578881613f4c565b80895b809650819750505060008d60008e60020b60020b815260200190815260200160002090506000808260000160009054906101000a90046001600160801b03168360000160109054906101000a90046001600160801b03169150915060008183036001600160801b031690508615613fe157613fde8a8d61ffff16620f42400362ffffff16620f424062ffffff16613071565b99505b808a1061400157808a1115613ff4578099505b6000845560019a5061401c565b83546001600160801b03838c018116600160801b0291161784555b8d614035576140308a87600160901b612ff0565b614044565b6140448a600160901b88612ff0565b9850861561407657808a0361406c576140658961ffff8e16620f4240612ff0565b9750614093565b888d039750614093565b6140908961ffff8e1662ffffff620f424082900316612ff0565b97505b8d156140c1576140b189600160801b856001600160801b0316613071565b60018501805490910190556140e5565b6140d989600160801b856001600160801b0316613071565b60028501805490910190555b505050505050509650965096509692505050565b600c5460009081831561412957614111600788614d32565b90508660020b8560020b03614124578094505b6141b1565b60008760020b8660020b12801561414657508660020b8860020b13155b15614176575050600284810b6000908152600760205260409020600301548795916301000000909104900b6141a2565b6141846009600d858b614e6f565b600281810b600090815260076020526040902060030154900b925090505b6141af6007898484614f23565b505b60006141c16009600d8a86615008565b90508281146141d057600c8190555b8593505050505b949350505050565b60008060008061576f8a6141f5576150a06141f9565b6150af5b9050600087126142ea576000614226888861ffff16620f42400362ffffff16620f424062ffffff16613071565b90506142378a8c8b8563ffffffff16565b94508481106142645789955061425d8561ffff891662ffffff620f424082900316612ff0565b92506142c3565b6142708b8a838f6150be565b9550856001600160a01b03168a6001600160a01b0316146142a65761429a868c8b8563ffffffff16565b945084880392506142c3565b6142c08561ffff891662ffffff620f424082900316612ff0565b92505b6142e2868c8b8f6142d6576150d76142da565b6150e65b63ffffffff16565b9350506143bc565b61576f8b6142fa576150d76142fe565b6150e65b905061430f8a8c8b8463ffffffff16565b93508760000397506000881215614339576040516334cb3a0160e11b815260040160405180910390fd5b8388106143485789955061438d565b6143548b8a8a8f6150f5565b9550856001600160a01b03168a6001600160a01b0316146143815761437e868c8b8463ffffffff16565b93505b8784111561438d578793505b61439c868c8b8563ffffffff16565b94506143b88561ffff891662ffffff620f424082900316612ff0565b9250505b509650965096509692505050565b808203828113156000831215146143e057600080fd5b92915050565b818101828112156000831215146143e057600080fd5b600082158061441d5750508181028183828161441a5761441a6157f9565b04145b6143e057600080fd5b600285810b60009081526020889052604090206003810180546001600160a01b03600160301b63ffffffff600160d01b808504821689039091160263ffffffff60d01b198416811782900483168903909216026601000000000000600160d01b03199091166601000000000000600160f01b0319909216919091171790559081018054850390556001810180548603905554600160801b9004600f0b9695505050505050565b60008082600f0b121561450e57508082016001600160801b0380841690821610614509576040516302603ee960e31b815260040160405180910390fd5b6143e0565b826001600160801b03168284019150816001600160801b031610156143e057604051634cba017960e11b815260040160405180910390fd5b806001600160801b038116811461311957600080fd5b600288900b600090815260208a9052604081208054600160801b8104600f0b906001600160801b031683614590828c6144cc565b90506d02000004000008000010000020006001600160801b03821611156145ca576040516312dc1b2560e11b815260040160405180910390fd5b856145e6578a600f0b83600f0b6145e191906158a0565b6145f8565b8a600f0b83600f0b6145f89190615905565b6001600160801b03828116918116600160801b026001600160801b0319168217865590159550821660000361468857841594508b60020b8d60020b1361468857600184018a9055600284018990556003840180546601000000000000600160f01b031916600160301b6001600160a01b038b160263ffffffff60d01b191617600160d01b63ffffffff8a16021790555b84156146a1576003840154600160f01b900460ff161594505b505050509998505050505050505050565b600285810b60009081526020889052604080822087840b8084529183209293849391929088900b1215614728578860020b8760020b1261470357816001015486039350816002015485039250614712565b81600101549350816002015492505b6001810154600282015494039390920391614743565b81600101548160010154039350816002015481600201540392505b5050965096945050505050565b8354600f84900b60000361477a57806001600160801b03166000036147755750612c9b565b614790565b61478481856144cc565b6001600160801b031685555b600185015460008185146147c257600187018590556147bf8286036001600160801b038516600160801b613071565b90505b600287015460008186146147f457600289018690556147f18287036001600160801b038716600160801b613071565b90505b6001600160801b03838217161561483a57600389018054600160801b6001600160801b03808316870181166001600160801b031990931683178290048116850116021790555b505050505050505050565b8254608081901c906001600160801b031681158015614867575082600f0b6000145b15614873575050505050565b600284900b600090815260086020526040812060038101549091908190819060ff166148be575060038301805460ff19166001908117909155600284018190558381018190556148c5565b5060028301545b856000036148fb5788600101546000036148e457600180850154908a01555b88600201546000036148fb57600280850154908a01555b8860020154810392506000831191508161491d57886001015484600101540392505b508115614a6457600084156149bd5761493b8386600160801b613071565b9050600061494889613bba565b6001600160a01b0316905060006149648283600160301b613071565b90506000808561497957600160901b83614980565b82600160901b5b9150915060006149918b8484613071565b9050808610156149af576149a88682038385613071565b9a506149b7565b80955060009a505b50505050505b8115614a1757600289018054840190558015614a125760038901546149f290600160801b90046001600160801b031682615105565b60038a0180546001600160801b03928316600160801b0292169190911790555b614a62565b600189018054840190558015614a62576003890154614a3f906001600160801b031682615105565b60038a0180546001600160801b0319166001600160801b03929092169190911790555b505b84600003614a7157600093505b85600f0b600014614b215785858514801590614a8c57508515155b15614af557600087600f0b12614ac057614abb614ab66111f6896001600160801b0316888a613071565b615121565b614ae5565b614ae5614add6111f6896000036001600160801b0316888a613071565b600003615121565b9050614af5600889898403615132565b614aff86886144cc565b6001600160801b03169550614b1485826144cc565b6001600160801b03169450505b84600003614b2e57600093505b6001600160801b038511801590614b4c57506001600160801b038411155b614b5857614b58615925565b50505060809190911b179092555050565b6000620bd8ab600285900b121580614b915750614b88620bd8ab61580f565b60020b8460020b125b15614baf57604051633b55dfed60e21b815260040160405180910390fd5b50600283900b600090815260208590526040902080546001600160801b031680159190614bdc81856144cc565b9050600084600f0b1315614c86576000614bf587613bba565b6001600160a01b031690506000614c118283600160301b613071565b905060008760020b8960020b13614c3f57614c3a846001600160801b0316600160901b84612ff0565b614c57565b614c57846001600160801b031683600160901b612ff0565b90506001607f1b811115614c7e57604051632f5af0fd60e21b815260040160405180910390fd5b505050614ca7565b6001600160801b0381161592508215614ca75781546001600160801b031682555b81546001600160801b0319166001600160801b0391909116179055949350505050565b60008082600f0b1215614cf257614cea6111f6858585600003600061527f565b6000036141d7565b6141d76111f6858585600161527f565b60008082600f0b1215614d2257614cea6111f6858585600003600061530f565b6141d76111f6858585600161530f565b600281810b6000818152602085905260408120600381018054838355600183018490559185018390556001600160f81b031982169055909281810b926301000000909204900b90620d89e7191480614d9b5750614d92620d89e71961580f565b60020b8460020b145b15614de557600284900b6000908152602086905260409020600301805465ffffffffffff1916630100000062ffffff9384160262ffffff19161791831691909117905590506143e0565b8060020b8260020b03614e0b57604051630d6e094960e01b815260040160405180910390fd5b600282810b6000908152602087905260408082206003908101805465ffffff0000001916630100000062ffffff88811691909102919091179091559490930b8252902001805462ffffff191691831691909117905590506143e0565b505092915050565b600190810190600090600883811d610d8a01901c90829061ffff83161b851615614ecc57614e9d8785615380565b90945090925090508015614eb25750506141d7565b614ec386610d8b840160010b615380565b90945090925090505b80614f0957614ee4858360010193508360010b6153b1565b909350905080614efc5750620d89e891506141d79050565b614f0686846154ff565b92505b614f1887610d891985016154ff565b979650505050505050565b600283900b620d89e7191480614f4a5750614f41620d89e71961580f565b60020b8360020b145b612c9b578260020b8260020b121580614f6957508260020b8160020b13155b15614f875760405163e45ac17d60e01b815260040160405180910390fd5b600283810b600090815260209590955260408086206003908101805465ffffffffffff1916630100000062ffffff878116820262ffffff19908116939093178982161790935596850b89528389208301805465ffffff000000191692909816968702919091179096559290910b855290932090920180549091169091179055565b806000806150458786600881901d600181810b60009081526020949094526040909320805460ff9093169390931b80831890935591811490151891565b91509150811561509657610d8a01600181810b60081d80820b6000908152602089905260409020805460ff9094169290921b808418909255821591909214818118935014615096576001811b831892505b5050949350505050565b60006141d7838584600161530f565b60006141d7848484600161527f565b60006150ce85858585600161552b565b95945050505050565b60006141d7838584600061527f565b60006141d7848484600061530f565b60006150ce85858585600061552b565b8082016001600160801b0380841690821610156143e057600080fd5b80600f81900b811461311957600080fd5b600282900b600090815260208490526040812090600f83900b13156151e15780548290829060009061516e9084906001600160801b03166157d9565b92506101000a8154816001600160801b0302191690836001600160801b03160217905550818160000160108282829054906101000a90046001600160801b03166151b891906157d9565b92506101000a8154816001600160801b0302191690836001600160801b03160217905550612c9b565b6151ea826157b3565b815482906000906152059084906001600160801b031661593b565b92506101000a8154816001600160801b0302191690836001600160801b0316021790555081615233906157b3565b81548290601090615255908490600160801b90046001600160801b031661593b565b92506101000a8154816001600160801b0302191690836001600160801b0316021790555050505050565b60006001600160a01b038585038116908516811061529c57600080fd5b600160601b600160e01b03606085901b16836152e357866001600160a01b03166152d08383896001600160a01b0316613071565b816152dd576152dd6157f9565b04614f18565b614f186152fa8383896001600160a01b0316612ff0565b886001600160a01b0316808204910615150190565b6000846001600160a01b0316846001600160a01b0316101561533057600080fd5b6001600160a01b03858503168261535e5761535981856001600160801b0316600160601b613071565b615376565b61537681856001600160801b0316600160601b612ff0565b9695505050505050565b600881901d600181900b60009081526020849052604081205481906153a590856153b1565b93969095509293505050565b60008060ff831684811c8083036153cf578160ff038501935061173c565b7f555555555555555555555555555555555555555555555555555555555555555560008290038216908116156001600160801b0382161560071b1777ffffffffffffffff0000000000000000ffffffffffffffff82161560061b177bffffffff00000000ffffffff00000000ffffffff00000000ffffffff82161560051b177dffff0000ffff0000ffff0000ffff0000ffff0000ffff0000ffff0000ffff82161560041b177eff00ff00ff00ff00ff00ff00ff00ff00ff00ff00ff00ff00ff00ff00ff00ff82161560031b177f0f0f0f0f0f0f0f0f0f0f0f0f0f0f0f0f0f0f0f0f0f0f0f0f0f0f0f0f0f0f0f0f82161560021b177f33333333333333333333333333333333333333333333333333333333333333339091161560011b1760ff169490940195600195509350505050565b600181900b600090815260208390526040902054600882901b9061552390826153b1565b509392505050565b6000856001600160a01b031660000361554357600080fd5b846001600160801b031660000361555957600080fd5b8115158315150361566457836000036155735750846150ce565b600160601b600160e01b03606086901b168215615612576001600160a01b038716858102908682816155a7576155a76157f9565b04036155d7578181018281106155d5576155cb838a6001600160a01b031683612ff0565b93505050506150ce565b505b615609826155fe888b6001600160a01b031686816155f7576155f76157f9565b0490615749565b808204910615150190565b925050506150ce565b6001600160a01b0387168581029086828161562f5761562f6157f9565b041461563a57600080fd5b80821161564657600080fd5b61560961565f838a6001600160a01b0316848603612ff0565b615759565b81156156d1576156ca61565f6001600160a01b0386111561569c5761569786600160601b896001600160801b0316613071565b6156ba565b6001600160801b038716606087901b816156b8576156b86157f9565b045b6001600160a01b03891690615749565b90506150ce565b60006001600160a01b038511156156ff576156fa85600160601b886001600160801b0316612ff0565b61571c565b61571c606086901b6001600160801b038816808204910615150190565b905080876001600160a01b03161161573357600080fd5b6001600160a01b03871603905095945050505050565b808201828110156143e057600080fd5b806001600160a01b038116811461311957600080fd5b6131e461595b565b634e487b7160e01b600052601160045260246000fd5b808201808211156143e0576143e0615777565b818103818111156143e0576143e0615777565b600081600f0b60016001607f1b031981036157d0576157d0615777565b60000392915050565b6001600160801b038181168382160190808211156132d3576132d3615777565b634e487b7160e01b600052601260045260246000fd5b60008160020b627fffff1981036157d0576157d0615777565b60006020828403121561583a57600080fd5b8151801515811461306a57600080fd5b84815283602082015260606040820152816060820152818360808301376000818301608090810191909152601f909201601f191601019392505050565b60006020828403121561589957600080fd5b5051919050565b8082018281126000831280158216821582161715614e6757614e67615777565b805161ffff8116811461311957600080fd5b600080604083850312156158e557600080fd5b6158ee836158c0565b91506158fc602084016158c0565b90509250929050565b81810360008312801583831316838312821617156132d3576132d3615777565b634e487b7160e01b600052600160045260246000fd5b6001600160801b038281168282160390808211156132d3576132d3615777565b634e487b7160e01b600052605160045260246000fdfea164736f6c6343000811000aa164736f6c6343000811000a",
  "devdoc": {
    "details": "Version: Algebra V2.1",
    "kind": "dev",
    "methods": {
      "deploy(address,address,address)": {
        "details": "Deploys a pool with the given parameters by transiently setting the parameters in cache.",
        "params": {
          "dataStorage": "The pools associated dataStorage",
          "token0": "The first token of the pool by address sort order",
          "token1": "The second token of the pool by address sort order"
        },
        "returns": {
          "pool": "The deployed pool's address"
        }
      },
      "getDeployParameters()": {
        "details": "Called by the pool constructor to fetch the parameters of the pool",
        "returns": {
          "_communityVault": "The community vault address",
          "_dataStorage": "The pools associated dataStorage",
          "_factory": "The factory address",
          "_token0": "The first token of the pool by address sort order",
          "_token1": "The second token of the pool by address sort order"
        }
      }
    },
    "stateVariables": {
      "cache0": {
        "details": "two storage slots for dense cache packing"
      }
    },
    "title": "Algebra pool deployer",
    "version": 1
  },
  "userdoc": {
    "kind": "user",
    "methods": {
      "getDeployParameters()": {
        "notice": "Get the parameters to be used in constructing the pool, set transiently during pool creation."
      }
    },
    "notice": "Is used by AlgebraFactory to deploy pools",
    "version": 1
  },
  "storageLayout": {
    "storage": [
      {
        "astId": 1446,
        "contract": "contracts/AlgebraPoolDeployer.sol:AlgebraPoolDeployer",
        "label": "cache0",
        "offset": 0,
        "slot": "0",
        "type": "t_bytes32"
      },
      {
        "astId": 1448,
        "contract": "contracts/AlgebraPoolDeployer.sol:AlgebraPoolDeployer",
        "label": "cache1",
        "offset": 0,
        "slot": "1",
        "type": "t_bytes32"
      }
    ],
    "types": {
      "t_bytes32": {
        "encoding": "inplace",
        "label": "bytes32",
        "numberOfBytes": "32"
      }
    }
  }
}