{
  "address": "0xbE53762e668e9Eff225f73a22F96cc63B2008015",
  "abi": [
    {
      "inputs": [
        {
          "internalType": "contract IAlgebraPoolDeployer",
          "name": "_deployer",
          "type": "address"
        },
        {
          "internalType": "contract INonfungiblePositionManager",
          "name": "_nonfungiblePositionManager",
          "type": "address"
        }
      ],
      "stateMutability": "nonpayable",
      "type": "constructor"
    },
    {
      "inputs": [],
      "name": "anotherFarmingIsActive",
      "type": "error"
    },
    {
      "inputs": [],
      "name": "claimToZeroAddress",
      "type": "error"
    },
    {
      "inputs": [],
      "name": "farmDoesNotExist",
      "type": "error"
    },
    {
      "inputs": [],
      "name": "farmingAlreadyExists",
      "type": "error"
    },
    {
      "inputs": [],
      "name": "incentiveNotExist",
      "type": "error"
    },
    {
      "inputs": [],
      "name": "incentiveStopped",
      "type": "error"
    },
    {
      "inputs": [],
      "name": "invalidPool",
      "type": "error"
    },
    {
      "inputs": [],
      "name": "minimalPositionWidthTooWide",
      "type": "error"
    },
    {
      "inputs": [],
      "name": "positionIsTooNarrow",
      "type": "error"
    },
    {
      "inputs": [],
      "name": "tokenAlreadyFarmed",
      "type": "error"
    },
    {
      "inputs": [],
      "name": "zeroLiquidity",
      "type": "error"
    },
    {
      "inputs": [],
      "name": "zeroRewardAmount",
      "type": "error"
    },
    {
      "anonymous": false,
      "inputs": [
        {
          "indexed": true,
          "internalType": "contract IERC20Minimal",
          "name": "rewardToken",
          "type": "address"
        },
        {
          "indexed": true,
          "internalType": "contract IERC20Minimal",
          "name": "bonusRewardToken",
          "type": "address"
        },
        {
          "indexed": true,
          "internalType": "contract IAlgebraPool",
          "name": "pool",
          "type": "address"
        },
        {
          "indexed": false,
          "internalType": "address",
          "name": "virtualPool",
          "type": "address"
        },
        {
          "indexed": false,
          "internalType": "uint256",
          "name": "nonce",
          "type": "uint256"
        },
        {
          "indexed": false,
          "internalType": "uint256",
          "name": "reward",
          "type": "uint256"
        },
        {
          "indexed": false,
          "internalType": "uint256",
          "name": "bonusReward",
          "type": "uint256"
        },
        {
          "indexed": false,
          "internalType": "uint24",
          "name": "minimalAllowedPositionWidth",
          "type": "uint24"
        }
      ],
      "name": "EternalFarmingCreated",
      "type": "event"
    },
    {
      "anonymous": false,
      "inputs": [
        {
          "indexed": true,
          "internalType": "uint256",
          "name": "tokenId",
          "type": "uint256"
        },
        {
          "indexed": true,
          "internalType": "bytes32",
          "name": "incentiveId",
          "type": "bytes32"
        },
        {
          "indexed": true,
          "internalType": "address",
          "name": "rewardAddress",
          "type": "address"
        },
        {
          "indexed": false,
          "internalType": "address",
          "name": "bonusRewardToken",
          "type": "address"
        },
        {
          "indexed": false,
          "internalType": "address",
          "name": "owner",
          "type": "address"
        },
        {
          "indexed": false,
          "internalType": "uint256",
          "name": "reward",
          "type": "uint256"
        },
        {
          "indexed": false,
          "internalType": "uint256",
          "name": "bonusReward",
          "type": "uint256"
        }
      ],
      "name": "FarmEnded",
      "type": "event"
    },
    {
      "anonymous": false,
      "inputs": [
        {
          "indexed": true,
          "internalType": "uint256",
          "name": "tokenId",
          "type": "uint256"
        },
        {
          "indexed": true,
          "internalType": "bytes32",
          "name": "incentiveId",
          "type": "bytes32"
        },
        {
          "indexed": false,
          "internalType": "uint128",
          "name": "liquidity",
          "type": "uint128"
        }
      ],
      "name": "FarmEntered",
      "type": "event"
    },
    {
      "anonymous": false,
      "inputs": [
        {
          "indexed": true,
          "internalType": "address",
          "name": "farmingCenter",
          "type": "address"
        }
      ],
      "name": "FarmingCenter",
      "type": "event"
    },
    {
      "anonymous": false,
      "inputs": [
        {
          "indexed": true,
          "internalType": "bytes32",
          "name": "incentiveId",
          "type": "bytes32"
        }
      ],
      "name": "IncentiveDeactivated",
      "type": "event"
    },
    {
      "anonymous": false,
      "inputs": [
        {
          "indexed": true,
          "internalType": "address",
          "name": "incentiveMaker",
          "type": "address"
        }
      ],
      "name": "IncentiveMaker",
      "type": "event"
    },
    {
      "anonymous": false,
      "inputs": [
        {
          "indexed": false,
          "internalType": "uint256",
          "name": "reward",
          "type": "uint256"
        },
        {
          "indexed": false,
          "internalType": "uint256",
          "name": "bonusReward",
          "type": "uint256"
        },
        {
          "indexed": false,
          "internalType": "bytes32",
          "name": "incentiveId",
          "type": "bytes32"
        }
      ],
      "name": "RewardAmountsDecreased",
      "type": "event"
    },
    {
      "anonymous": false,
      "inputs": [
        {
          "indexed": true,
          "internalType": "address",
          "name": "to",
          "type": "address"
        },
        {
          "indexed": false,
          "internalType": "uint256",
          "name": "reward",
          "type": "uint256"
        },
        {
          "indexed": true,
          "internalType": "address",
          "name": "rewardAddress",
          "type": "address"
        },
        {
          "indexed": true,
          "internalType": "address",
          "name": "owner",
          "type": "address"
        }
      ],
      "name": "RewardClaimed",
      "type": "event"
    },
    {
      "anonymous": false,
      "inputs": [
        {
          "indexed": false,
          "internalType": "uint256",
          "name": "rewardAmount",
          "type": "uint256"
        },
        {
          "indexed": false,
          "internalType": "uint256",
          "name": "bonusRewardAmount",
          "type": "uint256"
        },
        {
          "indexed": false,
          "internalType": "bytes32",
          "name": "incentiveId",
          "type": "bytes32"
        }
      ],
      "name": "RewardsAdded",
      "type": "event"
    },
    {
      "anonymous": false,
      "inputs": [
        {
          "indexed": false,
          "internalType": "uint256",
          "name": "tokenId",
          "type": "uint256"
        },
        {
          "indexed": false,
          "internalType": "bytes32",
          "name": "incentiveId",
          "type": "bytes32"
        },
        {
          "indexed": false,
          "internalType": "uint256",
          "name": "rewardAmount",
          "type": "uint256"
        },
        {
          "indexed": false,
          "internalType": "uint256",
          "name": "bonusRewardAmount",
          "type": "uint256"
        }
      ],
      "name": "RewardsCollected",
      "type": "event"
    },
    {
      "anonymous": false,
      "inputs": [
        {
          "indexed": false,
          "internalType": "uint128",
          "name": "rewardRate",
          "type": "uint128"
        },
        {
          "indexed": false,
          "internalType": "uint128",
          "name": "bonusRewardRate",
          "type": "uint128"
        },
        {
          "indexed": false,
          "internalType": "bytes32",
          "name": "incentiveId",
          "type": "bytes32"
        }
      ],
      "name": "RewardsRatesChanged",
      "type": "event"
    },
    {
      "inputs": [],
      "name": "FARMINGS_ADMINISTRATOR_ROLE",
      "outputs": [
        {
          "internalType": "bytes32",
          "name": "",
          "type": "bytes32"
        }
      ],
      "stateMutability": "view",
      "type": "function"
    },
    {
      "inputs": [],
      "name": "INCENTIVE_MAKER_ROLE",
      "outputs": [
        {
          "internalType": "bytes32",
          "name": "",
          "type": "bytes32"
        }
      ],
      "stateMutability": "view",
      "type": "function"
    },
    {
      "inputs": [
        {
          "components": [
            {
              "internalType": "contract IERC20Minimal",
              "name": "rewardToken",
              "type": "address"
            },
            {
              "internalType": "contract IERC20Minimal",
              "name": "bonusRewardToken",
              "type": "address"
            },
            {
              "internalType": "contract IAlgebraPool",
              "name": "pool",
              "type": "address"
            },
            {
              "internalType": "uint256",
              "name": "nonce",
              "type": "uint256"
            }
          ],
          "internalType": "struct IncentiveKey",
          "name": "key",
          "type": "tuple"
        },
        {
          "internalType": "uint128",
          "name": "rewardAmount",
          "type": "uint128"
        },
        {
          "internalType": "uint128",
          "name": "bonusRewardAmount",
          "type": "uint128"
        }
      ],
      "name": "addRewards",
      "outputs": [],
      "stateMutability": "nonpayable",
      "type": "function"
    },
    {
      "inputs": [
        {
          "internalType": "contract IERC20Minimal",
          "name": "rewardToken",
          "type": "address"
        },
        {
          "internalType": "address",
          "name": "to",
          "type": "address"
        },
        {
          "internalType": "uint256",
          "name": "amountRequested",
          "type": "uint256"
        }
      ],
      "name": "claimReward",
      "outputs": [
        {
          "internalType": "uint256",
          "name": "reward",
          "type": "uint256"
        }
      ],
      "stateMutability": "nonpayable",
      "type": "function"
    },
    {
      "inputs": [
        {
          "internalType": "contract IERC20Minimal",
          "name": "rewardToken",
          "type": "address"
        },
        {
          "internalType": "address",
          "name": "from",
          "type": "address"
        },
        {
          "internalType": "address",
          "name": "to",
          "type": "address"
        },
        {
          "internalType": "uint256",
          "name": "amountRequested",
          "type": "uint256"
        }
      ],
      "name": "claimRewardFrom",
      "outputs": [
        {
          "internalType": "uint256",
          "name": "reward",
          "type": "uint256"
        }
      ],
      "stateMutability": "nonpayable",
      "type": "function"
    },
    {
      "inputs": [
        {
          "components": [
            {
              "internalType": "contract IERC20Minimal",
              "name": "rewardToken",
              "type": "address"
            },
            {
              "internalType": "contract IERC20Minimal",
              "name": "bonusRewardToken",
              "type": "address"
            },
            {
              "internalType": "contract IAlgebraPool",
              "name": "pool",
              "type": "address"
            },
            {
              "internalType": "uint256",
              "name": "nonce",
              "type": "uint256"
            }
          ],
          "internalType": "struct IncentiveKey",
          "name": "key",
          "type": "tuple"
        },
        {
          "internalType": "uint256",
          "name": "tokenId",
          "type": "uint256"
        },
        {
          "internalType": "address",
          "name": "_owner",
          "type": "address"
        }
      ],
      "name": "collectRewards",
      "outputs": [
        {
          "internalType": "uint256",
          "name": "reward",
          "type": "uint256"
        },
        {
          "internalType": "uint256",
          "name": "bonusReward",
          "type": "uint256"
        }
      ],
      "stateMutability": "nonpayable",
      "type": "function"
    },
    {
      "inputs": [
        {
          "components": [
            {
              "internalType": "contract IERC20Minimal",
              "name": "rewardToken",
              "type": "address"
            },
            {
              "internalType": "contract IERC20Minimal",
              "name": "bonusRewardToken",
              "type": "address"
            },
            {
              "internalType": "contract IAlgebraPool",
              "name": "pool",
              "type": "address"
            },
            {
              "internalType": "uint256",
              "name": "nonce",
              "type": "uint256"
            }
          ],
          "internalType": "struct IncentiveKey",
          "name": "key",
          "type": "tuple"
        },
        {
          "components": [
            {
              "internalType": "uint128",
              "name": "reward",
              "type": "uint128"
            },
            {
              "internalType": "uint128",
              "name": "bonusReward",
              "type": "uint128"
            },
            {
              "internalType": "uint128",
              "name": "rewardRate",
              "type": "uint128"
            },
            {
              "internalType": "uint128",
              "name": "bonusRewardRate",
              "type": "uint128"
            },
            {
              "internalType": "uint24",
              "name": "minimalPositionWidth",
              "type": "uint24"
            }
          ],
          "internalType": "struct IAlgebraEternalFarming.IncentiveParams",
          "name": "params",
          "type": "tuple"
        }
      ],
      "name": "createEternalFarming",
      "outputs": [
        {
          "internalType": "address",
          "name": "virtualPool",
          "type": "address"
        }
      ],
      "stateMutability": "nonpayable",
      "type": "function"
    },
    {
      "inputs": [
        {
          "components": [
            {
              "internalType": "contract IERC20Minimal",
              "name": "rewardToken",
              "type": "address"
            },
            {
              "internalType": "contract IERC20Minimal",
              "name": "bonusRewardToken",
              "type": "address"
            },
            {
              "internalType": "contract IAlgebraPool",
              "name": "pool",
              "type": "address"
            },
            {
              "internalType": "uint256",
              "name": "nonce",
              "type": "uint256"
            }
          ],
          "internalType": "struct IncentiveKey",
          "name": "key",
          "type": "tuple"
        }
      ],
      "name": "deactivateIncentive",
      "outputs": [],
      "stateMutability": "nonpayable",
      "type": "function"
    },
    {
      "inputs": [
        {
          "components": [
            {
              "internalType": "contract IERC20Minimal",
              "name": "rewardToken",
              "type": "address"
            },
            {
              "internalType": "contract IERC20Minimal",
              "name": "bonusRewardToken",
              "type": "address"
            },
            {
              "internalType": "contract IAlgebraPool",
              "name": "pool",
              "type": "address"
            },
            {
              "internalType": "uint256",
              "name": "nonce",
              "type": "uint256"
            }
          ],
          "internalType": "struct IncentiveKey",
          "name": "key",
          "type": "tuple"
        },
        {
          "internalType": "uint128",
          "name": "rewardAmount",
          "type": "uint128"
        },
        {
          "internalType": "uint128",
          "name": "bonusRewardAmount",
          "type": "uint128"
        }
      ],
      "name": "decreaseRewardsAmount",
      "outputs": [],
      "stateMutability": "nonpayable",
      "type": "function"
    },
    {
      "inputs": [
        {
          "components": [
            {
              "internalType": "contract IERC20Minimal",
              "name": "rewardToken",
              "type": "address"
            },
            {
              "internalType": "contract IERC20Minimal",
              "name": "bonusRewardToken",
              "type": "address"
            },
            {
              "internalType": "contract IAlgebraPool",
              "name": "pool",
              "type": "address"
            },
            {
              "internalType": "uint256",
              "name": "nonce",
              "type": "uint256"
            }
          ],
          "internalType": "struct IncentiveKey",
          "name": "key",
          "type": "tuple"
        },
        {
          "internalType": "uint256",
          "name": "tokenId",
          "type": "uint256"
        }
      ],
      "name": "enterFarming",
      "outputs": [],
      "stateMutability": "nonpayable",
      "type": "function"
    },
    {
      "inputs": [
        {
          "components": [
            {
              "internalType": "contract IERC20Minimal",
              "name": "rewardToken",
              "type": "address"
            },
            {
              "internalType": "contract IERC20Minimal",
              "name": "bonusRewardToken",
              "type": "address"
            },
            {
              "internalType": "contract IAlgebraPool",
              "name": "pool",
              "type": "address"
            },
            {
              "internalType": "uint256",
              "name": "nonce",
              "type": "uint256"
            }
          ],
          "internalType": "struct IncentiveKey",
          "name": "key",
          "type": "tuple"
        },
        {
          "internalType": "uint256",
          "name": "tokenId",
          "type": "uint256"
        },
        {
          "internalType": "address",
          "name": "_owner",
          "type": "address"
        }
      ],
      "name": "exitFarming",
      "outputs": [],
      "stateMutability": "nonpayable",
      "type": "function"
    },
    {
      "inputs": [],
      "name": "farmingCenter",
      "outputs": [
        {
          "internalType": "contract IFarmingCenter",
          "name": "",
          "type": "address"
        }
      ],
      "stateMutability": "view",
      "type": "function"
    },
    {
      "inputs": [
        {
          "internalType": "uint256",
          "name": "",
          "type": "uint256"
        },
        {
          "internalType": "bytes32",
          "name": "",
          "type": "bytes32"
        }
      ],
      "name": "farms",
      "outputs": [
        {
          "internalType": "uint128",
          "name": "liquidity",
          "type": "uint128"
        },
        {
          "internalType": "int24",
          "name": "tickLower",
          "type": "int24"
        },
        {
          "internalType": "int24",
          "name": "tickUpper",
          "type": "int24"
        },
        {
          "internalType": "uint256",
          "name": "innerRewardGrowth0",
          "type": "uint256"
        },
        {
          "internalType": "uint256",
          "name": "innerRewardGrowth1",
          "type": "uint256"
        }
      ],
      "stateMutability": "view",
      "type": "function"
    },
    {
      "inputs": [
        {
          "components": [
            {
              "internalType": "contract IERC20Minimal",
              "name": "rewardToken",
              "type": "address"
            },
            {
              "internalType": "contract IERC20Minimal",
              "name": "bonusRewardToken",
              "type": "address"
            },
            {
              "internalType": "contract IAlgebraPool",
              "name": "pool",
              "type": "address"
            },
            {
              "internalType": "uint256",
              "name": "nonce",
              "type": "uint256"
            }
          ],
          "internalType": "struct IncentiveKey",
          "name": "key",
          "type": "tuple"
        },
        {
          "internalType": "uint256",
          "name": "tokenId",
          "type": "uint256"
        }
      ],
      "name": "getRewardInfo",
      "outputs": [
        {
          "internalType": "uint256",
          "name": "reward",
          "type": "uint256"
        },
        {
          "internalType": "uint256",
          "name": "bonusReward",
          "type": "uint256"
        }
      ],
      "stateMutability": "view",
      "type": "function"
    },
    {
      "inputs": [
        {
          "internalType": "bytes32",
          "name": "",
          "type": "bytes32"
        }
      ],
      "name": "incentives",
      "outputs": [
        {
          "internalType": "uint128",
          "name": "totalReward",
          "type": "uint128"
        },
        {
          "internalType": "uint128",
          "name": "bonusReward",
          "type": "uint128"
        },
        {
          "internalType": "address",
          "name": "virtualPoolAddress",
          "type": "address"
        },
        {
          "internalType": "uint24",
          "name": "minimalPositionWidth",
          "type": "uint24"
        },
        {
          "internalType": "bool",
          "name": "deactivated",
          "type": "bool"
        }
      ],
      "stateMutability": "view",
      "type": "function"
    },
    {
      "inputs": [
        {
          "internalType": "bytes32",
          "name": "incentiveId",
          "type": "bytes32"
        },
        {
          "internalType": "contract IAlgebraPool",
          "name": "pool",
          "type": "address"
        }
      ],
      "name": "isIncentiveActiveInPool",
      "outputs": [
        {
          "internalType": "bool",
          "name": "res",
          "type": "bool"
        }
      ],
      "stateMutability": "view",
      "type": "function"
    },
    {
      "inputs": [],
      "name": "nonfungiblePositionManager",
      "outputs": [
        {
          "internalType": "contract INonfungiblePositionManager",
          "name": "",
          "type": "address"
        }
      ],
      "stateMutability": "view",
      "type": "function"
    },
    {
      "inputs": [],
      "name": "numOfIncentives",
      "outputs": [
        {
          "internalType": "uint256",
          "name": "",
          "type": "uint256"
        }
      ],
      "stateMutability": "view",
      "type": "function"
    },
    {
      "inputs": [
        {
          "internalType": "address",
          "name": "",
          "type": "address"
        },
        {
          "internalType": "contract IERC20Minimal",
          "name": "",
          "type": "address"
        }
      ],
      "name": "rewards",
      "outputs": [
        {
          "internalType": "uint256",
          "name": "",
          "type": "uint256"
        }
      ],
      "stateMutability": "view",
      "type": "function"
    },
    {
      "inputs": [
        {
          "internalType": "address",
          "name": "_farmingCenter",
          "type": "address"
        }
      ],
      "name": "setFarmingCenterAddress",
      "outputs": [],
      "stateMutability": "nonpayable",
      "type": "function"
    },
    {
      "inputs": [
        {
          "components": [
            {
              "internalType": "contract IERC20Minimal",
              "name": "rewardToken",
              "type": "address"
            },
            {
              "internalType": "contract IERC20Minimal",
              "name": "bonusRewardToken",
              "type": "address"
            },
            {
              "internalType": "contract IAlgebraPool",
              "name": "pool",
              "type": "address"
            },
            {
              "internalType": "uint256",
              "name": "nonce",
              "type": "uint256"
            }
          ],
          "internalType": "struct IncentiveKey",
          "name": "key",
          "type": "tuple"
        },
        {
          "internalType": "uint128",
          "name": "rewardRate",
          "type": "uint128"
        },
        {
          "internalType": "uint128",
          "name": "bonusRewardRate",
          "type": "uint128"
        }
      ],
      "name": "setRates",
      "outputs": [],
      "stateMutability": "nonpayable",
      "type": "function"
    }
  ],
  "transactionHash": "0xd5aace9484b74dd750d17aa9131627732ee0900530ba640d791288422371814c",
  "args": [
    "0xAD164822576740906a505233c463cb76b7640e41",
    "0xa4282b37814e0152D1a0c6456BF0699f05d46582"
  ],
  "numDeployments": 1,
  "solcInputHash": "ae99b8d7effa6a6eba16e0ce01080364",
  "bytecode": "0x60e06040523480156200001157600080fd5b5060405162005fc538038062005fc58339810160408190526200003491620000da565b6001600160a01b03808216608081905290831660a0526040805163c45a015560e01b8152905163c45a0155916004808201926020929091908290030181865afa15801562000086573d6000803e3d6000fd5b505050506040513d601f19601f82011682018060405250810190620000ac919062000119565b6001600160a01b031660c05250620001409050565b6001600160a01b0381168114620000d757600080fd5b50565b60008060408385031215620000ee57600080fd5b8251620000fb81620000c1565b60208401519092506200010e81620000c1565b809150509250929050565b6000602082840312156200012c57600080fd5b81516200013981620000c1565b9392505050565b60805160a05160c051615e4e6200017760003960006120260152600061288f0152600081816104ba01526128b00152615e4e6000f3fe60806040523480156200001157600080fd5b5060043610620001955760003560e01c806382bd79ea11620000e9578063d04984611162000097578063e70b9e27116200006e578063e70b9e271462000564578063f26ebf7a1462000592578063f6de3cae14620005a957600080fd5b8063d04984611462000504578063dd56e5d8146200052c578063df42efda146200054d57600080fd5b806396da9bd511620000cc57806396da9bd5146200049d578063b44a272214620004b4578063b8883c5014620004dc57600080fd5b806382bd79ea146200047c57806384335241146200048657600080fd5b806336808b191162000147578063566d3c71116200012a578063566d3c7114620003215780635739f0b9146200035e57806360777795146200037557600080fd5b806336808b1914620002e25780633c6d071514620002f957600080fd5b806327e6a99a116200017c57806327e6a99a14620001f15780632912bf1014620002b25780632f2d783d14620002cb57600080fd5b8063046ec166146200019a5780630a53075414620001cb575b600080fd5b620001b1620001ab3660046200359f565b620005c0565b604080519283526020830191909152015b60405180910390f35b620001e2620001dc366004620035e5565b620008ac565b604051908152602001620001c2565b62000270620002023660046200363d565b6002602081815260009384526040808520909152918352912080546001820154918301546fffffffffffffffffffffffffffffffff8216937001000000000000000000000000000000008304810b93730100000000000000000000000000000000000000909304900b919085565b604080516fffffffffffffffffffffffffffffffff9096168652600294850b60208701529290930b918401919091526060830152608082015260a001620001c2565b620002c9620002c336600462003660565b620008d1565b005b620001e2620002dc3660046200367f565b62000b4c565b620002c9620002f33660046200359f565b62000b66565b620001e27f681ab0361ab5f3ae8c1d864335ef2b9a8c12a6a67e1ed0f4083d00a4b8a9a39581565b6200033862000332366004620036e4565b62000dae565b60405173ffffffffffffffffffffffffffffffffffffffff9091168152602001620001c2565b620002c96200036f366004620037bd565b62001181565b6200041e62000386366004620037eb565b600160208190526000918252604090912080549101546fffffffffffffffffffffffffffffffff808316927001000000000000000000000000000000009004169073ffffffffffffffffffffffffffffffffffffffff81169074010000000000000000000000000000000000000000810462ffffff169077010000000000000000000000000000000000000000000000900460ff1685565b604080516fffffffffffffffffffffffffffffffff968716815295909416602086015273ffffffffffffffffffffffffffffffffffffffff9092169284019290925262ffffff90911660608301521515608082015260a001620001c2565b620001e260035481565b620002c96200049736600462003805565b62001327565b620001b1620004ae366004620037bd565b620014c3565b620003387f000000000000000000000000000000000000000000000000000000000000000081565b620001e27fa777c10270ee0b99d2c737c09ff865ed48064b252418bbd31d39c8b88ea1221981565b6200051b620005153660046200384b565b62001643565b6040519015158152602001620001c2565b600054620003389073ffffffffffffffffffffffffffffffffffffffff1681565b620002c96200055e3660046200387e565b620016e2565b620001e2620005753660046200389e565b600460209081526000928352604080842090915290825290205481565b620002c9620005a336600462003805565b620017a3565b620002c9620005ba36600462003805565b620018d3565b600080620005cd62001cd1565b600080620005db8762001cf8565b60008881526002602081815260408084208685528252808420815160a08101835281546fffffffffffffffffffffffffffffffff81168083527001000000000000000000000000000000008204870b958301959095527301000000000000000000000000000000000000009004850b928101929092526001810154606083015290920154608083015293955091935090919003620006a5576040517f7aa92c6600000000000000000000000000000000000000000000000000000000815260040160405180910390fd5b6001820154604080517f6f4a2cd0000000000000000000000000000000000000000000000000000000008152905173ffffffffffffffffffffffffffffffffffffffff909216918291636f4a2cd091600480830192600092919082900301818387803b1580156200071557600080fd5b505af11580156200072a573d6000803e3d6000fd5b505050506000806200073d838562001dd2565b809450819550829a50839b505050505081600260008c815260200190815260200160002060008881526020019081526020016000206001018190555080600260008c81526020019081526020016000206000888152602001908152602001600020600201819055506000600460008b73ffffffffffffffffffffffffffffffffffffffff1673ffffffffffffffffffffffffffffffffffffffff1681526020019081526020016000209050886000146200081e578b5173ffffffffffffffffffffffffffffffffffffffff16600090815260208290526040902080548a0190555b871562000855576020808d015173ffffffffffffffffffffffffffffffffffffffff16600090815290829052604090208054890190555b604080518c8152602081018990529081018a9052606081018990527f15b2e0f32b50efdbbdee9ec7884ed3c61e6209b1b395e5762011a6734b86f7b59060800160405180910390a150505050505050935093915050565b6000620008b862001cd1565b620008c68585858562001e84565b90505b949350505050565b620008fc7fa777c10270ee0b99d2c737c09ff865ed48064b252418bbd31d39c8b88ea1221962001ff1565b6000806200090a8362001cf8565b6001810154919350915077010000000000000000000000000000000000000000000000900460ff16156200096a576040517f260e553a00000000000000000000000000000000000000000000000000000000815260040160405180910390fd5b600181015473ffffffffffffffffffffffffffffffffffffffff1680620009bd576040517fe4c8229200000000000000000000000000000000000000000000000000000000815260040160405180910390fd5b6001820180547fffffffffffffffff00ffffffffffffffffffffffffffffffffffffffffffffff1677010000000000000000000000000000000000000000000000179055604080517fa88a5c160000000000000000000000000000000000000000000000000000000081528151600092839273ffffffffffffffffffffffffffffffffffffffff86169263a88a5c16926004808401939192918290030181865afa15801562000a70573d6000803e3d6000fd5b505050506040513d601f19601f8201168201806040525081019062000a969190620038de565b915091508082176fffffffffffffffffffffffffffffffff1660001462000ac65762000ac68360008088620020b6565b62000ad58660400151620021ad565b73ffffffffffffffffffffffffffffffffffffffff168373ffffffffffffffffffffffffffffffffffffffff160362000b195762000b198660400151600062002221565b60405185907f907b91fb061b1c46367da11a5a0e8b2c0bd5fecd22eb92967e626cffa5ef638690600090a2505050505050565b600062000b5c8433858562001e84565b90505b9392505050565b62000b7062001cd1565b600062000be28460408051825173ffffffffffffffffffffffffffffffffffffffff90811660208084019190915284015181168284015291830151909116606080830191909152820151608082015260009060a001604051602081830303815290604052805190602001209050919050565b60008481526002602081815260408084208585528252808420815160a08101835281546fffffffffffffffffffffffffffffffff81168083527001000000000000000000000000000000008204870b958301959095527301000000000000000000000000000000000000009004850b928101929092526001810154606083015290920154608083015292935091900362000ca8576040517f7aa92c6600000000000000000000000000000000000000000000000000000000815260040160405180910390fd5b60008062000ce58388868862000cd488600001516fffffffffffffffffffffffffffffffff16620022ac565b62000cdf9062003941565b620022c3565b60008881526002602081815260408084208a8552825280842080547fffffffffffffffffffff0000000000000000000000000000000000000000000016815560018101859055909201929092558a518b830151825173ffffffffffffffffffffffffffffffffffffffff91821681528b82169481019490945291830185905260608301849052939550919350911690859088907f7f2557bb15dcf63e3d029ef1dcb4333563fcd78edf263b8fe42ed3adb925ff849060800160405180910390a450505050505050565b600062000ddb7fa777c10270ee0b99d2c737c09ff865ed48064b252418bbd31d39c8b88ea1221962001ff1565b600073ffffffffffffffffffffffffffffffffffffffff1662000e028460400151620021ad565b73ffffffffffffffffffffffffffffffffffffffff161462000e50576040517fd95c741b00000000000000000000000000000000000000000000000000000000815260040160405180910390fd5b30836040015160405162000e64906200346f565b73ffffffffffffffffffffffffffffffffffffffff928316815291166020820152604001604051809103906000f08015801562000ea5573d6000803e3d6000fd5b50905062000eb883604001518262002221565b6003805490600062000eca8362003982565b909155506060840152600062000f458460408051825173ffffffffffffffffffffffffffffffffffffffff90811660208084019190915284015181168284015291830151909116606080830191909152820151608082015260009060a001604051602081830303815290604052805190602001209050919050565b60008181526001602090815260409091208551918601519293509162000f6e918791846200254e565b6fffffffffffffffffffffffffffffffff90811660208701521680855260000362000fc5576040517f36ab0f6a00000000000000000000000000000000000000000000000000000000815260040160405180910390fd5b6080840151621b13d062ffffff90911613156200100e576040517f1db9891100000000000000000000000000000000000000000000000000000000815260040160405180910390fd5b608084015160018201805473ffffffffffffffffffffffffffffffffffffffff8087167fffffffffffffffffffffffff000000000000000000000000000000000000000062ffffff86167401000000000000000000000000000000000000000002167fffffffffffffffffff000000000000000000000000000000000000000000000090931692909217919091179091556040808801516020808a01518a5160608c01518b51938c01519551948716979287169691909116947fcef9468c62cd8a6eca3a887fc30674c037943e423de07ab3a122bdf2f73c77e19462001145948c9490929173ffffffffffffffffffffffffffffffffffffffff95909516855260208501939093526fffffffffffffffffffffffffffffffff918216604085015216606083015262ffffff16608082015260a00190565b60405180910390a4620011638385600001518660200151856200265e565b62001179838560400151866060015185620020b6565b505092915050565b6200118b62001cd1565b60008060008060006200119f87876200274c565b93985091965094509250905080600080620011bc83888862002a34565b915091506040518060a00160405280866fffffffffffffffffffffffffffffffff1681526020018860020b81526020018760020b815260200183815260200182815250600260008b815260200190815260200160002060008a815260200190815260200160002060008201518160000160006101000a8154816fffffffffffffffffffffffffffffffff02191690836fffffffffffffffffffffffffffffffff16021790555060208201518160000160106101000a81548162ffffff021916908360020b62ffffff16021790555060408201518160000160136101000a81548162ffffff021916908360020b62ffffff160217905550606082015181600101556080820151816002015590505087897f19bc21617a8d86ff19202ac9541480a99b9ae5fbd573a23f14f479af784392c4876040516200131391906fffffffffffffffffffffffffffffffff91909116815260200190565b60405180910390a350505050505050505050565b620013527fa777c10270ee0b99d2c737c09ff865ed48064b252418bbd31d39c8b88ea1221962001ff1565b6000620013c48460408051825173ffffffffffffffffffffffffffffffffffffffff90811660208084019190915284015181168284015291830151909116606080830191909152820151608082015260009060a001604051602081830303815290604052805190602001209050919050565b6000818152600160208190526040909120015490915073ffffffffffffffffffffffffffffffffffffffff81169077010000000000000000000000000000000000000000000000900460ff16806200145657508073ffffffffffffffffffffffffffffffffffffffff166200143d8660400151620021ad565b73ffffffffffffffffffffffffffffffffffffffff1614155b80156200147657506fffffffffffffffffffffffffffffffff8484171615155b15620014ae576040517f260e553a00000000000000000000000000000000000000000000000000000000815260040160405180910390fd5b620014bc81858585620020b6565b5050505050565b6000806000620015388560408051825173ffffffffffffffffffffffffffffffffffffffff90811660208084019190915284015181168284015291830151909116606080830191909152820151608082015260009060a001604051602081830303815290604052805190602001209050919050565b60008581526002602081815260408084208585528252808420815160a08101835281546fffffffffffffffffffffffffffffffff81168083527001000000000000000000000000000000008204870b958301959095527301000000000000000000000000000000000000009004850b9281019290925260018101546060830152909201546080830152929350919003620015fe576040517f7aa92c6600000000000000000000000000000000000000000000000000000000815260040160405180910390fd5b6000828152600160208190526040909120015473ffffffffffffffffffffffffffffffffffffffff1662001633818362001dd2565b5091999098509650505050505050565b600082815260016020819052604082209081015477010000000000000000000000000000000000000000000000900460ff161562001686576000915050620016dc565b600181015473ffffffffffffffffffffffffffffffffffffffff1680620016ad85620021ad565b73ffffffffffffffffffffffffffffffffffffffff1614620016d557600092505050620016dc565b6001925050505b92915050565b6200170d7f681ab0361ab5f3ae8c1d864335ef2b9a8c12a6a67e1ed0f4083d00a4b8a9a39562001ff1565b60005473ffffffffffffffffffffffffffffffffffffffff908116908216036200173657600080fd5b600080547fffffffffffffffffffffffff00000000000000000000000000000000000000001673ffffffffffffffffffffffffffffffffffffffff8316908117825560405190917f29f9e1ebeee07596f3165f3e42cb9d4d8d22b0481e968d6c74be3dd037c15d9b91a250565b600080620017b18562001cf8565b6001810154919350915077010000000000000000000000000000000000000000000000900460ff161562001811576040517f260e553a00000000000000000000000000000000000000000000000000000000815260040160405180910390fd5b6001810154604086015173ffffffffffffffffffffffffffffffffffffffff9091169081906200184190620021ad565b73ffffffffffffffffffffffffffffffffffffffff16146200188f576040517f260e553a00000000000000000000000000000000000000000000000000000000815260040160405180910390fd5b6200189d868686856200254e565b90955093506fffffffffffffffffffffffffffffffff8585171615620018cb57620018cb818686866200265e565b505050505050565b620018fe7f681ab0361ab5f3ae8c1d864335ef2b9a8c12a6a67e1ed0f4083d00a4b8a9a39562001ff1565b6000806200190c8562001cf8565b6001810154604080517f6f4a2cd0000000000000000000000000000000000000000000000000000000008152905193955091935073ffffffffffffffffffffffffffffffffffffffff16918291636f4a2cd091600480830192600092919082900301818387803b1580156200198057600080fd5b505af115801562001995573d6000803e3d6000fd5b505050506000808273ffffffffffffffffffffffffffffffffffffffff1663f0de82286040518163ffffffff1660e01b81526004016040805180830381865afa158015620019e7573d6000803e3d6000fd5b505050506040513d601f19601f8201168201806040525081019062001a0d9190620038de565b91509150816fffffffffffffffffffffffffffffffff16876fffffffffffffffffffffffffffffffff16111562001a42578196505b83546fffffffffffffffffffffffffffffffff9081169088161062001a8657835462001a83906001906fffffffffffffffffffffffffffffffff16620039bd565b96505b835462001aa79088906fffffffffffffffffffffffffffffffff16620039bd565b84547fffffffffffffffffffffffffffffffff00000000000000000000000000000000166fffffffffffffffffffffffffffffffff918216178555818116908716111562001af3578095505b835462001b2890879070010000000000000000000000000000000090046fffffffffffffffffffffffffffffffff16620039bd565b84546fffffffffffffffffffffffffffffffff9182167001000000000000000000000000000000000291161784556040517fca16ca7e00000000000000000000000000000000000000000000000000000000815273ffffffffffffffffffffffffffffffffffffffff84169063ca16ca7e9062001bc9908a908a906004016fffffffffffffffffffffffffffffffff92831681529116602082015260400190565b600060405180830381600087803b15801562001be457600080fd5b505af115801562001bf9573d6000803e3d6000fd5b505050506fffffffffffffffffffffffffffffffff87161562001c3757875162001c3790336fffffffffffffffffffffffffffffffff8a1662002ae1565b6fffffffffffffffffffffffffffffffff86161562001c735762001c73886020015133886fffffffffffffffffffffffffffffffff1662002ae1565b604080516fffffffffffffffffffffffffffffffff808a168252881660208201529081018690527f808ecc37f6d601dde1e43c133bee66af0ff9409b53aca0eb0d4f6c65fb8956e89060600160405180910390a15050505050505050565b60005473ffffffffffffffffffffffffffffffffffffffff16331462001cf657600080fd5b565b60008062001d6b8360408051825173ffffffffffffffffffffffffffffffffffffffff90811660208084019190915284015181168284015291830151909116606080830191909152820151608082015260009060a001604051602081830303815290604052805190602001209050919050565b6000818152600160205260408120805492945092506fffffffffffffffffffffffffffffffff909116900362001dcd576040517fe4c8229200000000000000000000000000000000000000000000000000000000815260040160405180910390fd5b915091565b60008060008062001ded868660200151876040015162002a34565b6060870151919350915062001e349062001e089084620039f0565b86516fffffffffffffffffffffffffffffffff1670010000000000000000000000000000000062002c58565b62001e7686608001518362001e4a9190620039f0565b87516fffffffffffffffffffffffffffffffff1670010000000000000000000000000000000062002c58565b909790965091945092509050565b600073ffffffffffffffffffffffffffffffffffffffff831662001ed4576040517fabd1763600000000000000000000000000000000000000000000000000000000815260040160405180910390fd5b5073ffffffffffffffffffffffffffffffffffffffff80841660009081526004602090815260408083209388168352929052205481158062001f1557508082115b1562001f1f578091505b8115620008c95773ffffffffffffffffffffffffffffffffffffffff8085166000908152600460209081526040808320938916835292905220828203905562001f6a85848462002ae1565b8373ffffffffffffffffffffffffffffffffffffffff168573ffffffffffffffffffffffffffffffffffffffff168473ffffffffffffffffffffffffffffffffffffffff167fe6ac6a784fb43c9f6329d2f5c82f88a26a93bad4281f7780725af5f071f0aafa8560405162001fe191815260200190565b60405180910390a4949350505050565b6040517fe8ae2b69000000000000000000000000000000000000000000000000000000008152600481018290523360248201527f000000000000000000000000000000000000000000000000000000000000000073ffffffffffffffffffffffffffffffffffffffff169063e8ae2b6990604401602060405180830381865afa15801562002083573d6000803e3d6000fd5b505050506040513d601f19601f82011682018060405250810190620020a9919062003a17565b620020b357600080fd5b50565b6040517f7f463bb80000000000000000000000000000000000000000000000000000000081526fffffffffffffffffffffffffffffffff80851660048301528316602482015273ffffffffffffffffffffffffffffffffffffffff851690637f463bb890604401600060405180830381600087803b1580156200213857600080fd5b505af11580156200214d573d6000803e3d6000fd5b5050604080516fffffffffffffffffffffffffffffffff8088168252861660208201529081018490527f1864e4cc903d98e44820faebd48409c410a2ad20adb3173984ba41ae2828805e925060600190505b60405180910390a150505050565b60008173ffffffffffffffffffffffffffffffffffffffff1663facb0eb16040518163ffffffff1660e01b8152600401602060405180830381865afa158015620021fb573d6000803e3d6000fd5b505050506040513d601f19601f82011682018060405250810190620016dc919062003a42565b6000546040517fd8a900b100000000000000000000000000000000000000000000000000000000815273ffffffffffffffffffffffffffffffffffffffff848116600483015283811660248301529091169063d8a900b190604401600060405180830381600087803b1580156200229757600080fd5b505af1158015620018cb573d6000803e3d6000fd5b80600f81900b8114620022be57600080fd5b919050565b6000838152600160208190526040808320918201549087015183929173ffffffffffffffffffffffffffffffffffffffff169081906200230390620021ad565b73ffffffffffffffffffffffffffffffffffffffff161462002364576001820180547fffffffffffffffff00ffffffffffffffffffffffffffffffffffffffffffffff16770100000000000000000000000000000000000000000000001790555b600182015460009077010000000000000000000000000000000000000000000000900460ff16620023a4576200239e896040015162002d12565b62002416565b8173ffffffffffffffffffffffffffffffffffffffff16638e76c3326040518163ffffffff1660e01b8152600401602060405180830381865afa158015620023f0573d6000803e3d6000fd5b505050506040513d601f19601f8201168201806040525081019062002416919062003a75565b90508173ffffffffffffffffffffffffffffffffffffffff16636f4a2cd06040518163ffffffff1660e01b8152600401600060405180830381600087803b1580156200246157600080fd5b505af115801562002476573d6000803e3d6000fd5b5050505062002486828b62001dd2565b50919650945050600f86900b15620024b057620024b082428c602001518d604001518a8662002d93565b73ffffffffffffffffffffffffffffffffffffffff8716600090815260046020526040902085156200250957895173ffffffffffffffffffffffffffffffffffffffff1660009081526020829052604090208054870190555b841562002540576020808b015173ffffffffffffffffffffffffffffffffffffffff16600090815290829052604090208054860190555b505050509550959350505050565b6000806fffffffffffffffffffffffffffffffff8516156200257b57855162002578908662002e46565b91505b6fffffffffffffffffffffffffffffffff841615620025a757620025a486602001518562002e46565b90505b8254620025c89083906fffffffffffffffffffffffffffffffff1662003a93565b83547fffffffffffffffffffffffffffffffff00000000000000000000000000000000166fffffffffffffffffffffffffffffffff918216178085556200262691839170010000000000000000000000000000000090041662003a93565b83546fffffffffffffffffffffffffffffffff9182167001000000000000000000000000000000000291161790925594909350915050565b6040517ffddf08e50000000000000000000000000000000000000000000000000000000081526fffffffffffffffffffffffffffffffff80851660048301528316602482015273ffffffffffffffffffffffffffffffffffffffff85169063fddf08e590604401600060405180830381600087803b158015620026e057600080fd5b505af1158015620026f5573d6000803e3d6000fd5b5050604080516fffffffffffffffffffffffffffffffff8088168252861660208201529081018490527f8b0312d8047895ce795779b66b705ccd39b1ece7c162f642c72d76a785d1b68a925060600190506200219f565b600080600080600080620027608862001cf8565b600181015460008a815260026020908152604080832086845290915290205492985073ffffffffffffffffffffffffffffffffffffffff16935091506fffffffffffffffffffffffffffffffff1615620027e6576040517ff352b37500000000000000000000000000000000000000000000000000000000815260040160405180910390fd5b8173ffffffffffffffffffffffffffffffffffffffff166200280c8960400151620021ad565b73ffffffffffffffffffffffffffffffffffffffff161415806200284f5750600181015477010000000000000000000000000000000000000000000000900460ff165b1562002887576040517f260e553a00000000000000000000000000000000000000000000000000000000815260040160405180910390fd5b6000620028d67f00000000000000000000000000000000000000000000000000000000000000007f00000000000000000000000000000000000000000000000000000000000000008a6200302c565b60408d0151929950909750955090915073ffffffffffffffffffffffffffffffffffffffff80831691161462002938576040517fdce2809300000000000000000000000000000000000000000000000000000000815260040160405180910390fd5b836fffffffffffffffffffffffffffffffff1660000362002985576040517f4eed436000000000000000000000000000000000000000000000000000000000815260040160405180910390fd5b600182015474010000000000000000000000000000000000000000900462ffffff16600287810b9087900b03811315620029eb576040517feab0585000000000000000000000000000000000000000000000000000000000815260040160405180910390fd5b6000620029f88362002d12565b905062002a2685428a8a62002a1f8b6fffffffffffffffffffffffffffffffff16620022ac565b8662002d93565b505050509295509295909350565b6040517f0bd6f200000000000000000000000000000000000000000000000000000000008152600283810b600483015282900b6024820152600090819073ffffffffffffffffffffffffffffffffffffffff861690630bd6f200906044016040805180830381865afa15801562002aaf573d6000803e3d6000fd5b505050506040513d601f19601f8201168201806040525081019062002ad5919062003abf565b91509150935093915050565b6040805173ffffffffffffffffffffffffffffffffffffffff8481166024830152604480830185905283518084039091018152606490920183526020820180517bffffffffffffffffffffffffffffffffffffffffffffffffffffffff167fa9059cbb00000000000000000000000000000000000000000000000000000000179052915160009283929087169162002b7a919062003ae4565b6000604051808303816000865af19150503d806000811462002bb9576040519150601f19603f3d011682016040523d82523d6000602084013e62002bbe565b606091505b509150915081801562002bec57508051158062002bec57508080602001905181019062002bec919062003a17565b620014bc576040517f08c379a000000000000000000000000000000000000000000000000000000000815260206004820152600260248201527f535400000000000000000000000000000000000000000000000000000000000060448201526064015b60405180910390fd5b6000838302817fffffffffffffffffffffffffffffffffffffffffffffffffffffffffffffffff8587098281108382030391505080841162002c9957600080fd5b8060000362002cae5750829004905062000b5f565b8385870960008581038616958690049560026003880281188089028203028089028203028089028203028089028203028089028203028089029091030291819003819004600101858411909403939093029190930391909104170290509392505050565b60008173ffffffffffffffffffffffffffffffffffffffff1663e76c01e46040518163ffffffff1660e01b815260040160e060405180830381865afa15801562002d60573d6000803e3d6000fd5b505050506040513d601f19601f8201168201806040525081019062002d86919062003b28565b5093979650505050505050565b6040517f0f1019bc00000000000000000000000000000000000000000000000000000000815263ffffffff86166004820152600285810b602483015284810b6044830152600f84900b606483015282900b608482015273ffffffffffffffffffffffffffffffffffffffff871690630f1019bc9060a401600060405180830381600087803b15801562002e2557600080fd5b505af115801562002e3a573d6000803e3d6000fd5b50505050505050505050565b6040517f70a08231000000000000000000000000000000000000000000000000000000008152306004820152600090819073ffffffffffffffffffffffffffffffffffffffff8516906370a0823190602401602060405180830381865afa15801562002eb6573d6000803e3d6000fd5b505050506040513d601f19601f8201168201806040525081019062002edc919062003bc6565b905062002efe843330866fffffffffffffffffffffffffffffffff1662003112565b6040517f70a0823100000000000000000000000000000000000000000000000000000000815230600482015260009073ffffffffffffffffffffffffffffffffffffffff8616906370a0823190602401602060405180830381865afa15801562002f6c573d6000803e3d6000fd5b505050506040513d601f19601f8201168201806040525081019062002f92919062003bc6565b905081811162002fa157600080fd5b6fffffffffffffffffffffffffffffffff82820381169081111562003023576040517f08c379a000000000000000000000000000000000000000000000000000000000815260206004820152601460248201527f696e76616c696420746f6b656e20616d6f756e74000000000000000000000000604482015260640162002c4f565b95945050505050565b6000806000806000808773ffffffffffffffffffffffffffffffffffffffff166399fbab88886040518263ffffffff1660e01b81526004016200307191815260200190565b61016060405180830381865afa15801562003090573d6000803e3d6000fd5b505050506040513d601f19601f82011682018060405250810190620030b6919062003be0565b50506040805180820190915273ffffffffffffffffffffffffffffffffffffffff808916825287166020820152949d50929b509099509397509195506200310594508d935091506200328d9050565b9550505093509350935093565b6040805173ffffffffffffffffffffffffffffffffffffffff85811660248301528481166044830152606480830185905283518084039091018152608490920183526020820180517bffffffffffffffffffffffffffffffffffffffffffffffffffffffff167f23b872dd000000000000000000000000000000000000000000000000000000001790529151600092839290881691620031b3919062003ae4565b6000604051808303816000865af19150503d8060008114620031f2576040519150601f19603f3d011682016040523d82523d6000602084013e620031f7565b606091505b5091509150818015620032255750805115806200322557508080602001905181019062003225919062003a17565b620018cb576040517f08c379a000000000000000000000000000000000000000000000000000000000815260206004820152600360248201527f5354460000000000000000000000000000000000000000000000000000000000604482015260640162002c4f565b6000816020015173ffffffffffffffffffffffffffffffffffffffff16826000015173ffffffffffffffffffffffffffffffffffffffff16106200332e576040517f08c379a000000000000000000000000000000000000000000000000000000000815260206004820152601760248201527f496e76616c6964206f72646572206f6620746f6b656e73000000000000000000604482015260640162002c4f565b82826000015183602001516040516020016200336d92919073ffffffffffffffffffffffffffffffffffffffff92831681529116602082015260400190565b604080517fffffffffffffffffffffffffffffffffffffffffffffffffffffffffffffffe081840301815290829052805160209182012062003432939290917ffb470dd52f1744c73f958b0d8756c3864c1ff3958598537bdd9f8733de44494791017fff00000000000000000000000000000000000000000000000000000000000000815260609390931b7fffffffffffffffffffffffffffffffffffffffff0000000000000000000000001660018401526015830191909152603582015260550190565b604080517fffffffffffffffffffffffffffffffffffffffffffffffffffffffffffffffe081840301815291905280516020909101209392505050565b6121798062003cc983390190565b60405160a0810167ffffffffffffffff81118282101715620034c8577f4e487b7100000000000000000000000000000000000000000000000000000000600052604160045260246000fd5b60405290565b73ffffffffffffffffffffffffffffffffffffffff81168114620020b357600080fd5b6000608082840312156200350457600080fd5b6040516080810181811067ffffffffffffffff821117156200354f577f4e487b7100000000000000000000000000000000000000000000000000000000600052604160045260246000fd5b60405290508082356200356281620034ce565b815260208301356200357481620034ce565b602082015260408301356200358981620034ce565b6040820152606092830135920191909152919050565b600080600060c08486031215620035b557600080fd5b620035c18585620034f1565b92506080840135915060a0840135620035da81620034ce565b809150509250925092565b60008060008060808587031215620035fc57600080fd5b84356200360981620034ce565b935060208501356200361b81620034ce565b925060408501356200362d81620034ce565b9396929550929360600135925050565b600080604083850312156200365157600080fd5b50508035926020909101359150565b6000608082840312156200367357600080fd5b62000b5f8383620034f1565b6000806000606084860312156200369557600080fd5b8335620036a281620034ce565b92506020840135620036b481620034ce565b929592945050506040919091013590565b6fffffffffffffffffffffffffffffffff81168114620020b357600080fd5b600080828403610120811215620036fa57600080fd5b620037068585620034f1565b925060a07fffffffffffffffffffffffffffffffffffffffffffffffffffffffffffffff80820112156200373957600080fd5b50620037446200347d565b60808401356200375481620036c5565b815260a08401356200376681620036c5565b602082015260c08401356200377b81620036c5565b604082015260e08401356200379081620036c5565b606082015261010084013562ffffff81168114620037ad57600080fd5b6080820152919491935090915050565b60008060a08385031215620037d157600080fd5b620037dd8484620034f1565b946080939093013593505050565b600060208284031215620037fe57600080fd5b5035919050565b600080600060c084860312156200381b57600080fd5b620038278585620034f1565b925060808401356200383981620036c5565b915060a0840135620035da81620036c5565b600080604083850312156200385f57600080fd5b8235915060208301356200387381620034ce565b809150509250929050565b6000602082840312156200389157600080fd5b813562000b5f81620034ce565b60008060408385031215620038b257600080fd5b8235620038bf81620034ce565b915060208301356200387381620034ce565b8051620022be81620036c5565b60008060408385031215620038f257600080fd5b8251620038ff81620036c5565b60208401519092506200387381620036c5565b7f4e487b7100000000000000000000000000000000000000000000000000000000600052601160045260246000fd5b600081600f0b7fffffffffffffffffffffffffffffffff80000000000000000000000000000000810362003979576200397962003912565b60000392915050565b60007fffffffffffffffffffffffffffffffffffffffffffffffffffffffffffffffff8203620039b657620039b662003912565b5060010190565b6fffffffffffffffffffffffffffffffff828116828216039080821115620039e957620039e962003912565b5092915050565b81810381811115620016dc57620016dc62003912565b80518015158114620022be57600080fd5b60006020828403121562003a2a57600080fd5b62000b5f8262003a06565b8051620022be81620034ce565b60006020828403121562003a5557600080fd5b815162000b5f81620034ce565b8051600281900b8114620022be57600080fd5b60006020828403121562003a8857600080fd5b62000b5f8262003a62565b6fffffffffffffffffffffffffffffffff818116838216019080821115620039e957620039e962003912565b6000806040838503121562003ad357600080fd5b505080516020909101519092909150565b6000825160005b8181101562003b07576020818601810151858301520162003aeb565b506000920191825250919050565b805161ffff81168114620022be57600080fd5b600080600080600080600060e0888a03121562003b4457600080fd5b875162003b5181620034ce565b965062003b616020890162003a62565b955062003b716040890162003a62565b945062003b816060890162003b15565b935062003b916080890162003b15565b925060a088015160ff8116811462003ba857600080fd5b915062003bb860c0890162003a06565b905092959891949750929550565b60006020828403121562003bd957600080fd5b5051919050565b60008060008060008060008060008060006101608c8e03121562003c0357600080fd5b8b516affffffffffffffffffffff8116811462003c1f57600080fd5b60208d0151909b5062003c3281620034ce565b60408d0151909a5062003c4581620034ce565b985062003c5560608d0162003a35565b975062003c6560808d0162003a62565b965062003c7560a08d0162003a62565b955062003c8560c08d01620038d1565b945060e08c015193506101008c0151925062003ca56101208d01620038d1565b915062003cb66101408d01620038d1565b90509295989b509295989b909396995056fe60c0604052600160075560016008553480156200001b57600080fd5b5060405162002179380380620021798339810160408190526200003e916200019e565b6200005560006200009b60201b62000c651760201c565b600480546001600160a01b039384166080529190921660a05263ffffffff4216600160981b0266ffffffffffffff60981b1990911617621e4ec360bb1b17905562000207565b620d89e719620000ab81620001d6565b620d89e7196000818152602085905260409020600301805465ffffffffffff1916630100000062ffffff9485160262ffffff19161793909216929092179055620000f581620001d6565b82600062000107620d89e719620001d6565b60020b60020b81526020019081526020016000206003016000846000620d89e7196200013390620001d6565b60020b81526020810191909152604001600020600301805462ffffff94851663010000000265ffffff0000001990911617905581549383166101009190910a90810292021990921617905550565b80516001600160a01b03811681146200019957600080fd5b919050565b60008060408385031215620001b257600080fd5b620001bd8362000181565b9150620001cd6020840162000181565b90509250929050565b60008160020b627fffff198103620001fe57634e487b7160e01b600052601160045260246000fd5b60000392915050565b60805160a051611f3e6200023b60003960008181610167015261086f0152600081816102450152610f6f0152611f3e6000f3fe608060405234801561001057600080fd5b506004361061011b5760003560e01c80638a2ade58116100b2578063ca16ca7e11610081578063f0de822811610066578063f0de82281461034a578063f30dba931461037c578063fddf08e51461043257600080fd5b8063ca16ca7e146102fb578063d576dfc01461030e57600080fd5b80638a2ade58146102405780638e76c33214610267578063a69252af1461029b578063a88a5c16146102a457600080fd5b806346caf2ae116100ee57806346caf2ae146101d157806363f0580b1461020e5780636f4a2cd0146102255780637f463bb81461022d57600080fd5b80630bd6f200146101205780630f1019bc1461014d57806316f0115b1461016257806334d33590146101ae575b600080fd5b61013361012e366004611c9e565b610445565b604080519283526020830191909152015b60405180910390f35b61016061015b366004611cd1565b61065e565b005b6101897f000000000000000000000000000000000000000000000000000000000000000081565b60405173ffffffffffffffffffffffffffffffffffffffff9091168152602001610144565b6101c16101bc366004611d49565b610855565b6040519015158152602001610144565b6004546101ed906fffffffffffffffffffffffffffffffff1681565b6040516fffffffffffffffffffffffffffffffff9091168152602001610144565b61021760085481565b604051908152602001610144565b610160610bc6565b61016061023b366004611da5565b610bd8565b6101897f000000000000000000000000000000000000000000000000000000000000000081565b60045461028890700100000000000000000000000000000000900460020b81565b60405160029190910b8152602001610144565b61021760075481565b6005546fffffffffffffffffffffffffffffffff808216917001000000000000000000000000000000009004165b604080516fffffffffffffffffffffffffffffffff938416815292909116602083015201610144565b610160610309366004611da5565b610c39565b60045461033590730100000000000000000000000000000000000000900463ffffffff1681565b60405163ffffffff9091168152602001610144565b6006546fffffffffffffffffffffffffffffffff808216917001000000000000000000000000000000009004166102d2565b6103e961038a366004611dcf565b6000602081905290815260409020805460018201546002808401546003909401546fffffffffffffffffffffffffffffffff841694700100000000000000000000000000000000909404600f0b939181810b9163010000009004900b86565b604080516fffffffffffffffffffffffffffffffff9097168752600f9590950b6020870152938501929092526060840152600290810b60808401520b60a082015260c001610144565b610160610440366004611da5565b610c51565b600282810b6000908152602081905260408120600301549091829163010000008104820b910b036104a2576040517f0d6e094900000000000000000000000000000000000000000000000000000000815260040160405180910390fd5b600283810b60009081526020819052604090206003015463010000008104820b910b036104fb576040517f0d6e094900000000000000000000000000000000000000000000000000000000815260040160405180910390fd5b60045460075460085463ffffffff7301000000000000000000000000000000000000009093048316420392831615610624576004546fffffffffffffffffffffffffffffffff1680156106225760055460065463ffffffff86166fffffffffffffffffffffffffffffffff8084168202811693700100000000000000000000000000000000908190048216909202811692818116929004168184111561059f578193505b808311156105ab578092505b83156105e4576105df84700100000000000000000000000000000000876fffffffffffffffffffffffffffffffff16610e01565b870196505b821561061d5761061883700100000000000000000000000000000000876fffffffffffffffffffffffffffffffff16610e01565b860195505b505050505b505b6004546106509060009089908990700100000000000000000000000000000000900460020b8686610eb9565b945094505050509250929050565b610666610f57565b600480547fffffffffffffffffffffffffff000000ffffffffffffffffffffffffffffffff1670010000000000000000000000000000000062ffffff8416021790819055730100000000000000000000000000000000000000900463ffffffff90811690861611156106da576106da610fc6565b81600f0b60001461084e576000806106f586848660006111bc565b156106ff57600191505b61070c85848660016111bc565b15610715575060015b8560020b8360020b1215801561073057508460020b8360020b125b1561079657600454610754906fffffffffffffffffffffffffffffffff16856111e2565b600480547fffffffffffffffffffffffffffffffff00000000000000000000000000000000166fffffffffffffffffffffffffffffffff929092169190911790555b818061079f5750805b1561084b5760045477010000000000000000000000000000000000000000000000900460020b82156107e0576107dd878583600089600f0b126112a9565b90505b81156107fb576107f8868583600089600f0b126112a9565b90505b6004805462ffffff90921677010000000000000000000000000000000000000000000000027fffffffffffff000000ffffffffffffffffffffffffffffffffffffffffffffff9092169190911790555b50505b5050505050565b60003373ffffffffffffffffffffffffffffffffffffffff7f000000000000000000000000000000000000000000000000000000000000000016146108c6576040517f74e2852e00000000000000000000000000000000000000000000000000000000815260040160405180910390fd5b6108ce610fc6565b600454600754600854770100000000000000000000000000000000000000000000008304600290810b936fffffffffffffffffffffffffffffffff81169370010000000000000000000000000000000090910490910b918615610a4d575b600283900b7ffffffffffffffffffffffffffffffffffffffffffffffffffffffffffff2761814610a48578460020b8860020b1215610b1557600285810b600090815260208190526040902090810180548303905560018101805484039055546109b19085907001000000000000000000000000000000009004600f0b6000036111e2565b600286810b600090815260208190526040902060030154810b969195507fffffffffffffffffffffffffffffffffffffffffffffffffffffffffffffffff90910193507ffffffffffffffffffffffffffffffffffffffffffffffffffffffffffff276189084900b1215610a43577ffffffffffffffffffffffffffffffffffffffffffffffffffffffffffff2761892505b61092c565b610b15565b6001610a787ffffffffffffffffffffffffffffffffffffffffffffffffffffffffffff27618611e19565b610a829190611e57565b60020b8360020b14610b1557600285810b60009081526020819052604090206003015463010000009004810b9089900b811315610abf5750610b15565b600281810b60009081526020819052604090209081018054840390556001810180548503905554610b089086907001000000000000000000000000000000009004600f0b6111e2565b9095509350849250610a4d565b50506004805462ffffff94851677010000000000000000000000000000000000000000000000027fffffffffffff000000ffffffffffffff0000000000000000000000000000000095891670010000000000000000000000000000000002959095167fffffffffffff000000ffffffff00000000000000000000000000000000000000909116176fffffffffffffffffffffffffffffffff9093169290921792909217905550600190505b92915050565b610bce610f57565b610bd6610fc6565b565b610be0610f57565b610be8610fc6565b6fffffffffffffffffffffffffffffffff9182169116700100000000000000000000000000000000027fffffffffffffffffffffffffffffffff000000000000000000000000000000001617600555565b610c41610f57565b610c4d6000838361138c565b5050565b610c59610f57565b610c4d6001838361138c565b7ffffffffffffffffffffffffffffffffffffffffffffffffffffffffffff27618610c8f81611e19565b7ffffffffffffffffffffffffffffffffffffffffffffffffffffffffffff27618600081815260208590526040902060030180547fffffffffffffffffffffffffffffffffffffffffffffffffffff00000000000016630100000062ffffff948516027fffffffffffffffffffffffffffffffffffffffffffffffffffffffffff000000161793909216929092179055610d2881611e19565b826000610d547ffffffffffffffffffffffffffffffffffffffffffffffffffffffffffff27618611e19565b60020b60020b815260200190815260200160002060030160008460007ffffffffffffffffffffffffffffffffffffffffffffffffffffffffffff27618610d9a90611e19565b60020b81526020810191909152604001600020600301805462ffffff9485166301000000027fffffffffffffffffffffffffffffffffffffffffffffffffffff000000ffffff90911617905581549383166101009190910a90810292021990921617905550565b6000838302817fffffffffffffffffffffffffffffffffffffffffffffffffffffffffffffffff85870982811083820303915050808411610e4157600080fd5b80600003610e5457508290049050610eb2565b8385870960008581038616958690049560026003880281188089028203028089028203028089028203028089028203028089028203028089029091030291819003819004600101858411909403939093029190930391909104170290505b9392505050565b600285810b60009081526020889052604080822087840b8084529183209293849391929088900b1215610f2f578860020b8760020b12610f0a57816001015486039350816002015485039250610f19565b81600101549350816002015492505b6001810154600282015494039390920391610f4a565b81600101548160010154039350816002015481600201540392505b5050965096945050505050565b3373ffffffffffffffffffffffffffffffffffffffff7f00000000000000000000000000000000000000000000000000000000000000001614610bd6576040517fae74b17800000000000000000000000000000000000000000000000000000000815260040160405180910390fd5b60045463ffffffff73010000000000000000000000000000000000000090910481164203166000819003610ff75750565b6004546fffffffffffffffffffffffffffffffff168015611172576005546006546fffffffffffffffffffffffffffffffff80831685029270010000000000000000000000000000000090819004821686029280831692919004168184111561107057816fffffffffffffffffffffffffffffffff1693505b806fffffffffffffffffffffffffffffffff168311156110a057806fffffffffffffffffffffffffffffffff1692505b8383171561116d576fffffffffffffffffffffffffffffffff918216849003911682900383156110f0576110e68470010000000000000000000000000000000087610e01565b6007805490910190555b821561111c576111128370010000000000000000000000000000000087610e01565b6008805490910190555b6fffffffffffffffffffffffffffffffff808316908216700100000000000000000000000000000000027fffffffffffffffffffffffffffffffff0000000000000000000000000000000016176006555b505050505b5050600480547fffffffffffffffffff00000000ffffffffffffffffffffffffffffffffffffff167301000000000000000000000000000000000000004263ffffffff1602179055565b6007546008546000916111d791839188918891889188611472565b90505b949350505050565b60008082600f0b121561124657508082016fffffffffffffffffffffffffffffffff80841690821610611241576040517f1301f74800000000000000000000000000000000000000000000000000000000815260040160405180910390fd5b610bc0565b826fffffffffffffffffffffffffffffffff168284019150816fffffffffffffffffffffffffffffffff161015610bc0576040517f997402f200000000000000000000000000000000000000000000000000000000815260040160405180910390fd5b6001546000908183156112d9576112c16000886115d2565b90508660020b8560020b036112d4578094505b611361565b60008760020b8660020b1280156112f657508660020b8860020b13155b15611326575050600284810b6000908152602081905260409020600301548795916301000000909104900b611352565b61133460036002858b6117e2565b600281810b600090815260208190526040902060030154900b925090505b61135f60008984846118b3565b505b6000611371600360028a86611a39565b90508281146113805760018190555b50939695505050505050565b611394610fc6565b6fffffffffffffffffffffffffffffffff828217161561146d576006546fffffffffffffffffffffffffffffffff80821691700100000000000000000000000000000000900416846113ef576113ea8483611e98565b6113f9565b6113f98483611ec8565b91508461140f5761140a8382611e98565b611419565b6114198382611ec8565b6fffffffffffffffffffffffffffffffff9283169216700100000000000000000000000000000000027fffffffffffffffffffffffffffffffff000000000000000000000000000000001691909117600655505b505050565b600286900b600090815260208890526040812080547001000000000000000000000000000000008104600f0b906fffffffffffffffffffffffffffffffff16836114bc828a6111e2565b90506d02000004000008000010000020006fffffffffffffffffffffffffffffffff82161115611518576040517f25b8364a00000000000000000000000000000000000000000000000000000000815260040160405180910390fd5b856115345788600f0b83600f0b61152f9190611ef1565b611546565b88600f0b83600f0b6115469190611f11565b6fffffffffffffffffffffffffffffffff828116918116700100000000000000000000000000000000027fffffffffffffffffffffffffffffffff0000000000000000000000000000000016821786559015955082166000036115c357841594508960020b8b60020b136115c35760018401889055600284018790555b50505050979650505050505050565b600281810b6000818152602085905260408120600381018054838355600183018490559185018390557fffffffffffffffffffffffffffffffffffffffffffffffffffff00000000000082169055909281810b926301000000909204900b907ffffffffffffffffffffffffffffffffffffffffffffffffffffffffffff27618148061168b57506116827ffffffffffffffffffffffffffffffffffffffffffffffffffffffffffff27618611e19565b60020b8460020b145b1561170a57600284900b600090815260208690526040902060030180547fffffffffffffffffffffffffffffffffffffffffffffffffffff00000000000016630100000062ffffff938416027fffffffffffffffffffffffffffffffffffffffffffffffffffffffffff00000016179183169190911790559050610bc0565b8060020b8260020b03611749576040517f0d6e094900000000000000000000000000000000000000000000000000000000815260040160405180910390fd5b600282810b600090815260208790526040808220600390810180547fffffffffffffffffffffffffffffffffffffffffffffffffffff000000ffffff16630100000062ffffff88811691909102919091179091559490930b825290200180547fffffffffffffffffffffffffffffffffffffffffffffffffffffffffff000000169183169190911790559050610bc0565b505092915050565b600190810190600090600883811d610d8a01901c90829061ffff83161b85161561183f576118108785611ad1565b909450909250905080156118255750506111da565b61183686610d8b840160010b611ad1565b90945090925090505b8061187c57611857858360010193508360010b611b02565b90935090508061186f5750620d89e891506111da9050565b6118798684611c5b565b92505b6118a8877ffffffffffffffffffffffffffffffffffffffffffffffffffffffffffffff2768501611c5b565b979650505050505050565b600283900b7ffffffffffffffffffffffffffffffffffffffffffffffffffffffffffff27618148061191257506119097ffffffffffffffffffffffffffffffffffffffffffffffffffffffffffff27618611e19565b60020b8360020b145b611a33578260020b8260020b12158061193157508260020b8160020b13155b15611968576040517fe45ac17d00000000000000000000000000000000000000000000000000000000815260040160405180910390fd5b600283810b600090815260208690526040808220600390810180547fffffffffffffffffffffffffffffffffffffffffffffffffffff00000000000016630100000062ffffff88811682027fffffffffffffffffffffffffffffffffffffffffffffffffffffffffff000000908116939093178a82161790935588870b8652848620840180547fffffffffffffffffffffffffffffffffffffffffffffffffffff000000ffffff16938b16918202939093179092559486900b84529190922090910180549092161790555b50505050565b80600080611a768786600881901d600181810b60009081526020949094526040909320805460ff9093169390931b80831890935591811490151891565b915091508115611ac757610d8a01600181810b60081d80820b6000908152602089905260409020805460ff9094169290921b808418909255821591909214818118935014611ac7576001811b831892505b5050949350505050565b600881901d600181900b6000908152602084905260408120548190611af69085611b02565b93969095509293505050565b60008060ff831684811c808303611b20578160ff0385019350611c52565b7f555555555555555555555555555555555555555555555555555555555555555560008290038216908116156fffffffffffffffffffffffffffffffff82161560071b1777ffffffffffffffff0000000000000000ffffffffffffffff82161560061b177bffffffff00000000ffffffff00000000ffffffff00000000ffffffff82161560051b177dffff0000ffff0000ffff0000ffff0000ffff0000ffff0000ffff0000ffff82161560041b177eff00ff00ff00ff00ff00ff00ff00ff00ff00ff00ff00ff00ff00ff00ff00ff82161560031b177f0f0f0f0f0f0f0f0f0f0f0f0f0f0f0f0f0f0f0f0f0f0f0f0f0f0f0f0f0f0f0f0f82161560021b177f33333333333333333333333333333333333333333333333333333333333333339091161560011b1760ff1685019350600192505b50509250929050565b600181900b600090815260208390526040902054600882901b90611c7f9082611b02565b509392505050565b8035600281900b8114611c9957600080fd5b919050565b60008060408385031215611cb157600080fd5b611cba83611c87565b9150611cc860208401611c87565b90509250929050565b600080600080600060a08688031215611ce957600080fd5b853563ffffffff81168114611cfd57600080fd5b9450611d0b60208701611c87565b9350611d1960408701611c87565b9250606086013580600f0b8114611d2f57600080fd5b9150611d3d60808701611c87565b90509295509295909350565b60008060408385031215611d5c57600080fd5b611d6583611c87565b915060208301358015158114611d7a57600080fd5b809150509250929050565b80356fffffffffffffffffffffffffffffffff81168114611c9957600080fd5b60008060408385031215611db857600080fd5b611dc183611d85565b9150611cc860208401611d85565b600060208284031215611de157600080fd5b610eb282611c87565b7f4e487b7100000000000000000000000000000000000000000000000000000000600052601160045260246000fd5b60008160020b7fffffffffffffffffffffffffffffffffffffffffffffffffffffffffff8000008103611e4e57611e4e611dea565b60000392915050565b600282810b9082900b037fffffffffffffffffffffffffffffffffffffffffffffffffffffffffff8000008112627fffff82131715610bc057610bc0611dea565b6fffffffffffffffffffffffffffffffff828116828216039080821115611ec157611ec1611dea565b5092915050565b6fffffffffffffffffffffffffffffffff818116838216019080821115611ec157611ec1611dea565b80820182811260008312801582168215821617156117da576117da611dea565b8181036000831280158383131683831282161715611ec157611ec1611dea56fea164736f6c6343000811000aa164736f6c6343000811000a",
  "devdoc": {
    "kind": "dev",
    "methods": {
      "claimReward(address,address,uint256)": {
        "params": {
          "amountRequested": "The amount of reward tokens to claim. Claims entire reward amount if set to 0.",
          "rewardToken": "The token being distributed as a reward",
          "to": "The address where claimed rewards will be sent to"
        },
        "returns": {
          "reward": "The amount of reward tokens claimed"
        }
      },
      "claimRewardFrom(address,address,address,uint256)": {
        "params": {
          "amountRequested": "The amount of reward tokens to claim. Claims entire reward amount if set to 0.",
          "from": "The address of position owner",
          "rewardToken": "The token being distributed as a reward",
          "to": "The address where claimed rewards will be sent to"
        },
        "returns": {
          "reward": "The amount of reward tokens claimed"
        }
      },
      "constructor": {
        "params": {
          "_deployer": "pool deployer contract address",
          "_nonfungiblePositionManager": "the NFT position manager contract address"
        }
      },
      "createEternalFarming((address,address,address,uint256),(uint128,uint128,uint128,uint128,uint24))": {
        "params": {
          "key": "Details of the incentive to create",
          "params": "Params of incentive"
        },
        "returns": {
          "virtualPool": "The virtual pool"
        }
      },
      "deactivateIncentive((address,address,address,uint256))": {
        "params": {
          "key": "The key of the incentive"
        }
      },
      "enterFarming((address,address,address,uint256),uint256)": {
        "params": {
          "key": "The key of the incentive for which to enterFarming the NFT",
          "tokenId": "The ID of the token to exitFarming"
        }
      },
      "exitFarming((address,address,address,uint256),uint256,address)": {
        "params": {
          "_owner": "Owner of the token",
          "key": "The key of the incentive for which to exitFarming the NFT",
          "tokenId": "The ID of the token to exitFarming"
        }
      },
      "getRewardInfo((address,address,address,uint256),uint256)": {
        "params": {
          "key": "The key of the incentive",
          "tokenId": "The ID of the token"
        },
        "returns": {
          "bonusReward": "The bonus reward accrued to the NFT for the given incentive thus far",
          "reward": "The reward accrued to the NFT for the given incentive thus far"
        }
      },
      "isIncentiveActiveInPool(bytes32,address)": {
        "details": "Does not check that the pool is indeed an Algebra pool",
        "params": {
          "incentiveId": "The ID of the incentive computed from its parameters",
          "pool": "Corresponding Algebra pool"
        },
        "returns": {
          "res": "True if incentive is active in Algebra pool"
        }
      },
      "setFarmingCenterAddress(address)": {
        "params": {
          "_farmingCenter": "The new farming center contract address"
        }
      }
    },
    "stateVariables": {
      "farms": {
        "details": "farms[tokenId][incentiveHash] => Farm",
        "params": {
          "incentiveId": "The ID of the incentive for which the token is farmd",
          "tokenId": "The ID of the farmd token"
        },
        "return": "liquidity The amount of liquidity in the NFT as of the last time the rewards were computed, tickLower The lower tick of position, tickUpper The upper tick of position, innerRewardGrowth0 The last saved reward0 growth inside position, innerRewardGrowth1 The last saved reward1 growth inside position",
        "returns": {
          "liquidity": "The amount of liquidity in the NFT as of the last time the rewards were computed, tickLower The lower tick of position, tickUpper The upper tick of position, innerRewardGrowth0 The last saved reward0 growth inside position, innerRewardGrowth1 The last saved reward1 growth inside position"
        }
      },
      "incentives": {
        "details": "bytes32 refers to the return value of IncentiveId.compute",
        "params": {
          "incentiveId": "The ID of the incentive computed from its parameters"
        }
      },
      "rewards": {
        "details": "rewards[owner][rewardToken] => uint256",
        "params": {
          "owner": "The owner for which the rewards owed are checked",
          "rewardToken": "The token for which to check rewards"
        },
        "return": "The amount of the reward token claimable by the owner",
        "returns": {
          "_0": "The amount of the reward token claimable by the owner"
        }
      }
    },
    "title": "Algebra eternal (v2-like) farming",
    "version": 1
  },
  "userdoc": {
    "events": {
      "EternalFarmingCreated(address,address,address,address,uint256,uint256,uint256,uint24)": {
        "notice": "Event emitted when a liquidity mining incentive has been created"
      },
      "FarmEnded(uint256,bytes32,address,address,address,uint256,uint256)": {
        "notice": "Event emitted when a Algebra LP token has been exitFarmingd"
      },
      "FarmEntered(uint256,bytes32,uint128)": {
        "notice": "Event emitted when a Algebra LP token has been farmd"
      },
      "FarmingCenter(address)": {
        "notice": "Emitted when the farming center is changed"
      },
      "IncentiveDeactivated(bytes32)": {
        "notice": "Event emitted when a liquidity mining incentive has been stopped from the outside"
      },
      "IncentiveMaker(address)": {
        "notice": "Emitted when the incentive maker is changed"
      },
      "RewardClaimed(address,uint256,address,address)": {
        "notice": "Event emitted when a reward token has been claimed"
      },
      "RewardsAdded(uint256,uint256,bytes32)": {
        "notice": "Event emitted when rewards were added"
      },
      "RewardsCollected(uint256,bytes32,uint256,uint256)": {
        "notice": "Event emitted when rewards were collected"
      },
      "RewardsRatesChanged(uint128,uint128,bytes32)": {
        "notice": "Event emitted when reward rates were changed"
      }
    },
    "kind": "user",
    "methods": {
      "claimReward(address,address,uint256)": {
        "notice": "Transfers `amountRequested` of accrued `rewardToken` rewards from the contract to the recipient `to`"
      },
      "claimRewardFrom(address,address,address,uint256)": {
        "notice": "Transfers `amountRequested` of accrued `rewardToken` rewards from the contract to the recipient `to`only for FarmingCenter"
      },
      "collectRewards((address,address,address,uint256),uint256,address)": {
        "notice": "reward amounts should be updated before calling this method"
      },
      "createEternalFarming((address,address,address,uint256),(uint128,uint128,uint128,uint128,uint24))": {
        "notice": "Creates a new liquidity mining incentive program"
      },
      "deactivateIncentive((address,address,address,uint256))": {
        "notice": "Detach incentive from the pool and deactivate it"
      },
      "enterFarming((address,address,address,uint256),uint256)": {
        "notice": "enter farming for Algebra LP token"
      },
      "exitFarming((address,address,address,uint256),uint256,address)": {
        "notice": "exitFarmings for Algebra LP token"
      },
      "farms(uint256,bytes32)": {
        "notice": "Returns information about a farmd liquidity NFT"
      },
      "getRewardInfo((address,address,address,uint256),uint256)": {
        "notice": "reward amounts can be outdated, actual amounts could be obtained via static call of `collectRewards` in FarmingCenter"
      },
      "incentives(bytes32)": {
        "notice": "Represents a farming incentive"
      },
      "isIncentiveActiveInPool(bytes32,address)": {
        "notice": "Check if incentive is active in Algebra pool"
      },
      "nonfungiblePositionManager()": {
        "notice": "The nonfungible position manager with which this farming contract is compatible"
      },
      "rewards(address,address)": {
        "notice": "Returns amounts of reward tokens owed to a given address according to the last time all farms were updated"
      },
      "setFarmingCenterAddress(address)": {
        "notice": "Updates farming center address"
      }
    },
    "version": 1
  },
  "storageLayout": {
    "storage": [
      {
        "astId": 4400,
        "contract": "contracts/farmings/AlgebraEternalFarming.sol:AlgebraEternalFarming",
        "label": "farmingCenter",
        "offset": 0,
        "slot": "0",
        "type": "t_contract(IFarmingCenter)7662"
      },
      {
        "astId": 4407,
        "contract": "contracts/farmings/AlgebraEternalFarming.sol:AlgebraEternalFarming",
        "label": "incentives",
        "offset": 0,
        "slot": "1",
        "type": "t_mapping(t_bytes32,t_struct(Incentive)4375_storage)"
      },
      {
        "astId": 4416,
        "contract": "contracts/farmings/AlgebraEternalFarming.sol:AlgebraEternalFarming",
        "label": "farms",
        "offset": 0,
        "slot": "2",
        "type": "t_mapping(t_uint256,t_mapping(t_bytes32,t_struct(Farm)4386_storage))"
      },
      {
        "astId": 4418,
        "contract": "contracts/farmings/AlgebraEternalFarming.sol:AlgebraEternalFarming",
        "label": "numOfIncentives",
        "offset": 0,
        "slot": "3",
        "type": "t_uint256"
      },
      {
        "astId": 4437,
        "contract": "contracts/farmings/AlgebraEternalFarming.sol:AlgebraEternalFarming",
        "label": "rewards",
        "offset": 0,
        "slot": "4",
        "type": "t_mapping(t_address,t_mapping(t_contract(IERC20Minimal)383,t_uint256))"
      }
    ],
    "types": {
      "t_address": {
        "encoding": "inplace",
        "label": "address",
        "numberOfBytes": "20"
      },
      "t_bool": {
        "encoding": "inplace",
        "label": "bool",
        "numberOfBytes": "1"
      },
      "t_bytes32": {
        "encoding": "inplace",
        "label": "bytes32",
        "numberOfBytes": "32"
      },
      "t_contract(IERC20Minimal)383": {
        "encoding": "inplace",
        "label": "contract IERC20Minimal",
        "numberOfBytes": "20"
      },
      "t_contract(IFarmingCenter)7662": {
        "encoding": "inplace",
        "label": "contract IFarmingCenter",
        "numberOfBytes": "20"
      },
      "t_int24": {
        "encoding": "inplace",
        "label": "int24",
        "numberOfBytes": "3"
      },
      "t_mapping(t_address,t_mapping(t_contract(IERC20Minimal)383,t_uint256))": {
        "encoding": "mapping",
        "key": "t_address",
        "label": "mapping(address => mapping(contract IERC20Minimal => uint256))",
        "numberOfBytes": "32",
        "value": "t_mapping(t_contract(IERC20Minimal)383,t_uint256)"
      },
      "t_mapping(t_bytes32,t_struct(Farm)4386_storage)": {
        "encoding": "mapping",
        "key": "t_bytes32",
        "label": "mapping(bytes32 => struct AlgebraEternalFarming.Farm)",
        "numberOfBytes": "32",
        "value": "t_struct(Farm)4386_storage"
      },
      "t_mapping(t_bytes32,t_struct(Incentive)4375_storage)": {
        "encoding": "mapping",
        "key": "t_bytes32",
        "label": "mapping(bytes32 => struct AlgebraEternalFarming.Incentive)",
        "numberOfBytes": "32",
        "value": "t_struct(Incentive)4375_storage"
      },
      "t_mapping(t_contract(IERC20Minimal)383,t_uint256)": {
        "encoding": "mapping",
        "key": "t_contract(IERC20Minimal)383",
        "label": "mapping(contract IERC20Minimal => uint256)",
        "numberOfBytes": "32",
        "value": "t_uint256"
      },
      "t_mapping(t_uint256,t_mapping(t_bytes32,t_struct(Farm)4386_storage))": {
        "encoding": "mapping",
        "key": "t_uint256",
        "label": "mapping(uint256 => mapping(bytes32 => struct AlgebraEternalFarming.Farm))",
        "numberOfBytes": "32",
        "value": "t_mapping(t_bytes32,t_struct(Farm)4386_storage)"
      },
      "t_struct(Farm)4386_storage": {
        "encoding": "inplace",
        "label": "struct AlgebraEternalFarming.Farm",
        "members": [
          {
            "astId": 4377,
            "contract": "contracts/farmings/AlgebraEternalFarming.sol:AlgebraEternalFarming",
            "label": "liquidity",
            "offset": 0,
            "slot": "0",
            "type": "t_uint128"
          },
          {
            "astId": 4379,
            "contract": "contracts/farmings/AlgebraEternalFarming.sol:AlgebraEternalFarming",
            "label": "tickLower",
            "offset": 16,
            "slot": "0",
            "type": "t_int24"
          },
          {
            "astId": 4381,
            "contract": "contracts/farmings/AlgebraEternalFarming.sol:AlgebraEternalFarming",
            "label": "tickUpper",
            "offset": 19,
            "slot": "0",
            "type": "t_int24"
          },
          {
            "astId": 4383,
            "contract": "contracts/farmings/AlgebraEternalFarming.sol:AlgebraEternalFarming",
            "label": "innerRewardGrowth0",
            "offset": 0,
            "slot": "1",
            "type": "t_uint256"
          },
          {
            "astId": 4385,
            "contract": "contracts/farmings/AlgebraEternalFarming.sol:AlgebraEternalFarming",
            "label": "innerRewardGrowth1",
            "offset": 0,
            "slot": "2",
            "type": "t_uint256"
          }
        ],
        "numberOfBytes": "96"
      },
      "t_struct(Incentive)4375_storage": {
        "encoding": "inplace",
        "label": "struct AlgebraEternalFarming.Incentive",
        "members": [
          {
            "astId": 4366,
            "contract": "contracts/farmings/AlgebraEternalFarming.sol:AlgebraEternalFarming",
            "label": "totalReward",
            "offset": 0,
            "slot": "0",
            "type": "t_uint128"
          },
          {
            "astId": 4368,
            "contract": "contracts/farmings/AlgebraEternalFarming.sol:AlgebraEternalFarming",
            "label": "bonusReward",
            "offset": 16,
            "slot": "0",
            "type": "t_uint128"
          },
          {
            "astId": 4370,
            "contract": "contracts/farmings/AlgebraEternalFarming.sol:AlgebraEternalFarming",
            "label": "virtualPoolAddress",
            "offset": 0,
            "slot": "1",
            "type": "t_address"
          },
          {
            "astId": 4372,
            "contract": "contracts/farmings/AlgebraEternalFarming.sol:AlgebraEternalFarming",
            "label": "minimalPositionWidth",
            "offset": 20,
            "slot": "1",
            "type": "t_uint24"
          },
          {
            "astId": 4374,
            "contract": "contracts/farmings/AlgebraEternalFarming.sol:AlgebraEternalFarming",
            "label": "deactivated",
            "offset": 23,
            "slot": "1",
            "type": "t_bool"
          }
        ],
        "numberOfBytes": "64"
      },
      "t_uint128": {
        "encoding": "inplace",
        "label": "uint128",
        "numberOfBytes": "16"
      },
      "t_uint24": {
        "encoding": "inplace",
        "label": "uint24",
        "numberOfBytes": "3"
      },
      "t_uint256": {
        "encoding": "inplace",
        "label": "uint256",
        "numberOfBytes": "32"
      }
    }
  }
}