{
  "address": "0x3c927E6c38f2Bf78A3f1E57eC23b94EABe17286c",
  "abi": [
    {
      "inputs": [
        {
          "internalType": "contract IAlgebraEternalFarming",
          "name": "_eternalFarming",
          "type": "address"
        },
        {
          "internalType": "contract INonfungiblePositionManager",
          "name": "_nonfungiblePositionManager",
          "type": "address"
        }
      ],
      "stateMutability": "nonpayable",
      "type": "constructor"
    },
    {
      "inputs": [],
      "name": "algebraPoolDeployer",
      "outputs": [
        {
          "internalType": "address",
          "name": "",
          "type": "address"
        }
      ],
      "stateMutability": "view",
      "type": "function"
    },
    {
      "inputs": [
        {
          "internalType": "uint256",
          "name": "tokenId",
          "type": "uint256"
        },
        {
          "internalType": "int256",
          "name": "liquidityDelta",
          "type": "int256"
        }
      ],
      "name": "applyLiquidityDelta",
      "outputs": [],
      "stateMutability": "nonpayable",
      "type": "function"
    },
    {
      "inputs": [
        {
          "internalType": "uint256",
          "name": "tokenId",
          "type": "uint256"
        }
      ],
      "name": "burnPosition",
      "outputs": [
        {
          "internalType": "bool",
          "name": "success",
          "type": "bool"
        }
      ],
      "stateMutability": "nonpayable",
      "type": "function"
    },
    {
      "inputs": [
        {
          "internalType": "contract IERC20Minimal",
          "name": "rewardToken",
          "type": "address"
        },
        {
          "internalType": "address",
          "name": "to",
          "type": "address"
        },
        {
          "internalType": "uint256",
          "name": "amountRequested",
          "type": "uint256"
        }
      ],
      "name": "claimReward",
      "outputs": [
        {
          "internalType": "uint256",
          "name": "reward",
          "type": "uint256"
        }
      ],
      "stateMutability": "nonpayable",
      "type": "function"
    },
    {
      "inputs": [
        {
          "components": [
            {
              "internalType": "contract IERC20Minimal",
              "name": "rewardToken",
              "type": "address"
            },
            {
              "internalType": "contract IERC20Minimal",
              "name": "bonusRewardToken",
              "type": "address"
            },
            {
              "internalType": "contract IAlgebraPool",
              "name": "pool",
              "type": "address"
            },
            {
              "internalType": "uint256",
              "name": "nonce",
              "type": "uint256"
            }
          ],
          "internalType": "struct IncentiveKey",
          "name": "key",
          "type": "tuple"
        },
        {
          "internalType": "uint256",
          "name": "tokenId",
          "type": "uint256"
        }
      ],
      "name": "collectRewards",
      "outputs": [
        {
          "internalType": "uint256",
          "name": "reward",
          "type": "uint256"
        },
        {
          "internalType": "uint256",
          "name": "bonusReward",
          "type": "uint256"
        }
      ],
      "stateMutability": "nonpayable",
      "type": "function"
    },
    {
      "inputs": [
        {
          "internalType": "contract IAlgebraPool",
          "name": "pool",
          "type": "address"
        },
        {
          "internalType": "address",
          "name": "newVirtualPool",
          "type": "address"
        }
      ],
      "name": "connectVirtualPool",
      "outputs": [],
      "stateMutability": "nonpayable",
      "type": "function"
    },
    {
      "inputs": [
        {
          "internalType": "uint256",
          "name": "tokenId",
          "type": "uint256"
        },
        {
          "internalType": "uint256",
          "name": "liquidityDelta",
          "type": "uint256"
        }
      ],
      "name": "decreaseLiquidity",
      "outputs": [
        {
          "internalType": "bool",
          "name": "success",
          "type": "bool"
        }
      ],
      "stateMutability": "nonpayable",
      "type": "function"
    },
    {
      "inputs": [
        {
          "internalType": "uint256",
          "name": "",
          "type": "uint256"
        }
      ],
      "name": "deposits",
      "outputs": [
        {
          "internalType": "bytes32",
          "name": "",
          "type": "bytes32"
        }
      ],
      "stateMutability": "view",
      "type": "function"
    },
    {
      "inputs": [
        {
          "components": [
            {
              "internalType": "contract IERC20Minimal",
              "name": "rewardToken",
              "type": "address"
            },
            {
              "internalType": "contract IERC20Minimal",
              "name": "bonusRewardToken",
              "type": "address"
            },
            {
              "internalType": "contract IAlgebraPool",
              "name": "pool",
              "type": "address"
            },
            {
              "internalType": "uint256",
              "name": "nonce",
              "type": "uint256"
            }
          ],
          "internalType": "struct IncentiveKey",
          "name": "key",
          "type": "tuple"
        },
        {
          "internalType": "uint256",
          "name": "tokenId",
          "type": "uint256"
        }
      ],
      "name": "enterFarming",
      "outputs": [],
      "stateMutability": "nonpayable",
      "type": "function"
    },
    {
      "inputs": [],
      "name": "eternalFarming",
      "outputs": [
        {
          "internalType": "contract IAlgebraEternalFarming",
          "name": "",
          "type": "address"
        }
      ],
      "stateMutability": "view",
      "type": "function"
    },
    {
      "inputs": [
        {
          "components": [
            {
              "internalType": "contract IERC20Minimal",
              "name": "rewardToken",
              "type": "address"
            },
            {
              "internalType": "contract IERC20Minimal",
              "name": "bonusRewardToken",
              "type": "address"
            },
            {
              "internalType": "contract IAlgebraPool",
              "name": "pool",
              "type": "address"
            },
            {
              "internalType": "uint256",
              "name": "nonce",
              "type": "uint256"
            }
          ],
          "internalType": "struct IncentiveKey",
          "name": "key",
          "type": "tuple"
        },
        {
          "internalType": "uint256",
          "name": "tokenId",
          "type": "uint256"
        }
      ],
      "name": "exitFarming",
      "outputs": [],
      "stateMutability": "nonpayable",
      "type": "function"
    },
    {
      "inputs": [
        {
          "internalType": "bytes32",
          "name": "",
          "type": "bytes32"
        }
      ],
      "name": "incentiveKeys",
      "outputs": [
        {
          "internalType": "contract IERC20Minimal",
          "name": "rewardToken",
          "type": "address"
        },
        {
          "internalType": "contract IERC20Minimal",
          "name": "bonusRewardToken",
          "type": "address"
        },
        {
          "internalType": "contract IAlgebraPool",
          "name": "pool",
          "type": "address"
        },
        {
          "internalType": "uint256",
          "name": "nonce",
          "type": "uint256"
        }
      ],
      "stateMutability": "view",
      "type": "function"
    },
    {
      "inputs": [
        {
          "internalType": "uint256",
          "name": "tokenId",
          "type": "uint256"
        },
        {
          "internalType": "uint256",
          "name": "liquidityDelta",
          "type": "uint256"
        }
      ],
      "name": "increaseLiquidity",
      "outputs": [],
      "stateMutability": "nonpayable",
      "type": "function"
    },
    {
      "inputs": [
        {
          "internalType": "bytes[]",
          "name": "data",
          "type": "bytes[]"
        }
      ],
      "name": "multicall",
      "outputs": [
        {
          "internalType": "bytes[]",
          "name": "results",
          "type": "bytes[]"
        }
      ],
      "stateMutability": "payable",
      "type": "function"
    },
    {
      "inputs": [],
      "name": "nonfungiblePositionManager",
      "outputs": [
        {
          "internalType": "contract INonfungiblePositionManager",
          "name": "",
          "type": "address"
        }
      ],
      "stateMutability": "view",
      "type": "function"
    },
    {
      "inputs": [
        {
          "internalType": "address",
          "name": "",
          "type": "address"
        }
      ],
      "name": "virtualPoolAddresses",
      "outputs": [
        {
          "internalType": "address",
          "name": "",
          "type": "address"
        }
      ],
      "stateMutability": "view",
      "type": "function"
    }
  ],
  "transactionHash": "0x2685ccf6b8e97f0416f829afb09e08979f86150f862956702cc5ed7fc1f2ac96",
  "args": [
    "0xbE53762e668e9Eff225f73a22F96cc63B2008015",
    "0xa4282b37814e0152D1a0c6456BF0699f05d46582"
  ],
  "numDeployments": 1,
  "solcInputHash": "ae99b8d7effa6a6eba16e0ce01080364",
  "bytecode": "0x60e06040523480156200001157600080fd5b5060405162002571380380620025718339810160408190526200003491620000d9565b6001600160a01b03808316608052811660a08190526040805163188c824d60e11b81529051633119049a916004808201926020929091908290030181865afa15801562000085573d6000803e3d6000fd5b505050506040513d601f19601f82011682018060405250810190620000ab919062000118565b6001600160a01b031660c052506200013f9050565b6001600160a01b0381168114620000d657600080fd5b50565b60008060408385031215620000ed57600080fd5b8251620000fa81620000c0565b60208401519092506200010d81620000c0565b809150509250929050565b6000602082840312156200012b57600080fd5b81516200013881620000c0565b9392505050565b60805160a05160c05161237d620001f46000396000818161012c01526110870152600081816103af0152818161052401528181610654015281816107190152818161086a01528181610ada01528181610c2f015281816112d00152818161139e0152818161146801526118940152600081816104030152818161049401528181610b8601528181610d6901528181611158015281816115a4015281816116b50152818161175b0152611940015261237d6000f3fe6080604052600436106100f35760003560e01c8063696f9c811161008a578063b02c43d011610059578063b02c43d014610370578063b44a27221461039d578063d8a900b1146103d1578063de2356d1146103f157600080fd5b8063696f9c81146100f85780636af00aee146102795780638c27f1f6146102ae578063ac9650d81461035057600080fd5b806338ca63bc116100c657806338ca63bc146101e95780634473eca61461021957806349bd4e89146102395780635739f0b91461025957600080fd5b806306e65c90146100f8578063142582561461011a5780632f2d783d1461017857806332dc5a25146101a6575b600080fd5b34801561010457600080fd5b50610118610113366004611bc0565b610425565b005b34801561012657600080fd5b5061014e7f000000000000000000000000000000000000000000000000000000000000000081565b60405173ffffffffffffffffffffffffffffffffffffffff90911681526020015b60405180910390f35b34801561018457600080fd5b50610198610193366004611c07565b610432565b60405190815260200161016f565b3480156101b257600080fd5b5061014e6101c1366004611c48565b60006020819052908152604090205473ffffffffffffffffffffffffffffffffffffffff1681565b3480156101f557600080fd5b50610209610204366004611c65565b61050a565b604051901515815260200161016f565b34801561022557600080fd5b50610118610234366004611cad565b6106d1565b34801561024557600080fd5b50610209610254366004611bc0565b610811565b34801561026557600080fd5b50610118610274366004611cad565b610822565b34801561028557600080fd5b50610299610294366004611cad565b610bf7565b6040805192835260208301919091520161016f565b3480156102ba57600080fd5b5061030e6102c9366004611c65565b6002602081905260009182526040909120805460018201549282015460039092015473ffffffffffffffffffffffffffffffffffffffff918216938216929091169084565b60405161016f949392919073ffffffffffffffffffffffffffffffffffffffff9485168152928416602084015292166040820152606081019190915260800190565b61036361035e366004611d40565b610df0565b60405161016f9190611e23565b34801561037c57600080fd5b5061019861038b366004611c65565b60016020526000908152604090205481565b3480156103a957600080fd5b5061014e7f000000000000000000000000000000000000000000000000000000000000000081565b3480156103dd57600080fd5b506101186103ec366004611ea3565b610f62565b3480156103fd57600080fd5b5061014e7f000000000000000000000000000000000000000000000000000000000000000081565b61042e826112b8565b5050565b60008115610503576040517f0a53075400000000000000000000000000000000000000000000000000000000815273ffffffffffffffffffffffffffffffffffffffff85811660048301523360248301528481166044830152606482018490527f00000000000000000000000000000000000000000000000000000000000000001690630a530754906084016020604051808303816000875af11580156104dd573d6000803e3d6000fd5b505050506040513d601f19601f820116820180604052508101906105019190611edc565b015b9392505050565b60003373ffffffffffffffffffffffffffffffffffffffff7f000000000000000000000000000000000000000000000000000000000000000016146105b0576040517f08c379a000000000000000000000000000000000000000000000000000000000815260206004820152601a60248201527f6f6e6c79206e6f6e66756e6769626c65506f734d616e6167657200000000000060448201526064015b60405180910390fd5b60008281526001602052604090205480156106c8576000818152600260208181526040928390208351608081018552815473ffffffffffffffffffffffffffffffffffffffff908116825260018301548116938201939093529281015482168385015260030154606083015291517f6352211e0000000000000000000000000000000000000000000000000000000081526004810186905290916106c691839187917f000000000000000000000000000000000000000000000000000000000000000090911690636352211e90602401602060405180830381865afa15801561069d573d6000803e3d6000fd5b505050506040513d601f19601f820116820180604052508101906106c19190611f05565b6117ce565b505b50600192915050565b6040517f6352211e000000000000000000000000000000000000000000000000000000008152600481018290528190339073ffffffffffffffffffffffffffffffffffffffff7f00000000000000000000000000000000000000000000000000000000000000001690636352211e90602401602060405180830381865afa158015610760573d6000803e3d6000fd5b505050506040513d601f19601f820116820180604052508101906107849190611f05565b73ffffffffffffffffffffffffffffffffffffffff1614610801576040517f08c379a000000000000000000000000000000000000000000000000000000000815260206004820152601260248201527f6e6f74206f776e6572206f6620746f6b656e000000000000000000000000000060448201526064016105a7565b61080c8383336117ce565b505050565b60006106c8836112b8565b92915050565b6040517f6352211e000000000000000000000000000000000000000000000000000000008152600481018290528190339073ffffffffffffffffffffffffffffffffffffffff7f00000000000000000000000000000000000000000000000000000000000000001690636352211e90602401602060405180830381865afa1580156108b1573d6000803e3d6000fd5b505050506040513d601f19601f820116820180604052508101906108d59190611f05565b73ffffffffffffffffffffffffffffffffffffffff1614610952576040517f08c379a000000000000000000000000000000000000000000000000000000000815260206004820152601260248201527f6e6f74206f776e6572206f6620746f6b656e000000000000000000000000000060448201526064016105a7565b600061095d846119b2565b6000818152600260208190526040909120015490915073ffffffffffffffffffffffffffffffffffffffff16610a1957600081815260026020818152604092839020875181547fffffffffffffffffffffffff000000000000000000000000000000000000000090811673ffffffffffffffffffffffffffffffffffffffff9283161783559289015160018301805485169183169190911790559388015192810180549092169290931691909117905560608501516003909101555b60008381526001602052604090205415610a8f576040517f08c379a000000000000000000000000000000000000000000000000000000000815260206004820152601460248201527f746f6b656e20616c7265616479206661726d656400000000000000000000000060448201526064016105a7565b60008381526001602081905260409182902083905590517f702275150000000000000000000000000000000000000000000000000000000081526004810185905260248101919091527f000000000000000000000000000000000000000000000000000000000000000073ffffffffffffffffffffffffffffffffffffffff1690637022751590604401600060405180830381600087803b158015610b3357600080fd5b505af1158015610b47573d6000803e3d6000fd5b50506040517f5739f0b900000000000000000000000000000000000000000000000000000000815273ffffffffffffffffffffffffffffffffffffffff7f0000000000000000000000000000000000000000000000000000000000000000169250635739f0b99150610bbf9087908790600401611f22565b600060405180830381600087803b158015610bd957600080fd5b505af1158015610bed573d6000803e3d6000fd5b5050505050505050565b6040517f6352211e000000000000000000000000000000000000000000000000000000008152600481018290526000908190839033907f000000000000000000000000000000000000000000000000000000000000000073ffffffffffffffffffffffffffffffffffffffff1690636352211e90602401602060405180830381865afa158015610c8b573d6000803e3d6000fd5b505050506040513d601f19601f82011682018060405250810190610caf9190611f05565b73ffffffffffffffffffffffffffffffffffffffff1614610d2c576040517f08c379a000000000000000000000000000000000000000000000000000000000815260206004820152601260248201527f6e6f74206f776e6572206f6620746f6b656e000000000000000000000000000060448201526064016105a7565b6040517f046ec16600000000000000000000000000000000000000000000000000000000815273ffffffffffffffffffffffffffffffffffffffff7f0000000000000000000000000000000000000000000000000000000000000000169063046ec16690610da290889088903390600401611f7a565b60408051808303816000875af1158015610dc0573d6000803e3d6000fd5b505050506040513d601f19601f82011682018060405250810190610de49190611fef565b90969095509350505050565b60608167ffffffffffffffff811115610e0b57610e0b611c7e565b604051908082528060200260200182016040528015610e3e57816020015b6060815260200190600190039081610e295790505b50905060005b82811015610f5b5760008030868685818110610e6257610e62612013565b9050602002810190610e749190612042565b604051610e829291906120ae565b600060405180830381855af49150503d8060008114610ebd576040519150601f19603f3d011682016040523d82523d6000602084013e610ec2565b606091505b509150915081610f2857604481511015610edb57600080fd5b60048101905080806020019051810190610ef591906120be565b6040517f08c379a00000000000000000000000000000000000000000000000000000000081526004016105a79190612189565b80848481518110610f3b57610f3b612013565b602002602001018190525050508080610f539061219c565b915050610e44565b5092915050565b600060405180604001604052808473ffffffffffffffffffffffffffffffffffffffff16630dfe16816040518163ffffffff1660e01b8152600401602060405180830381865afa158015610fba573d6000803e3d6000fd5b505050506040513d601f19601f82011682018060405250810190610fde9190611f05565b73ffffffffffffffffffffffffffffffffffffffff1681526020018473ffffffffffffffffffffffffffffffffffffffff1663d21220a76040518163ffffffff1660e01b8152600401602060405180830381865afa158015611044573d6000803e3d6000fd5b505050506040513d601f19601f820116820180604052508101906110689190611f05565b73ffffffffffffffffffffffffffffffffffffffff16905290506110ac7f0000000000000000000000000000000000000000000000000000000000000000826119e2565b73ffffffffffffffffffffffffffffffffffffffff168373ffffffffffffffffffffffffffffffffffffffff1614611140576040517f08c379a000000000000000000000000000000000000000000000000000000000815260206004820152600c60248201527f696e76616c696420706f6f6c000000000000000000000000000000000000000060448201526064016105a7565b3373ffffffffffffffffffffffffffffffffffffffff7f000000000000000000000000000000000000000000000000000000000000000016146111df576040517f08c379a000000000000000000000000000000000000000000000000000000000815260206004820152601a60248201527f6f6e6c79206661726d696e672063616e2063616c6c207468697300000000000060448201526064016105a7565b6040517f7c1fe0c800000000000000000000000000000000000000000000000000000000815273ffffffffffffffffffffffffffffffffffffffff8381166004830152841690637c1fe0c890602401600060405180830381600087803b15801561124857600080fd5b505af115801561125c573d6000803e3d6000fd5b5050505073ffffffffffffffffffffffffffffffffffffffff928316600090815260208190526040902080547fffffffffffffffffffffffff000000000000000000000000000000000000000016929093169190911790915550565b3373ffffffffffffffffffffffffffffffffffffffff7f00000000000000000000000000000000000000000000000000000000000000001614611357576040517f08c379a000000000000000000000000000000000000000000000000000000000815260206004820152601a60248201527f6f6e6c79206e6f6e66756e6769626c65506f734d616e6167657200000000000060448201526064016105a7565b600081815260016020526040902054801561042e576040517f6352211e000000000000000000000000000000000000000000000000000000008152600481018390526000907f000000000000000000000000000000000000000000000000000000000000000073ffffffffffffffffffffffffffffffffffffffff1690636352211e90602401602060405180830381865afa1580156113fa573d6000803e3d6000fd5b505050506040513d601f19601f8201168201806040525081019061141e9190611f05565b6040517f99fbab880000000000000000000000000000000000000000000000000000000081526004810185905290915060009073ffffffffffffffffffffffffffffffffffffffff7f000000000000000000000000000000000000000000000000000000000000000016906399fbab889060240161016060405180830381865afa1580156114b0573d6000803e3d6000fd5b505050506040513d601f19601f820116820180604052508101906114d4919061222d565b50505060008b8152600260208181526040928390208351608081018552815473ffffffffffffffffffffffffffffffffffffffff908116825260018301548116938201939093529281015490911692820192909252600390910154606082015291985090965050506fffffffffffffffffffffffffffffffff861615935083925061158d915050575060408082015173ffffffffffffffffffffffffffffffffffffffff90811660009081526020819052919091205416155b156115a25761159d8186856117ce565b6117c7565b7f000000000000000000000000000000000000000000000000000000000000000073ffffffffffffffffffffffffffffffffffffffff1663d04984616115e7836119b2565b83604001516040518363ffffffff1660e01b815260040161162892919091825273ffffffffffffffffffffffffffffffffffffffff16602082015260400190565b602060405180830381865afa158015611645573d6000803e3d6000fd5b505050506040513d601f19601f820116820180604052508101906116699190612303565b6116785761159d8186856117ce565b6040517f36808b1900000000000000000000000000000000000000000000000000000000815273ffffffffffffffffffffffffffffffffffffffff7f000000000000000000000000000000000000000000000000000000000000000016906336808b19906116ee90849089908890600401611f7a565b600060405180830381600087803b15801561170857600080fd5b505af115801561171c573d6000803e3d6000fd5b50506040517f5739f0b900000000000000000000000000000000000000000000000000000000815273ffffffffffffffffffffffffffffffffffffffff7f0000000000000000000000000000000000000000000000000000000000000000169250635739f0b991506117949084908990600401611f22565b600060405180830381600087803b1580156117ae57600080fd5b505af11580156117c2573d6000803e3d6000fd5b505050505b5050505050565b6117d7836119b2565b6000838152600160205260409020541461184d576040517f08c379a000000000000000000000000000000000000000000000000000000000815260206004820152601360248201527f696e76616c696420696e63656e7469766549640000000000000000000000000060448201526064016105a7565b600082815260016020526040808220829055517f702275150000000000000000000000000000000000000000000000000000000081526004810184905260248101919091527f000000000000000000000000000000000000000000000000000000000000000073ffffffffffffffffffffffffffffffffffffffff1690637022751590604401600060405180830381600087803b1580156118ed57600080fd5b505af1158015611901573d6000803e3d6000fd5b50506040517f36808b1900000000000000000000000000000000000000000000000000000000815273ffffffffffffffffffffffffffffffffffffffff7f00000000000000000000000000000000000000000000000000000000000000001692506336808b19915061197b90869086908690600401611f7a565b600060405180830381600087803b15801561199557600080fd5b505af11580156119a9573d6000803e3d6000fd5b50505050505050565b6000816040516020016119c59190612325565b604051602081830303815290604052805190602001209050919050565b6000816020015173ffffffffffffffffffffffffffffffffffffffff16826000015173ffffffffffffffffffffffffffffffffffffffff1610611a81576040517f08c379a000000000000000000000000000000000000000000000000000000000815260206004820152601760248201527f496e76616c6964206f72646572206f6620746f6b656e7300000000000000000060448201526064016105a7565b8282600001518360200151604051602001611abf92919073ffffffffffffffffffffffffffffffffffffffff92831681529116602082015260400190565b604080517fffffffffffffffffffffffffffffffffffffffffffffffffffffffffffffffe0818403018152908290528051602091820120611b83939290917ffb470dd52f1744c73f958b0d8756c3864c1ff3958598537bdd9f8733de44494791017fff00000000000000000000000000000000000000000000000000000000000000815260609390931b7fffffffffffffffffffffffffffffffffffffffff0000000000000000000000001660018401526015830191909152603582015260550190565b604080517fffffffffffffffffffffffffffffffffffffffffffffffffffffffffffffffe081840301815291905280516020909101209392505050565b60008060408385031215611bd357600080fd5b50508035926020909101359150565b73ffffffffffffffffffffffffffffffffffffffff81168114611c0457600080fd5b50565b600080600060608486031215611c1c57600080fd5b8335611c2781611be2565b92506020840135611c3781611be2565b929592945050506040919091013590565b600060208284031215611c5a57600080fd5b813561050381611be2565b600060208284031215611c7757600080fd5b5035919050565b7f4e487b7100000000000000000000000000000000000000000000000000000000600052604160045260246000fd5b60008082840360a0811215611cc157600080fd5b6080811215611ccf57600080fd5b506040516080810181811067ffffffffffffffff82111715611cf357611cf3611c7e565b6040528335611d0181611be2565b81526020840135611d1181611be2565b60208201526040840135611d2481611be2565b6040820152606084810135908201529460809093013593505050565b60008060208385031215611d5357600080fd5b823567ffffffffffffffff80821115611d6b57600080fd5b818501915085601f830112611d7f57600080fd5b813581811115611d8e57600080fd5b8660208260051b8501011115611da357600080fd5b60209290920196919550909350505050565b60005b83811015611dd0578181015183820152602001611db8565b50506000910152565b60008151808452611df1816020860160208601611db5565b601f017fffffffffffffffffffffffffffffffffffffffffffffffffffffffffffffffe0169290920160200192915050565b6000602080830181845280855180835260408601915060408160051b870101925083870160005b82811015611e96577fffffffffffffffffffffffffffffffffffffffffffffffffffffffffffffffc0888603018452611e84858351611dd9565b94509285019290850190600101611e4a565b5092979650505050505050565b60008060408385031215611eb657600080fd5b8235611ec181611be2565b91506020830135611ed181611be2565b809150509250929050565b600060208284031215611eee57600080fd5b5051919050565b8051611f0081611be2565b919050565b600060208284031215611f1757600080fd5b815161050381611be2565b60a08101611f6d828573ffffffffffffffffffffffffffffffffffffffff80825116835280602083015116602084015280604083015116604084015250606081015160608301525050565b8260808301529392505050565b60c08101611fc5828673ffffffffffffffffffffffffffffffffffffffff80825116835280602083015116602084015280604083015116604084015250606081015160608301525050565b83608083015273ffffffffffffffffffffffffffffffffffffffff831660a0830152949350505050565b6000806040838503121561200257600080fd5b505080516020909101519092909150565b7f4e487b7100000000000000000000000000000000000000000000000000000000600052603260045260246000fd5b60008083357fffffffffffffffffffffffffffffffffffffffffffffffffffffffffffffffe184360301811261207757600080fd5b83018035915067ffffffffffffffff82111561209257600080fd5b6020019150368190038213156120a757600080fd5b9250929050565b8183823760009101908152919050565b6000602082840312156120d057600080fd5b815167ffffffffffffffff808211156120e857600080fd5b818401915084601f8301126120fc57600080fd5b81518181111561210e5761210e611c7e565b604051601f82017fffffffffffffffffffffffffffffffffffffffffffffffffffffffffffffffe0908116603f0116810190838211818310171561215457612154611c7e565b8160405282815287602084870101111561216d57600080fd5b61217e836020830160208801611db5565b979650505050505050565b6020815260006105036020830184611dd9565b60007fffffffffffffffffffffffffffffffffffffffffffffffffffffffffffffffff82036121f4577f4e487b7100000000000000000000000000000000000000000000000000000000600052601160045260246000fd5b5060010190565b8051600281900b8114611f0057600080fd5b80516fffffffffffffffffffffffffffffffff81168114611f0057600080fd5b60008060008060008060008060008060006101608c8e03121561224f57600080fd5b8b516affffffffffffffffffffff8116811461226a57600080fd5b60208d0151909b5061227b81611be2565b60408d0151909a5061228c81611be2565b985061229a60608d01611ef5565b97506122a860808d016121fb565b96506122b660a08d016121fb565b95506122c460c08d0161220d565b945060e08c015193506101008c015192506122e26101208d0161220d565b91506122f16101408d0161220d565b90509295989b509295989b9093969950565b60006020828403121561231557600080fd5b8151801515811461050357600080fd5b6080810161081c828473ffffffffffffffffffffffffffffffffffffffff8082511683528060208301511660208401528060408301511660408401525060608101516060830152505056fea164736f6c6343000811000a",
  "devdoc": {
    "details": "Manages farmings and performs entry, exit and other actions.",
    "kind": "dev",
    "methods": {
      "applyLiquidityDelta(uint256,int256)": {
        "params": {
          "liquidityDelta": "The amount of added liquidity",
          "tokenId": "The ID of the token for which liquidity is being added"
        }
      },
      "burnPosition(uint256)": {
        "params": {
          "tokenId": "The ID of the token which is being burned"
        }
      },
      "claimReward(address,address,uint256)": {
        "details": "can be used via static call to get current rewards for user",
        "params": {
          "amountRequested": "Amount to claim in eternal farming",
          "rewardToken": "The token that is a reward",
          "to": "The address to be rewarded"
        },
        "returns": {
          "reward": "The summary amount of claimed rewards"
        }
      },
      "collectRewards((address,address,address,uint256),uint256)": {
        "params": {
          "key": "The incentive event key",
          "tokenId": "The id of position NFT"
        },
        "returns": {
          "bonusReward": "The amount of collected  bonus reward",
          "reward": "The amount of collected reward"
        }
      },
      "connectVirtualPool(address,address)": {
        "details": "only farming can do it",
        "params": {
          "pool": "The AlgebraPool for which farming was created",
          "virtualPool": "The virtual pool to be connected"
        }
      },
      "enterFarming((address,address,address,uint256),uint256)": {
        "details": "token must be deposited in FarmingCenter",
        "params": {
          "key": "The incentive event key",
          "tokenId": "The id of position NFT"
        }
      },
      "exitFarming((address,address,address,uint256),uint256)": {
        "params": {
          "key": "The incentive event key",
          "tokenId": "The id of position NFT"
        }
      },
      "multicall(bytes[])": {
        "details": "The `msg.value` should not be trusted for any method callable from multicall.",
        "params": {
          "data": "The encoded function data for each of the calls to make to this contract"
        },
        "returns": {
          "results": "The results from each of the calls passed in via data"
        }
      }
    },
    "stateVariables": {
      "deposits": {
        "details": "deposits[tokenId] => incentiveId"
      },
      "virtualPoolAddresses": {
        "details": "saves addresses of virtual pools for pool"
      }
    },
    "title": "Algebra main farming contract",
    "version": 1
  },
  "userdoc": {
    "kind": "user",
    "methods": {
      "algebraPoolDeployer()": {
        "notice": "The Algebra poolDeployer contract"
      },
      "applyLiquidityDelta(uint256,int256)": {
        "notice": "Report a change of liquidity in position"
      },
      "burnPosition(uint256)": {
        "notice": "Report a burn of position token"
      },
      "claimReward(address,address,uint256)": {
        "notice": "Used to claim and send rewards from farming(s)"
      },
      "collectRewards((address,address,address,uint256),uint256)": {
        "notice": "Used to collect reward from eternal farming. Then reward can be claimed."
      },
      "connectVirtualPool(address,address)": {
        "notice": "Updates activeIncentive in AlgebraPool"
      },
      "enterFarming((address,address,address,uint256),uint256)": {
        "notice": "Enters in incentive (time-limited or eternal farming) with NFT-position token"
      },
      "eternalFarming()": {
        "notice": "The eternal farming contract"
      },
      "exitFarming((address,address,address,uint256),uint256)": {
        "notice": "Exits from incentive (time-limited or eternal farming) with NFT-position token"
      },
      "multicall(bytes[])": {
        "notice": "Call multiple functions in the current contract and return the data from all of them if they all succeed"
      },
      "nonfungiblePositionManager()": {
        "notice": "The nonfungible position manager with which this farming contract is compatible"
      }
    },
    "version": 1
  },
  "storageLayout": {
    "storage": [
      {
        "astId": 3623,
        "contract": "contracts/FarmingCenter.sol:FarmingCenter",
        "label": "virtualPoolAddresses",
        "offset": 0,
        "slot": "0",
        "type": "t_mapping(t_address,t_address)"
      },
      {
        "astId": 3629,
        "contract": "contracts/FarmingCenter.sol:FarmingCenter",
        "label": "deposits",
        "offset": 0,
        "slot": "1",
        "type": "t_mapping(t_uint256,t_bytes32)"
      },
      {
        "astId": 3634,
        "contract": "contracts/FarmingCenter.sol:FarmingCenter",
        "label": "incentiveKeys",
        "offset": 0,
        "slot": "2",
        "type": "t_mapping(t_bytes32,t_struct(IncentiveKey)4178_storage)"
      }
    ],
    "types": {
      "t_address": {
        "encoding": "inplace",
        "label": "address",
        "numberOfBytes": "20"
      },
      "t_bytes32": {
        "encoding": "inplace",
        "label": "bytes32",
        "numberOfBytes": "32"
      },
      "t_contract(IAlgebraPool)185": {
        "encoding": "inplace",
        "label": "contract IAlgebraPool",
        "numberOfBytes": "20"
      },
      "t_contract(IERC20Minimal)383": {
        "encoding": "inplace",
        "label": "contract IERC20Minimal",
        "numberOfBytes": "20"
      },
      "t_mapping(t_address,t_address)": {
        "encoding": "mapping",
        "key": "t_address",
        "label": "mapping(address => address)",
        "numberOfBytes": "32",
        "value": "t_address"
      },
      "t_mapping(t_bytes32,t_struct(IncentiveKey)4178_storage)": {
        "encoding": "mapping",
        "key": "t_bytes32",
        "label": "mapping(bytes32 => struct IncentiveKey)",
        "numberOfBytes": "32",
        "value": "t_struct(IncentiveKey)4178_storage"
      },
      "t_mapping(t_uint256,t_bytes32)": {
        "encoding": "mapping",
        "key": "t_uint256",
        "label": "mapping(uint256 => bytes32)",
        "numberOfBytes": "32",
        "value": "t_bytes32"
      },
      "t_struct(IncentiveKey)4178_storage": {
        "encoding": "inplace",
        "label": "struct IncentiveKey",
        "members": [
          {
            "astId": 4169,
            "contract": "contracts/FarmingCenter.sol:FarmingCenter",
            "label": "rewardToken",
            "offset": 0,
            "slot": "0",
            "type": "t_contract(IERC20Minimal)383"
          },
          {
            "astId": 4172,
            "contract": "contracts/FarmingCenter.sol:FarmingCenter",
            "label": "bonusRewardToken",
            "offset": 0,
            "slot": "1",
            "type": "t_contract(IERC20Minimal)383"
          },
          {
            "astId": 4175,
            "contract": "contracts/FarmingCenter.sol:FarmingCenter",
            "label": "pool",
            "offset": 0,
            "slot": "2",
            "type": "t_contract(IAlgebraPool)185"
          },
          {
            "astId": 4177,
            "contract": "contracts/FarmingCenter.sol:FarmingCenter",
            "label": "nonce",
            "offset": 0,
            "slot": "3",
            "type": "t_uint256"
          }
        ],
        "numberOfBytes": "128"
      },
      "t_uint256": {
        "encoding": "inplace",
        "label": "uint256",
        "numberOfBytes": "32"
      }
    }
  }
}