{
  "address": "0x4739A5Af1CB5C45Bb7FD8ac1C24931301A102c08",
  "abi": [
    {
      "inputs": [
        {
          "internalType": "address",
          "name": "_factory",
          "type": "address"
        },
        {
          "internalType": "address",
          "name": "_WNativeToken",
          "type": "address"
        },
        {
          "internalType": "address",
          "name": "_poolDeployer",
          "type": "address"
        }
      ],
      "stateMutability": "nonpayable",
      "type": "constructor"
    },
    {
      "inputs": [],
      "name": "tickOutOfRange",
      "type": "error"
    },
    {
      "anonymous": false,
      "inputs": [
        {
          "indexed": true,
          "internalType": "address",
          "name": "owner",
          "type": "address"
        },
        {
          "indexed": true,
          "internalType": "address",
          "name": "approved",
          "type": "address"
        },
        {
          "indexed": true,
          "internalType": "uint256",
          "name": "tokenId",
          "type": "uint256"
        }
      ],
      "name": "Approval",
      "type": "event"
    },
    {
      "anonymous": false,
      "inputs": [
        {
          "indexed": true,
          "internalType": "address",
          "name": "owner",
          "type": "address"
        },
        {
          "indexed": true,
          "internalType": "address",
          "name": "operator",
          "type": "address"
        },
        {
          "indexed": false,
          "internalType": "bool",
          "name": "approved",
          "type": "bool"
        }
      ],
      "name": "ApprovalForAll",
      "type": "event"
    },
    {
      "anonymous": false,
      "inputs": [
        {
          "indexed": true,
          "internalType": "address",
          "name": "from",
          "type": "address"
        },
        {
          "indexed": true,
          "internalType": "address",
          "name": "to",
          "type": "address"
        },
        {
          "indexed": true,
          "internalType": "uint256",
          "name": "tokenId",
          "type": "uint256"
        }
      ],
      "name": "Transfer",
      "type": "event"
    },
    {
      "inputs": [],
      "name": "DOMAIN_SEPARATOR",
      "outputs": [
        {
          "internalType": "bytes32",
          "name": "",
          "type": "bytes32"
        }
      ],
      "stateMutability": "view",
      "type": "function"
    },
    {
      "inputs": [],
      "name": "PERMIT_TYPEHASH",
      "outputs": [
        {
          "internalType": "bytes32",
          "name": "",
          "type": "bytes32"
        }
      ],
      "stateMutability": "view",
      "type": "function"
    },
    {
      "inputs": [],
      "name": "WNativeToken",
      "outputs": [
        {
          "internalType": "address",
          "name": "",
          "type": "address"
        }
      ],
      "stateMutability": "view",
      "type": "function"
    },
    {
      "inputs": [
        {
          "components": [
            {
              "internalType": "address",
              "name": "token0",
              "type": "address"
            },
            {
              "internalType": "address",
              "name": "token1",
              "type": "address"
            },
            {
              "internalType": "bool",
              "name": "depositedToken",
              "type": "bool"
            },
            {
              "internalType": "uint128",
              "name": "amount",
              "type": "uint128"
            },
            {
              "internalType": "int24",
              "name": "tick",
              "type": "int24"
            }
          ],
          "internalType": "struct ILimitOrderManager.addLimitOrderParams",
          "name": "params",
          "type": "tuple"
        }
      ],
      "name": "addLimitOrder",
      "outputs": [
        {
          "internalType": "uint256",
          "name": "tokenId",
          "type": "uint256"
        }
      ],
      "stateMutability": "payable",
      "type": "function"
    },
    {
      "inputs": [
        {
          "internalType": "uint256",
          "name": "amount0Owed",
          "type": "uint256"
        },
        {
          "internalType": "uint256",
          "name": "amount1Owed",
          "type": "uint256"
        },
        {
          "internalType": "bytes",
          "name": "data",
          "type": "bytes"
        }
      ],
      "name": "algebraMintCallback",
      "outputs": [],
      "stateMutability": "nonpayable",
      "type": "function"
    },
    {
      "inputs": [
        {
          "internalType": "address",
          "name": "to",
          "type": "address"
        },
        {
          "internalType": "uint256",
          "name": "tokenId",
          "type": "uint256"
        }
      ],
      "name": "approve",
      "outputs": [],
      "stateMutability": "nonpayable",
      "type": "function"
    },
    {
      "inputs": [
        {
          "internalType": "address",
          "name": "owner",
          "type": "address"
        }
      ],
      "name": "balanceOf",
      "outputs": [
        {
          "internalType": "uint256",
          "name": "",
          "type": "uint256"
        }
      ],
      "stateMutability": "view",
      "type": "function"
    },
    {
      "inputs": [],
      "name": "baseURI",
      "outputs": [
        {
          "internalType": "string",
          "name": "",
          "type": "string"
        }
      ],
      "stateMutability": "pure",
      "type": "function"
    },
    {
      "inputs": [
        {
          "internalType": "uint256",
          "name": "tokenId",
          "type": "uint256"
        }
      ],
      "name": "burn",
      "outputs": [],
      "stateMutability": "payable",
      "type": "function"
    },
    {
      "inputs": [
        {
          "internalType": "uint256",
          "name": "tokenId",
          "type": "uint256"
        },
        {
          "internalType": "address",
          "name": "recipient",
          "type": "address"
        }
      ],
      "name": "collectLimitOrder",
      "outputs": [
        {
          "internalType": "uint256",
          "name": "amount0",
          "type": "uint256"
        },
        {
          "internalType": "uint256",
          "name": "amount1",
          "type": "uint256"
        }
      ],
      "stateMutability": "payable",
      "type": "function"
    },
    {
      "inputs": [
        {
          "internalType": "uint256",
          "name": "tokenId",
          "type": "uint256"
        },
        {
          "internalType": "uint128",
          "name": "liquidity",
          "type": "uint128"
        }
      ],
      "name": "decreaseLimitOrder",
      "outputs": [],
      "stateMutability": "payable",
      "type": "function"
    },
    {
      "inputs": [],
      "name": "factory",
      "outputs": [
        {
          "internalType": "address",
          "name": "",
          "type": "address"
        }
      ],
      "stateMutability": "view",
      "type": "function"
    },
    {
      "inputs": [
        {
          "internalType": "uint256",
          "name": "tokenId",
          "type": "uint256"
        }
      ],
      "name": "getApproved",
      "outputs": [
        {
          "internalType": "address",
          "name": "",
          "type": "address"
        }
      ],
      "stateMutability": "view",
      "type": "function"
    },
    {
      "inputs": [
        {
          "internalType": "address",
          "name": "owner",
          "type": "address"
        },
        {
          "internalType": "address",
          "name": "operator",
          "type": "address"
        }
      ],
      "name": "isApprovedForAll",
      "outputs": [
        {
          "internalType": "bool",
          "name": "",
          "type": "bool"
        }
      ],
      "stateMutability": "view",
      "type": "function"
    },
    {
      "inputs": [
        {
          "internalType": "uint256",
          "name": "tokenId",
          "type": "uint256"
        }
      ],
      "name": "limitPositions",
      "outputs": [
        {
          "components": [
            {
              "internalType": "uint96",
              "name": "nonce",
              "type": "uint96"
            },
            {
              "internalType": "address",
              "name": "operator",
              "type": "address"
            },
            {
              "internalType": "uint80",
              "name": "poolId",
              "type": "uint80"
            },
            {
              "internalType": "uint128",
              "name": "liquidity",
              "type": "uint128"
            },
            {
              "internalType": "uint128",
              "name": "liquidityInit",
              "type": "uint128"
            },
            {
              "internalType": "int24",
              "name": "tick",
              "type": "int24"
            },
            {
              "internalType": "bool",
              "name": "depositedToken",
              "type": "bool"
            },
            {
              "internalType": "uint128",
              "name": "depositedAmount",
              "type": "uint128"
            },
            {
              "internalType": "uint256",
              "name": "feeGrowthInside0LastX128",
              "type": "uint256"
            },
            {
              "internalType": "uint256",
              "name": "feeGrowthInside1LastX128",
              "type": "uint256"
            },
            {
              "internalType": "uint128",
              "name": "tokensOwed0",
              "type": "uint128"
            },
            {
              "internalType": "uint128",
              "name": "tokensOwed1",
              "type": "uint128"
            }
          ],
          "internalType": "struct ILimitOrderManager.LimitPosition",
          "name": "limitPosition",
          "type": "tuple"
        },
        {
          "internalType": "address",
          "name": "token0",
          "type": "address"
        },
        {
          "internalType": "address",
          "name": "token1",
          "type": "address"
        }
      ],
      "stateMutability": "view",
      "type": "function"
    },
    {
      "inputs": [
        {
          "internalType": "bytes[]",
          "name": "data",
          "type": "bytes[]"
        }
      ],
      "name": "multicall",
      "outputs": [
        {
          "internalType": "bytes[]",
          "name": "results",
          "type": "bytes[]"
        }
      ],
      "stateMutability": "payable",
      "type": "function"
    },
    {
      "inputs": [],
      "name": "name",
      "outputs": [
        {
          "internalType": "string",
          "name": "",
          "type": "string"
        }
      ],
      "stateMutability": "view",
      "type": "function"
    },
    {
      "inputs": [
        {
          "internalType": "uint256",
          "name": "tokenId",
          "type": "uint256"
        }
      ],
      "name": "ownerOf",
      "outputs": [
        {
          "internalType": "address",
          "name": "",
          "type": "address"
        }
      ],
      "stateMutability": "view",
      "type": "function"
    },
    {
      "inputs": [
        {
          "internalType": "address",
          "name": "spender",
          "type": "address"
        },
        {
          "internalType": "uint256",
          "name": "tokenId",
          "type": "uint256"
        },
        {
          "internalType": "uint256",
          "name": "deadline",
          "type": "uint256"
        },
        {
          "internalType": "uint8",
          "name": "v",
          "type": "uint8"
        },
        {
          "internalType": "bytes32",
          "name": "r",
          "type": "bytes32"
        },
        {
          "internalType": "bytes32",
          "name": "s",
          "type": "bytes32"
        }
      ],
      "name": "permit",
      "outputs": [],
      "stateMutability": "payable",
      "type": "function"
    },
    {
      "inputs": [],
      "name": "poolDeployer",
      "outputs": [
        {
          "internalType": "address",
          "name": "",
          "type": "address"
        }
      ],
      "stateMutability": "view",
      "type": "function"
    },
    {
      "inputs": [],
      "name": "refundNativeToken",
      "outputs": [],
      "stateMutability": "payable",
      "type": "function"
    },
    {
      "inputs": [
        {
          "internalType": "address",
          "name": "from",
          "type": "address"
        },
        {
          "internalType": "address",
          "name": "to",
          "type": "address"
        },
        {
          "internalType": "uint256",
          "name": "tokenId",
          "type": "uint256"
        }
      ],
      "name": "safeTransferFrom",
      "outputs": [],
      "stateMutability": "nonpayable",
      "type": "function"
    },
    {
      "inputs": [
        {
          "internalType": "address",
          "name": "from",
          "type": "address"
        },
        {
          "internalType": "address",
          "name": "to",
          "type": "address"
        },
        {
          "internalType": "uint256",
          "name": "tokenId",
          "type": "uint256"
        },
        {
          "internalType": "bytes",
          "name": "_data",
          "type": "bytes"
        }
      ],
      "name": "safeTransferFrom",
      "outputs": [],
      "stateMutability": "nonpayable",
      "type": "function"
    },
    {
      "inputs": [
        {
          "internalType": "address",
          "name": "token",
          "type": "address"
        },
        {
          "internalType": "uint256",
          "name": "value",
          "type": "uint256"
        },
        {
          "internalType": "uint256",
          "name": "deadline",
          "type": "uint256"
        },
        {
          "internalType": "uint8",
          "name": "v",
          "type": "uint8"
        },
        {
          "internalType": "bytes32",
          "name": "r",
          "type": "bytes32"
        },
        {
          "internalType": "bytes32",
          "name": "s",
          "type": "bytes32"
        }
      ],
      "name": "selfPermit",
      "outputs": [],
      "stateMutability": "payable",
      "type": "function"
    },
    {
      "inputs": [
        {
          "internalType": "address",
          "name": "token",
          "type": "address"
        },
        {
          "internalType": "uint256",
          "name": "nonce",
          "type": "uint256"
        },
        {
          "internalType": "uint256",
          "name": "expiry",
          "type": "uint256"
        },
        {
          "internalType": "uint8",
          "name": "v",
          "type": "uint8"
        },
        {
          "internalType": "bytes32",
          "name": "r",
          "type": "bytes32"
        },
        {
          "internalType": "bytes32",
          "name": "s",
          "type": "bytes32"
        }
      ],
      "name": "selfPermitAllowed",
      "outputs": [],
      "stateMutability": "payable",
      "type": "function"
    },
    {
      "inputs": [
        {
          "internalType": "address",
          "name": "token",
          "type": "address"
        },
        {
          "internalType": "uint256",
          "name": "nonce",
          "type": "uint256"
        },
        {
          "internalType": "uint256",
          "name": "expiry",
          "type": "uint256"
        },
        {
          "internalType": "uint8",
          "name": "v",
          "type": "uint8"
        },
        {
          "internalType": "bytes32",
          "name": "r",
          "type": "bytes32"
        },
        {
          "internalType": "bytes32",
          "name": "s",
          "type": "bytes32"
        }
      ],
      "name": "selfPermitAllowedIfNecessary",
      "outputs": [],
      "stateMutability": "payable",
      "type": "function"
    },
    {
      "inputs": [
        {
          "internalType": "address",
          "name": "token",
          "type": "address"
        },
        {
          "internalType": "uint256",
          "name": "value",
          "type": "uint256"
        },
        {
          "internalType": "uint256",
          "name": "deadline",
          "type": "uint256"
        },
        {
          "internalType": "uint8",
          "name": "v",
          "type": "uint8"
        },
        {
          "internalType": "bytes32",
          "name": "r",
          "type": "bytes32"
        },
        {
          "internalType": "bytes32",
          "name": "s",
          "type": "bytes32"
        }
      ],
      "name": "selfPermitIfNecessary",
      "outputs": [],
      "stateMutability": "payable",
      "type": "function"
    },
    {
      "inputs": [
        {
          "internalType": "address",
          "name": "operator",
          "type": "address"
        },
        {
          "internalType": "bool",
          "name": "approved",
          "type": "bool"
        }
      ],
      "name": "setApprovalForAll",
      "outputs": [],
      "stateMutability": "nonpayable",
      "type": "function"
    },
    {
      "inputs": [
        {
          "internalType": "bytes4",
          "name": "interfaceId",
          "type": "bytes4"
        }
      ],
      "name": "supportsInterface",
      "outputs": [
        {
          "internalType": "bool",
          "name": "",
          "type": "bool"
        }
      ],
      "stateMutability": "view",
      "type": "function"
    },
    {
      "inputs": [
        {
          "internalType": "address",
          "name": "token",
          "type": "address"
        },
        {
          "internalType": "uint256",
          "name": "amountMinimum",
          "type": "uint256"
        },
        {
          "internalType": "address",
          "name": "recipient",
          "type": "address"
        }
      ],
      "name": "sweepToken",
      "outputs": [],
      "stateMutability": "payable",
      "type": "function"
    },
    {
      "inputs": [],
      "name": "symbol",
      "outputs": [
        {
          "internalType": "string",
          "name": "",
          "type": "string"
        }
      ],
      "stateMutability": "view",
      "type": "function"
    },
    {
      "inputs": [
        {
          "internalType": "uint256",
          "name": "index",
          "type": "uint256"
        }
      ],
      "name": "tokenByIndex",
      "outputs": [
        {
          "internalType": "uint256",
          "name": "",
          "type": "uint256"
        }
      ],
      "stateMutability": "view",
      "type": "function"
    },
    {
      "inputs": [
        {
          "internalType": "address",
          "name": "owner",
          "type": "address"
        },
        {
          "internalType": "uint256",
          "name": "index",
          "type": "uint256"
        }
      ],
      "name": "tokenOfOwnerByIndex",
      "outputs": [
        {
          "internalType": "uint256",
          "name": "",
          "type": "uint256"
        }
      ],
      "stateMutability": "view",
      "type": "function"
    },
    {
      "inputs": [
        {
          "internalType": "uint256",
          "name": "tokenId",
          "type": "uint256"
        }
      ],
      "name": "tokenURI",
      "outputs": [
        {
          "internalType": "string",
          "name": "",
          "type": "string"
        }
      ],
      "stateMutability": "view",
      "type": "function"
    },
    {
      "inputs": [],
      "name": "totalSupply",
      "outputs": [
        {
          "internalType": "uint256",
          "name": "",
          "type": "uint256"
        }
      ],
      "stateMutability": "view",
      "type": "function"
    },
    {
      "inputs": [
        {
          "internalType": "address",
          "name": "from",
          "type": "address"
        },
        {
          "internalType": "address",
          "name": "to",
          "type": "address"
        },
        {
          "internalType": "uint256",
          "name": "tokenId",
          "type": "uint256"
        }
      ],
      "name": "transferFrom",
      "outputs": [],
      "stateMutability": "nonpayable",
      "type": "function"
    },
    {
      "inputs": [
        {
          "internalType": "uint256",
          "name": "amountMinimum",
          "type": "uint256"
        },
        {
          "internalType": "address",
          "name": "recipient",
          "type": "address"
        }
      ],
      "name": "unwrapWNativeToken",
      "outputs": [],
      "stateMutability": "payable",
      "type": "function"
    },
    {
      "stateMutability": "payable",
      "type": "receive"
    }
  ],
  "transactionHash": "0x408f548271710cb902167d6484547d89a1794cc58954eccd3778463eef21908d",
  "args": [
    "0xdbBf7cB1ee1ad2FD3F6e8Db99208D2851e27DdA4",
    "0xEF00C455678C40F14874bAe72fF6be23dD522F23",
    "0xAD164822576740906a505233c463cb76b7640e41"
  ],
  "numDeployments": 1,
  "solcInputHash": "af1e25196c88cc445d76cace2cd3d30d",
  "bytecode": "0x610120604052760100000000000000000000000000000000000000000001600d553480156200002d57600080fd5b506040516200581d3803806200581d833981016040819052620000509162000141565b8282826040518060400160405280601b81526020017f416c6765627261204c696d6974204f7264657273204e46542d563100000000008152506040518060400160405280600a815260200169105311d08b531253525560b21b815250604051806040016040528060018152602001603160f81b81525082828160009081620000d9919062000230565b506001620000e8828262000230565b5050835160209485012060805250805192019190912060a052506001600160a01b0392831660c052821660e052166101005250620002fc915050565b80516001600160a01b03811681146200013c57600080fd5b919050565b6000806000606084860312156200015757600080fd5b620001628462000124565b9250620001726020850162000124565b9150620001826040850162000124565b90509250925092565b634e487b7160e01b600052604160045260246000fd5b600181811c90821680620001b657607f821691505b602082108103620001d757634e487b7160e01b600052602260045260246000fd5b50919050565b601f8211156200022b57600081815260208120601f850160051c81016020861015620002065750805b601f850160051c820191505b81811015620002275782815560010162000212565b5050505b505050565b81516001600160401b038111156200024c576200024c6200018b565b62000264816200025d8454620001a1565b84620001dd565b602080601f8311600181146200029c5760008415620002835750858301515b600019600386901b1c1916600185901b17855562000227565b600085815260208120601f198616915b82811015620002cd57888601518255948401946001909101908401620002ac565b5085821015620002ec5787850151600019600388901b60f8161c191681555b5050505050600190811b01905550565b60805160a05160c05160e05161010051615488620003956000396000818161027e0152818161066c0152818161128e01528181611388015281816131ad015281816131f301526132a101526000818161044b01528181610c5301528181611d3201528181611e9301526125dc015260006107890152600081816104c3015261152b0152600081816104a2015261150a01526154886000f3fe60806040526004361061026e5760003560e01c806369bc35b211610153578063b88d4fde116100cb578063c45a01551161007f578063df2ab5bb11610064578063df2ab5bb146107cb578063e985e9c5146107de578063f3995c671461082757600080fd5b8063c45a015514610777578063c87b56dd146107ab57600080fd5b8063ba8e6f2f116100b0578063ba8e6f2f1461073e578063c23a91ed14610751578063c2e3140a1461076457600080fd5b8063b88d4fde146106f6578063b96f32851461071657600080fd5b80638af3ac8511610122578063a22cb46511610107578063a22cb465146106a3578063a4a78f0c146106c3578063ac9650d8146106d657600080fd5b80638af3ac851461065a57806395d89b411461068e57600080fd5b806369bc35b2146106005780636c0360eb1461061357806370a08231146106275780637ac2ff7b1461064757600080fd5b80633644e515116101e657806342966c68116101b55780634f6ccce71161019a5780634f6ccce7146105915780636352211e146105b1578063689b5f4f146105d157600080fd5b806342966c681461056b5780634659a4941461057e57600080fd5b80633644e5151461046d5780633dd657c514610523578063418652701461054357806342842e0e1461054b57600080fd5b806318160ddd1161023d5780632f745c59116102225780632f745c59146103e557806330adf81f146104055780633119049a1461043957600080fd5b806318160ddd146103a657806323b872dd146103c557600080fd5b806301ffc9a7146102f757806306fdde031461032c578063081812fc1461034e578063095ea7b31461038657600080fd5b366102f257336001600160a01b037f000000000000000000000000000000000000000000000000000000000000000016146102f05760405162461bcd60e51b815260206004820152601060248201527f4e6f7420574e6174697665546f6b656e0000000000000000000000000000000060448201526064015b60405180910390fd5b005b600080fd5b34801561030357600080fd5b5061031761031236600461485f565b61083a565b60405190151581526020015b60405180910390f35b34801561033857600080fd5b50610341610896565b60405161032391906148cc565b34801561035a57600080fd5b5061036e6103693660046148df565b610928565b6040516001600160a01b039091168152602001610323565b34801561039257600080fd5b506102f06103a1366004614914565b6109de565b3480156103b257600080fd5b506008545b604051908152602001610323565b3480156103d157600080fd5b506102f06103e036600461493e565b610b0f565b3480156103f157600080fd5b506103b7610400366004614914565b610b96565b34801561041157600080fd5b506103b77f49ecf333e5b8c95c40fdafc95c1ad136e8914a8fb55e9dc8bb01eaa83a2df9ad81565b34801561044557600080fd5b5061036e7f000000000000000000000000000000000000000000000000000000000000000081565b34801561047957600080fd5b506103b760007f8b73c3c69bb8fe3d512ecc4cf759cc79239f7b179b0ffacaa9a75d522b39400f7f00000000000000000000000000000000000000000000000000000000000000007f000000000000000000000000000000000000000000000000000000000000000046604080516020810195909552840192909252606083015260808201523060a082015260c00160405160208183030381529060405280519060200120905090565b34801561052f57600080fd5b506102f061053e36600461497a565b610c3e565b6102f0610cbc565b34801561055757600080fd5b506102f061056636600461493e565b610cce565b6102f06105793660046148df565b610ce9565b6102f061058c3660046149fa565b610e8b565b34801561059d57600080fd5b506103b76105ac3660046148df565b610f39565b3480156105bd57600080fd5b5061036e6105cc3660046148df565b610fdd565b3480156105dd57600080fd5b506105f16105ec3660046148df565b611068565b60405161032393929190614a5a565b6102f061060e366004614b8d565b61125d565b34801561061f57600080fd5b506060610341565b34801561063357600080fd5b506103b7610642366004614bb9565b6113f6565b6102f06106553660046149fa565b611490565b34801561066657600080fd5b5061036e7f000000000000000000000000000000000000000000000000000000000000000081565b34801561069a57600080fd5b506103416119ad565b3480156106af57600080fd5b506102f06106be366004614be2565b6119bc565b6102f06106d13660046149fa565b6119cb565b6106e96106e4366004614c19565b611a72565b6040516103239190614c8e565b34801561070257600080fd5b506102f0610711366004614da6565b611bca565b610729610724366004614b8d565b611c58565b60408051928352602083019190915201610323565b6103b761074c366004614e51565b611e41565b6102f061075f366004614e7e565b61248c565b6102f06107723660046149fa565b612c04565b34801561078357600080fd5b5061036e7f000000000000000000000000000000000000000000000000000000000000000081565b3480156107b757600080fd5b506103416107c63660046148df565b612ca1565b6102f06107d9366004614ea3565b612d97565b3480156107ea57600080fd5b506103176107f9366004614edf565b6001600160a01b03918216600090815260056020908152604080832093909416825291909152205460ff1690565b6102f06108353660046149fa565b612e7e565b60007fffffffff0000000000000000000000000000000000000000000000000000000082167f780e9d63000000000000000000000000000000000000000000000000000000001480610890575061089082612eee565b92915050565b6060600080546108a590614f09565b80601f01602080910402602001604051908101604052809291908181526020018280546108d190614f09565b801561091e5780601f106108f35761010080835404028352916020019161091e565b820191906000526020600020905b81548152906001019060200180831161090157829003601f168201915b5050505050905090565b6000818152600260205260408120546001600160a01b03166109b25760405162461bcd60e51b815260206004820152602c60248201527f4552433732313a20617070726f76656420717565727920666f72206e6f6e657860448201527f697374656e7420746f6b656e000000000000000000000000000000000000000060648201526084016102e7565b506000908152600c60205260409020546c0100000000000000000000000090046001600160a01b031690565b60006109e982610fdd565b9050806001600160a01b0316836001600160a01b031603610a725760405162461bcd60e51b815260206004820152602160248201527f4552433732313a20617070726f76616c20746f2063757272656e74206f776e6560448201527f720000000000000000000000000000000000000000000000000000000000000060648201526084016102e7565b336001600160a01b0382161480610a8e5750610a8e81336107f9565b610b005760405162461bcd60e51b815260206004820152603860248201527f4552433732313a20617070726f76652063616c6c6572206973206e6f74206f7760448201527f6e6572206e6f7220617070726f76656420666f7220616c6c000000000000000060648201526084016102e7565b610b0a8383612fd1565b505050565b610b193382613055565b610b8b5760405162461bcd60e51b815260206004820152603160248201527f4552433732313a207472616e736665722063616c6c6572206973206e6f74206f60448201527f776e6572206e6f7220617070726f76656400000000000000000000000000000060648201526084016102e7565b610b0a83838361315d565b6000610ba1836113f6565b8210610c155760405162461bcd60e51b815260206004820152602b60248201527f455243373231456e756d657261626c653a206f776e657220696e646578206f7560448201527f74206f6620626f756e647300000000000000000000000000000000000000000060648201526084016102e7565b506001600160a01b03919091166000908152600660209081526040808320938352929052205490565b6000610c4c82840184614f3d565b9050610c7c7f00000000000000000000000000000000000000000000000000000000000000008260000151613188565b508415610c97578051516020820151610c97919033886131ab565b8315610cb557610cb5816000015160200151826020015133876131ab565b5050505050565b4715610ccc57610ccc3347613344565b565b610b0a83838360405180602001604052806000815250611bca565b80610cf43382613055565b610d405760405162461bcd60e51b815260206004820152600c60248201527f4e6f7420617070726f766564000000000000000000000000000000000000000060448201526064016102e7565b6000828152600c6020526040902060018101546a010000000000000000000090046001600160801b0316158015610d82575060068101546001600160801b0316155b8015610da057506006810154600160801b90046001600160801b0316155b610dec5760405162461bcd60e51b815260206004820152600b60248201527f4e6f7420636c656172656400000000000000000000000000000000000000000060448201526064016102e7565b6000838152600c602052604081208181556001810180547fffffffffffff000000000000000000000000000000000000000000000000000016905560028101805473ffffffffffffffffffffffffffffffffffffffff191690556003810180547fffffffffffffffffffffffffffffffff00000000000000000000000000000000169055600481018290556005810182905560060155610b0a83613401565b6040517f8fcbaf0c00000000000000000000000000000000000000000000000000000000815233600482015230602482015260448101869052606481018590526001608482015260ff841660a482015260c4810183905260e481018290526001600160a01b03871690638fcbaf0c90610104015b600060405180830381600087803b158015610f1957600080fd5b505af1158015610f2d573d6000803e3d6000fd5b50505050505050505050565b6000610f4460085490565b8210610fb85760405162461bcd60e51b815260206004820152602c60248201527f455243373231456e756d657261626c653a20676c6f62616c20696e646578206f60448201527f7574206f6620626f756e6473000000000000000000000000000000000000000060648201526084016102e7565b60088281548110610fcb57610fcb614fa8565b90600052602060002001549050919050565b6000818152600260205260408120546001600160a01b0316806108905760405162461bcd60e51b815260206004820152602960248201527f4552433732313a206f776e657220717565727920666f72206e6f6e657869737460448201527f656e7420746f6b656e000000000000000000000000000000000000000000000060648201526084016102e7565b6040805161018081018252600080825260208201819052918101829052606081018290526080810182905260a0810182905260c0810182905260e08101829052610100810182905261012081018290526101408101829052610160810191909152506000818152600c6020908152604080832081516101808101835281546bffffffffffffffffffffffff811682526c0100000000000000000000000090046001600160a01b031693810193909352600181015469ffffffffffffffffffff81169284018390526a010000000000000000000090046001600160801b0390811660608501526002808301548083166080870152600160801b80820490920b60a0870152600160981b900460ff16151560c08601526003830154821660e08601526004830154610100860152600583015461012086015260069092015480821661014086015291909104166101608301529091908190810361120b5760405162461bcd60e51b815260206004820152601060248201527f496e76616c696420746f6b656e2049440000000000000000000000000000000060448201526064016102e7565b505060408082015169ffffffffffffffffffff166000908152600b602090815290829020825180840190935280546001600160a01b039081168085526001909201541692909101829052909193909250565b6040517f70a082310000000000000000000000000000000000000000000000000000000081523060048201526000907f00000000000000000000000000000000000000000000000000000000000000006001600160a01b0316906370a0823190602401602060405180830381865afa1580156112dd573d6000803e3d6000fd5b505050506040513d601f19601f820116820180604052508101906113019190614fbe565b9050828110156113535760405162461bcd60e51b815260206004820152601960248201527f496e73756666696369656e7420574e6174697665546f6b656e0000000000000060448201526064016102e7565b8015610b0a576040517f2e1a7d4d000000000000000000000000000000000000000000000000000000008152600481018290527f00000000000000000000000000000000000000000000000000000000000000006001600160a01b031690632e1a7d4d90602401600060405180830381600087803b1580156113d457600080fd5b505af11580156113e8573d6000803e3d6000fd5b50505050610b0a8282613344565b60006001600160a01b0382166114745760405162461bcd60e51b815260206004820152602a60248201527f4552433732313a2062616c616e636520717565727920666f7220746865207a6560448201527f726f20616464726573730000000000000000000000000000000000000000000060648201526084016102e7565b506001600160a01b031660009081526003602052604090205490565b834211156114e05760405162461bcd60e51b815260206004820152600e60248201527f5065726d6974206578706972656400000000000000000000000000000000000060448201526064016102e7565b600061158b60007f8b73c3c69bb8fe3d512ecc4cf759cc79239f7b179b0ffacaa9a75d522b39400f7f00000000000000000000000000000000000000000000000000000000000000007f000000000000000000000000000000000000000000000000000000000000000046604080516020810195909552840192909252606083015260808201523060a082015260c00160405160208183030381529060405280519060200120905090565b6000878152600c6020526040902080546bffffffffffffffffffffffff19811660016bffffffffffffffffffffffff928316908101909216179091557f49ecf333e5b8c95c40fdafc95c1ad136e8914a8fb55e9dc8bb01eaa83a2df9ad90899089906040805160208101959095526001600160a01b03909316928401929092526060830152608082015260a0810187905260c001604051602081830303815290604052805190602001206040516020016116779291907f190100000000000000000000000000000000000000000000000000000000000081526002810192909252602282015260420190565b604051602081830303815290604052805190602001209050600061169a87610fdd565b9050806001600160a01b0316886001600160a01b0316036117235760405162461bcd60e51b815260206004820152602760248201527f4552433732315065726d69743a20617070726f76616c20746f2063757272656e60448201527f74206f776e65720000000000000000000000000000000000000000000000000060648201526084016102e7565b6001600160a01b0381163b1561187f57604080516020810186905280820185905260f887901b7fff000000000000000000000000000000000000000000000000000000000000001660608201528151604181830301815260618201928390527f1626ba7e000000000000000000000000000000000000000000000000000000009092526001600160a01b03831691631626ba7e916117c5918691606501614fd7565b602060405180830381865afa1580156117e2573d6000803e3d6000fd5b505050506040513d601f19601f820116820180604052508101906118069190614ff0565b7bffffffffffffffffffffffffffffffffffffffffffffffffffffffff1916631626ba7e60e01b1461187a5760405162461bcd60e51b815260206004820152600c60248201527f556e617574686f72697a6564000000000000000000000000000000000000000060448201526064016102e7565b611999565b6040805160008082526020820180845285905260ff881692820192909252606081018690526080810185905260019060a0016020604051602081039080840390855afa1580156118d3573d6000803e3d6000fd5b5050604051601f1901519150506001600160a01b0381166119365760405162461bcd60e51b815260206004820152601160248201527f496e76616c6964207369676e617475726500000000000000000000000000000060448201526064016102e7565b816001600160a01b0316816001600160a01b0316146119975760405162461bcd60e51b815260206004820152600c60248201527f556e617574686f72697a6564000000000000000000000000000000000000000060448201526064016102e7565b505b6119a38888612fd1565b5050505050505050565b6060600180546108a590614f09565b6119c73383836134b5565b5050565b6040517fdd62ed3e000000000000000000000000000000000000000000000000000000008152336004820152306024820152600019906001600160a01b0388169063dd62ed3e90604401602060405180830381865afa158015611a32573d6000803e3d6000fd5b505050506040513d601f19601f82011682018060405250810190611a569190614fbe565b1015611a6a57611a6a868686868686610e8b565b505050505050565b60608167ffffffffffffffff811115611a8d57611a8d614d0e565b604051908082528060200260200182016040528015611ac057816020015b6060815260200190600190039081611aab5790505b50905060005b82811015611bc35760008030868685818110611ae457611ae4614fa8565b9050602002810190611af6919061500d565b604051611b04929190615079565b600060405180830381855af49150503d8060008114611b3f576040519150601f19603f3d011682016040523d82523d6000602084013e611b44565b606091505b509150915081611b9057604481511015611b5d57600080fd5b60048101905080806020019051810190611b779190615089565b60405162461bcd60e51b81526004016102e791906148cc565b80848481518110611ba357611ba3614fa8565b602002602001018190525050508080611bbb90615116565b915050611ac6565b5092915050565b611bd43383613055565b611c465760405162461bcd60e51b815260206004820152603160248201527f4552433732313a207472616e736665722063616c6c6572206973206e6f74206f60448201527f776e6572206e6f7220617070726f76656400000000000000000000000000000060648201526084016102e7565b611c52848484846135a1565b50505050565b60008083611c663382613055565b611cb25760405162461bcd60e51b815260206004820152600c60248201527f4e6f7420617070726f766564000000000000000000000000000000000000000060448201526064016102e7565b6001600160a01b03841615611cc75783611cc9565b305b6000868152600c6020908152604080832060028082015460018084015469ffffffffffffffffffff168752600b8652848720855180870190965280546001600160a01b039081168752910154169484019490945294985093600160801b90920490910b91611d577f00000000000000000000000000000000000000000000000000000000000000008361362a565b60068501546040517f4f1eb3d80000000000000000000000000000000000000000000000000000000081526001600160a01b038b81166004830152600287900b6024830181905260448301526001600160801b0380841660648401819052600160801b9094041660848301819052939450919291841690634f1eb3d89060a40160408051808303816000875af1158015611df5573d6000803e3d6000fd5b505050506040513d601f19601f82011682018060405250810190611e199190615130565b60006006909801979097556001600160801b039081169c96169a509498505050505050505050565b60408051808201909152600090819080611e5e6020860186614bb9565b6001600160a01b03168152602001846020016020810190611e7f9190614bb9565b6001600160a01b0316905290506000611eb87f00000000000000000000000000000000000000000000000000000000000000008361362a565b90506000611ef630611ed060a088016080890161515f565b611ee060a0890160808a0161515f565b601892831b62ffffff9283161790921b91161790565b90506000806000846001600160a01b031663514ea4bf856040518263ffffffff1660e01b8152600401611f2b91815260200190565b60a060405180830381865afa158015611f48573d6000803e3d6000fd5b505050506040513d601f19601f82011682018060405250810190611f6c9190615182565b505050608082901c945090925060009150611fc5905085611f9060208b018b614bb9565b611fa060408c0160208d01614bb9565b611fb060a08d0160808e0161515f565b611fc060808e0160608f016151d9565b613778565b600d805491925061205a91339175ffffffffffffffffffffffffffffffffffffffffffff909116906000611ff8836151f6565b91906101000a81548175ffffffffffffffffffffffffffffffffffffffffffff021916908375ffffffffffffffffffffffffffffffffffffffffffff16021790555075ffffffffffffffffffffffffffffffffffffffffffff16985088613878565b600061206686886139d3565b90506000806000886001600160a01b031663514ea4bf896040518263ffffffff1660e01b815260040161209b91815260200190565b60a060405180830381865afa1580156120b8573d6000803e3d6000fd5b505050506040513d601f19601f820116820180604052508101906120dc9190615182565b5050925092509250600080608085901c91508490508d6040016020810190612104919061522b565b1515871515146121565760405162461bcd60e51b815260206004820152601660248201527f6465706f7369746564546f6b656e206368616e6765640000000000000000000060448201526064016102e7565b806001600160801b0316826001600160801b03161415801561218057506001600160801b03891615155b156121965761218f8882615248565b90506121ac565b8d60600160208101906121a991906151d9565b90505b60405180610180016040528060006bffffffffffffffffffffffff16815260200160006001600160a01b031681526020018769ffffffffffffffffffff1681526020018f606001602081019061220291906151d9565b6001600160801b03168152602001826001600160801b031681526020018f6080016020810190612232919061515f565b60020b815260200188151581526020018f606001602081019061225591906151d9565b6001600160801b0316815260200185815260200184815260200160006001600160801b0316815260200160006001600160801b0316815250600c60008f815260200190815260200160002060008201518160000160006101000a8154816bffffffffffffffffffffffff02191690836bffffffffffffffffffffffff160217905550602082015181600001600c6101000a8154816001600160a01b0302191690836001600160a01b0316021790555060408201518160010160006101000a81548169ffffffffffffffffffff021916908369ffffffffffffffffffff160217905550606082015181600101600a6101000a8154816001600160801b0302191690836001600160801b0316021790555060808201518160020160006101000a8154816001600160801b0302191690836001600160801b0316021790555060a08201518160020160106101000a81548162ffffff021916908360020b62ffffff16021790555060c08201518160020160136101000a81548160ff02191690831515021790555060e08201518160030160006101000a8154816001600160801b0302191690836001600160801b03160217905550610100820151816004015561012082015181600501556101408201518160060160006101000a8154816001600160801b0302191690836001600160801b031602179055506101608201518160060160106101000a8154816001600160801b0302191690836001600160801b03160217905550905050505050505050505050505050919050565b816124973382613055565b6124e35760405162461bcd60e51b815260206004820152600c60248201527f4e6f7420617070726f766564000000000000000000000000000000000000000060448201526064016102e7565b6000838152600c602090815260408083208151608081018352848152928301849052908201839052606082019290925260018201546a010000000000000000000090046001600160801b031660008190036125805760405162461bcd60e51b815260206004820152600e60248201527f456d70747920706f736974696f6e00000000000000000000000000000000000060448201526064016102e7565b60028084015460018086015469ffffffffffffffffffff166000908152600b60209081526040808320815180830190925280546001600160a01b03908116835294015490931690830152600160801b90920490920b91906126017f00000000000000000000000000000000000000000000000000000000000000008361362a565b9050600062ffffff841630601890811b8217901b1790506000806000846001600160a01b031663514ea4bf856040518263ffffffff1660e01b815260040161264b91815260200190565b60a060405180830381865afa158015612668573d6000803e3d6000fd5b505050506040513d601f19601f8201168201806040525081019061268c9190615182565b505060608c015260408b0152608081901c60208b01819052909350839150156128075788602001516001600160801b03168c6001600160801b031611156126d55788602001519b505b6040517fa34123a7000000000000000000000000000000000000000000000000000000008152600288900b6004820181905260248201526001600160801b038d1660448201526001600160a01b0386169063a34123a79060640160408051808303816000875af115801561274d573d6000803e3d6000fd5b505050506040513d601f19601f820116820180604052508101906127719190615268565b50506040517f514ea4bf000000000000000000000000000000000000000000000000000000008152600481018590526001600160a01b0386169063514ea4bf9060240160a060405180830381865afa1580156127d1573d6000803e3d6000fd5b505050506040513d601f19601f820116820180604052508101906127f59190615182565b505060608c015260408b015291508190505b60028a0154600160981b900460ff1615612836578960040154896040015161282f919061528c565b895261284d565b8960050154896060015161284a919061528c565b89525b885115612a0557885160028b0154600091612875916001600160801b0316600160801b613aee565b905060008060006128858b613b87565b6001600160a01b0316905060006128a482836601000000000000613aee565b90508e60020160139054906101000a900460ff166128d6578072010000000000000000000000000000000000006128ec565b7201000000000000000000000000000000000000815b90945092506000915061290b90506001600160801b038d168484613aee565b90508084106129205780935060009b50612937565b61293461292d858361528c565b8385613aee565b9b505b60028e0154600160981b900460ff16156129a55760408d015160048f015583156129a05760068e01805485919060009061297b9084906001600160801b031661529f565b92506101000a8154816001600160801b0302191690836001600160801b031602179055505b612a00565b60608d015160058f01558315612a0057838e60060160108282829054906101000a90046001600160801b03166129db919061529f565b92506101000a8154816001600160801b0302191690836001600160801b031602179055505b505050505b6001600160801b038c1615612b2b578b6001600160801b0316886001600160801b03161015612a765760405162461bcd60e51b815260206004820152601860248201527f496e76616c6964206c697175696469747920616d6f756e74000000000000000060448201526064016102e7565b612a808c89615248565b60028b0154909850600160981b900460ff1615612ae6578b8a60060160108282829054906101000a90046001600160801b0316612abd919061529f565b92506101000a8154816001600160801b0302191690836001600160801b03160217905550612b2b565b60068a0180548d9190600090612b069084906001600160801b031661529f565b92506101000a8154816001600160801b0302191690836001600160801b031602179055505b60018a0180547fffffffffffff00000000000000000000000000000000ffffffffffffffffffff166a01000000000000000000006001600160801b038b1690810291909117909155600003612ba95760028a0180547fffffffffffffffffffffffffffffffff00000000000000000000000000000000169055612bf5565b612bb38284615248565b60028b018054600090612bd09084906001600160801b0316615248565b92506101000a8154816001600160801b0302191690836001600160801b031602179055505b50505050505050505050505050565b6040517fdd62ed3e00000000000000000000000000000000000000000000000000000000815233600482015230602482015285906001600160a01b0388169063dd62ed3e90604401602060405180830381865afa158015612c69573d6000803e3d6000fd5b505050506040513d601f19601f82011682018060405250810190612c8d9190614fbe565b1015611a6a57611a6a868686868686612e7e565b6000818152600260205260409020546060906001600160a01b0316612d2e5760405162461bcd60e51b815260206004820152602f60248201527f4552433732314d657461646174613a2055524920717565727920666f72206e6f60448201527f6e6578697374656e7420746f6b656e000000000000000000000000000000000060648201526084016102e7565b6000612d4560408051602081019091526000815290565b90506000815111612d655760405180602001604052806000815250612d90565b80612d6f84613e9f565b604051602001612d809291906152bf565b6040516020818303038152906040525b9392505050565b6040517f70a082310000000000000000000000000000000000000000000000000000000081523060048201526000906001600160a01b038516906370a0823190602401602060405180830381865afa158015612df7573d6000803e3d6000fd5b505050506040513d601f19601f82011682018060405250810190612e1b9190614fbe565b905082811015612e6d5760405162461bcd60e51b815260206004820152601260248201527f496e73756666696369656e7420746f6b656e000000000000000000000000000060448201526064016102e7565b8015611c5257611c52848383613fd4565b6040517fd505accf000000000000000000000000000000000000000000000000000000008152336004820152306024820152604481018690526064810185905260ff8416608482015260a4810183905260c481018290526001600160a01b0387169063d505accf9060e401610eff565b60007fffffffff0000000000000000000000000000000000000000000000000000000082167f80ac58cd000000000000000000000000000000000000000000000000000000001480612f8157507fffffffff0000000000000000000000000000000000000000000000000000000082167f5b5e139f00000000000000000000000000000000000000000000000000000000145b8061089057507f01ffc9a7000000000000000000000000000000000000000000000000000000007fffffffff00000000000000000000000000000000000000000000000000000000831614610890565b6000818152600c6020526040902080546bffffffffffffffffffffffff166c010000000000000000000000006001600160a01b03851690810291909117909155819061301c82610fdd565b6001600160a01b03167f8c5be1e5ebec7d5bd14f71427d1e84f3dd0314c0f7b2291e5b200ac8c7c3b92560405160405180910390a45050565b6000818152600260205260408120546001600160a01b03166130df5760405162461bcd60e51b815260206004820152602c60248201527f4552433732313a206f70657261746f7220717565727920666f72206e6f6e657860448201527f697374656e7420746f6b656e000000000000000000000000000000000000000060648201526084016102e7565b60006130ea83610fdd565b9050806001600160a01b0316846001600160a01b0316148061313157506001600160a01b0380821660009081526005602090815260408083209388168352929052205460ff165b806131555750836001600160a01b031661314a84610928565b6001600160a01b0316145b949350505050565b6000818152600c6020526040902080546bffffffffffffffffffffffff169055610b0a838383614116565b6000613194838361362a565b9050336001600160a01b0382161461089057600080fd5b7f00000000000000000000000000000000000000000000000000000000000000006001600160a01b0316846001600160a01b03161480156131ec5750804710155b15613318577f00000000000000000000000000000000000000000000000000000000000000006001600160a01b031663d0e30db0826040518263ffffffff1660e01b81526004016000604051808303818588803b15801561324c57600080fd5b505af1158015613260573d6000803e3d6000fd5b50506040517fa9059cbb0000000000000000000000000000000000000000000000000000000081526001600160a01b038681166004830152602482018690527f000000000000000000000000000000000000000000000000000000000000000016935063a9059cbb925060440190506020604051808303816000875af11580156132ee573d6000803e3d6000fd5b505050506040513d601f19601f8201168201806040525081019061331291906152ee565b50611c52565b306001600160a01b0384160361333857613333848383613fd4565b611c52565b611c52848484846142fb565b604080516000808252602082019092526001600160a01b03841690839060405161336e919061530b565b60006040518083038185875af1925050503d80600081146133ab576040519150601f19603f3d011682016040523d82523d6000602084013e6133b0565b606091505b5050905080610b0a5760405162461bcd60e51b815260206004820152600360248201527f535445000000000000000000000000000000000000000000000000000000000060448201526064016102e7565b600061340c82610fdd565b905061341a81600084614445565b613425600083612fd1565b6001600160a01b038116600090815260036020526040812080546001929061344e90849061528c565b9091555050600082815260026020526040808220805473ffffffffffffffffffffffffffffffffffffffff19169055518391906001600160a01b038416907fddf252ad1be2c89b69c2b068fc378daa952ba7f163c4a11628f55a4df523b3ef908390a45050565b816001600160a01b0316836001600160a01b0316036135165760405162461bcd60e51b815260206004820152601960248201527f4552433732313a20617070726f766520746f2063616c6c65720000000000000060448201526064016102e7565b6001600160a01b0383811660008181526005602090815260408083209487168084529482529182902080547fffffffffffffffffffffffffffffffffffffffffffffffffffffffffffffff001686151590811790915591519182527f17307eab39ab6107e8899845ad3d59bd9653f200f220920489ca2b5937696c31910160405180910390a3505050565b6135ac84848461315d565b6135b8848484846144fd565b611c525760405162461bcd60e51b815260206004820152603260248201527f4552433732313a207472616e7366657220746f206e6f6e20455243373231526560448201527f63656976657220696d706c656d656e746572000000000000000000000000000060648201526084016102e7565b600081602001516001600160a01b031682600001516001600160a01b0316106136955760405162461bcd60e51b815260206004820152601760248201527f496e76616c6964206f72646572206f6620746f6b656e7300000000000000000060448201526064016102e7565b82826000015183602001516040516020016136c69291906001600160a01b0392831681529116602082015260400190565b60408051601f19818403018152908290528051602091820120613759939290917ffb470dd52f1744c73f958b0d8756c3864c1ff3958598537bdd9f8733de44494791017fff00000000000000000000000000000000000000000000000000000000000000815260609390931b6bffffffffffffffffffffffff191660018401526015830191909152603582015260550190565b60408051601f1981840301815291905280516020909101209392505050565b6040805180820182526001600160a01b03868116825285811660208084019182528451808601865284815233908201818152865186518616938101939093529251841682870152915183166060808301919091528551808303909101815260808201958690527faafe29c00000000000000000000000000000000000000000000000000000000090955260009485938b169263aafe29c0926138259230918b9182918c9190608401615327565b6060604051808303816000875af1158015613844573d6000803e3d6000fd5b505050506040513d601f19601f820116820180604052508101906138689190615380565b5015159998505050505050505050565b6001600160a01b0382166138ce5760405162461bcd60e51b815260206004820181905260248201527f4552433732313a206d696e7420746f20746865207a65726f206164647265737360448201526064016102e7565b6000818152600260205260409020546001600160a01b0316156139335760405162461bcd60e51b815260206004820152601c60248201527f4552433732313a20746f6b656e20616c7265616479206d696e7465640000000060448201526064016102e7565b61393f60008383614445565b6001600160a01b03821660009081526003602052604081208054600192906139689084906153b9565b9091555050600081815260026020526040808220805473ffffffffffffffffffffffffffffffffffffffff19166001600160a01b03861690811790915590518392907fddf252ad1be2c89b69c2b068fc378daa952ba7f163c4a11628f55a4df523b3ef908290a45050565b6001600160a01b0382166000908152600a602052604081205469ffffffffffffffffffff169081900361089057600d8054760100000000000000000000000000000000000000000000900469ffffffffffffffffffff16906016613a36836153cc565b82546101009290920a69ffffffffffffffffffff8181021990931691831602179091556001600160a01b039485166000908152600a6020908152604080832080547fffffffffffffffffffffffffffffffffffffffffffff00000000000000000000169486169485179055928252600b81529190208451815473ffffffffffffffffffffffffffffffffffffffff19908116918816919091178255949091015160019190910180549094169416939093179091555090565b60008383028160001985870982811083820303915050808411613b1057600080fd5b80600003613b2357508290049050612d90565b8385870960008581038616958690049560026003880281188089028203028089028203028089028203028089028203028089028203028089029091030291819003819004600101858411909403939093029190930391909104170290509392505050565b6000600282900b60171d62ffffff81841882900316620d89e8811115613bd9576040517f3c10250f00000000000000000000000000000000000000000000000000000000815260040160405180910390fd5b600081600116600003613bf057600160801b613c02565b6ffffcb933bd6fad37aa2d162d1a5940015b70ffffffffffffffffffffffffffffffffff1690506002821615613c36576ffff97272373d413259a46990580e213a0260801c5b6004821615613c55576ffff2e50f5f656932ef12357cf3c7fdcc0260801c5b6008821615613c74576fffe5caca7e10e4e61c3624eaa0941cd00260801c5b6010821615613c93576fffcb9843d60f6159c9db58835c9266440260801c5b6020821615613cb2576fff973b41fa98c081472e6896dfb254c00260801c5b6040821615613cd1576fff2ea16466c96a3843ec78b326b528610260801c5b6080821615613cf0576ffe5dee046a99a2a811c461f1969c30530260801c5b610100821615613d10576ffcbe86c7900a88aedcffc83b479aa3a40260801c5b610200821615613d30576ff987a7253ac413176f2b074cf7815e540260801c5b610400821615613d50576ff3392b0822b70005940c7a398e4b70f30260801c5b610800821615613d70576fe7159475a2c29b7443b29c7fa6e889d90260801c5b611000821615613d90576fd097f3bdfd2022b8845ad8f792aa58250260801c5b612000821615613db0576fa9f746462d870fdf8a65dc1f90e061e50260801c5b614000821615613dd0576f70d869a156d2a1b890bb3df62baf32f70260801c5b618000821615613df0576f31be135f97d08fd981231505542fcfa60260801c5b62010000821615613e11576f09aa508b5b7a84e1c677de54f3e99bc90260801c5b62020000821615613e31576e5d6af8dedb81196699c329225ee6040260801c5b62040000821615613e50576d2216e584f5fa1ea926041bedfe980260801c5b62080000821615613e6d576b048a170391f7dc42444e8fa20260801c5b60008560020b1315613e8e578060001981613e8a57613e8a6153eb565b0490505b63ffffffff0160201c949350505050565b606081600003613ee257505060408051808201909152600181527f3000000000000000000000000000000000000000000000000000000000000000602082015290565b8160005b8115613f0c5780613ef681615116565b9150613f059050600a83615401565b9150613ee6565b60008167ffffffffffffffff811115613f2757613f27614d0e565b6040519080825280601f01601f191660200182016040528015613f51576020820181803683370190505b5090505b841561315557613f6660018361528c565b9150613f73600a86615415565b613f7e9060306153b9565b60f81b818381518110613f9357613f93614fa8565b60200101907effffffffffffffffffffffffffffffffffffffffffffffffffffffffffffff1916908160001a905350613fcd600a86615401565b9450613f55565b604080516001600160a01b038481166024830152604480830185905283518084039091018152606490920183526020820180517bffffffffffffffffffffffffffffffffffffffffffffffffffffffff167fa9059cbb00000000000000000000000000000000000000000000000000000000179052915160009283929087169161405e919061530b565b6000604051808303816000865af19150503d806000811461409b576040519150601f19603f3d011682016040523d82523d6000602084013e6140a0565b606091505b50915091508180156140ca5750805115806140ca5750808060200190518101906140ca91906152ee565b610cb55760405162461bcd60e51b815260206004820152600260248201527f535400000000000000000000000000000000000000000000000000000000000060448201526064016102e7565b826001600160a01b031661412982610fdd565b6001600160a01b0316146141a55760405162461bcd60e51b815260206004820152602560248201527f4552433732313a207472616e736665722066726f6d20696e636f72726563742060448201527f6f776e657200000000000000000000000000000000000000000000000000000060648201526084016102e7565b6001600160a01b0382166142205760405162461bcd60e51b8152602060048201526024808201527f4552433732313a207472616e7366657220746f20746865207a65726f2061646460448201527f726573730000000000000000000000000000000000000000000000000000000060648201526084016102e7565b61422b838383614445565b614236600082612fd1565b6001600160a01b038316600090815260036020526040812080546001929061425f90849061528c565b90915550506001600160a01b038216600090815260036020526040812080546001929061428d9084906153b9565b9091555050600081815260026020526040808220805473ffffffffffffffffffffffffffffffffffffffff19166001600160a01b0386811691821790925591518493918716917fddf252ad1be2c89b69c2b068fc378daa952ba7f163c4a11628f55a4df523b3ef91a4505050565b604080516001600160a01b0385811660248301528481166044830152606480830185905283518084039091018152608490920183526020820180517bffffffffffffffffffffffffffffffffffffffffffffffffffffffff167f23b872dd00000000000000000000000000000000000000000000000000000000179052915160009283929088169161438d919061530b565b6000604051808303816000865af19150503d80600081146143ca576040519150601f19603f3d011682016040523d82523d6000602084013e6143cf565b606091505b50915091508180156143f95750805115806143f95750808060200190518101906143f991906152ee565b611a6a5760405162461bcd60e51b815260206004820152600360248201527f535446000000000000000000000000000000000000000000000000000000000060448201526064016102e7565b6001600160a01b0383166144a05761449b81600880546000838152600960205260408120829055600182018355919091527ff3f7a9fe364faab93b216da50a3214154f22a0a2b415b23a84c8169e8b636ee30155565b6144c3565b816001600160a01b0316836001600160a01b0316146144c3576144c3838261469e565b6001600160a01b0382166144da57610b0a8161473b565b826001600160a01b0316826001600160a01b031614610b0a57610b0a82826147ea565b60006001600160a01b0384163b15614693576040517f150b7a020000000000000000000000000000000000000000000000000000000081526001600160a01b0385169063150b7a029061455a903390899088908890600401615429565b6020604051808303816000875af1925050508015614595575060408051601f3d908101601f1916820190925261459291810190614ff0565b60015b614648573d8080156145c3576040519150601f19603f3d011682016040523d82523d6000602084013e6145c8565b606091505b5080516000036146405760405162461bcd60e51b815260206004820152603260248201527f4552433732313a207472616e7366657220746f206e6f6e20455243373231526560448201527f63656976657220696d706c656d656e746572000000000000000000000000000060648201526084016102e7565b805181602001fd5b7fffffffff00000000000000000000000000000000000000000000000000000000167f150b7a0200000000000000000000000000000000000000000000000000000000149050613155565b506001949350505050565b600060016146ab846113f6565b6146b5919061528c565b600083815260076020526040902054909150808214614708576001600160a01b03841660009081526006602090815260408083208584528252808320548484528184208190558352600790915290208190555b5060009182526007602090815260408084208490556001600160a01b039094168352600681528383209183525290812055565b60085460009061474d9060019061528c565b6000838152600960205260408120546008805493945090928490811061477557614775614fa8565b90600052602060002001549050806008838154811061479657614796614fa8565b60009182526020808320909101929092558281526009909152604080822084905585825281205560088054806147ce576147ce615465565b6001900381819060005260206000200160009055905550505050565b60006147f5836113f6565b6001600160a01b039093166000908152600660209081526040808320868452825280832085905593825260079052919091209190915550565b7fffffffff000000000000000000000000000000000000000000000000000000008116811461485c57600080fd5b50565b60006020828403121561487157600080fd5b8135612d908161482e565b60005b8381101561489757818101518382015260200161487f565b50506000910152565b600081518084526148b881602086016020860161487c565b601f01601f19169290920160200192915050565b602081526000612d9060208301846148a0565b6000602082840312156148f157600080fd5b5035919050565b80356001600160a01b038116811461490f57600080fd5b919050565b6000806040838503121561492757600080fd5b614930836148f8565b946020939093013593505050565b60008060006060848603121561495357600080fd5b61495c846148f8565b925061496a602085016148f8565b9150604084013590509250925092565b6000806000806060858703121561499057600080fd5b8435935060208501359250604085013567ffffffffffffffff808211156149b657600080fd5b818701915087601f8301126149ca57600080fd5b8135818111156149d957600080fd5b8860208285010111156149eb57600080fd5b95989497505060200194505050565b60008060008060008060c08789031215614a1357600080fd5b614a1c876148f8565b95506020870135945060408701359350606087013560ff81168114614a4057600080fd5b9598949750929560808101359460a0909101359350915050565b83516bffffffffffffffffffffffff1681526101c081016020850151614a8b60208401826001600160a01b03169052565b506040850151614aa9604084018269ffffffffffffffffffff169052565b506060850151614ac460608401826001600160801b03169052565b506080850151614adf60808401826001600160801b03169052565b5060a0850151614af460a084018260020b9052565b5060c0850151614b0860c084018215159052565b5060e0850151614b2360e08401826001600160801b03169052565b5061010085810151908301526101208086015190830152610140808601516001600160801b038116828501525050610160858101516001600160801b0381168483015250506001600160a01b0384166101808301526001600160a01b0383166101a0830152613155565b60008060408385031215614ba057600080fd5b82359150614bb0602084016148f8565b90509250929050565b600060208284031215614bcb57600080fd5b612d90826148f8565b801515811461485c57600080fd5b60008060408385031215614bf557600080fd5b614bfe836148f8565b91506020830135614c0e81614bd4565b809150509250929050565b60008060208385031215614c2c57600080fd5b823567ffffffffffffffff80821115614c4457600080fd5b818501915085601f830112614c5857600080fd5b813581811115614c6757600080fd5b8660208260051b8501011115614c7c57600080fd5b60209290920196919550909350505050565b6000602080830181845280855180835260408601915060408160051b870101925083870160005b82811015614d01577fffffffffffffffffffffffffffffffffffffffffffffffffffffffffffffffc0888603018452614cef8583516148a0565b94509285019290850190600101614cb5565b5092979650505050505050565b634e487b7160e01b600052604160045260246000fd5b6040805190810167ffffffffffffffff81118282101715614d4757614d47614d0e565b60405290565b604051601f8201601f1916810167ffffffffffffffff81118282101715614d7657614d76614d0e565b604052919050565b600067ffffffffffffffff821115614d9857614d98614d0e565b50601f01601f191660200190565b60008060008060808587031215614dbc57600080fd5b614dc5856148f8565b9350614dd3602086016148f8565b925060408501359150606085013567ffffffffffffffff811115614df657600080fd5b8501601f81018713614e0757600080fd5b8035614e1a614e1582614d7e565b614d4d565b818152886020838501011115614e2f57600080fd5b8160208401602083013760006020838301015280935050505092959194509250565b600060a08284031215614e6357600080fd5b50919050565b6001600160801b038116811461485c57600080fd5b60008060408385031215614e9157600080fd5b823591506020830135614c0e81614e69565b600080600060608486031215614eb857600080fd5b614ec1846148f8565b925060208401359150614ed6604085016148f8565b90509250925092565b60008060408385031215614ef257600080fd5b614efb836148f8565b9150614bb0602084016148f8565b600181811c90821680614f1d57607f821691505b602082108103614e6357634e487b7160e01b600052602260045260246000fd5b60008183036060811215614f5057600080fd5b614f58614d24565b6040821215614f6657600080fd5b614f6e614d24565b9150614f79846148f8565b8252614f87602085016148f8565b6020830152818152614f9b604085016148f8565b6020820152949350505050565b634e487b7160e01b600052603260045260246000fd5b600060208284031215614fd057600080fd5b5051919050565b82815260406020820152600061315560408301846148a0565b60006020828403121561500257600080fd5b8151612d908161482e565b60008083357fffffffffffffffffffffffffffffffffffffffffffffffffffffffffffffffe184360301811261504257600080fd5b83018035915067ffffffffffffffff82111561505d57600080fd5b60200191503681900382131561507257600080fd5b9250929050565b8183823760009101908152919050565b60006020828403121561509b57600080fd5b815167ffffffffffffffff8111156150b257600080fd5b8201601f810184136150c357600080fd5b80516150d1614e1582614d7e565b8181528560208385010111156150e657600080fd5b6150f782602083016020860161487c565b95945050505050565b634e487b7160e01b600052601160045260246000fd5b6000600019820361512957615129615100565b5060010190565b6000806040838503121561514357600080fd5b825161514e81614e69565b6020840151909250614c0e81614e69565b60006020828403121561517157600080fd5b81358060020b8114612d9057600080fd5b600080600080600060a0868803121561519a57600080fd5b85519450602086015193506040860151925060608601516151ba81614e69565b60808701519092506151cb81614e69565b809150509295509295909350565b6000602082840312156151eb57600080fd5b8135612d9081614e69565b600075ffffffffffffffffffffffffffffffffffffffffffff80831681810361522157615221615100565b6001019392505050565b60006020828403121561523d57600080fd5b8135612d9081614bd4565b6001600160801b03828116828216039080821115611bc357611bc3615100565b6000806040838503121561527b57600080fd5b505080516020909101519092909150565b8181038181111561089057610890615100565b6001600160801b03818116838216019080821115611bc357611bc3615100565b600083516152d181846020880161487c565b8351908301906152e581836020880161487c565b01949350505050565b60006020828403121561530057600080fd5b8151612d9081614bd4565b6000825161531d81846020870161487c565b9190910192915050565b60006001600160a01b0380891683528088166020840152508560020b60408301528460020b60608301526001600160801b038416608083015260c060a083015261537460c08301846148a0565b98975050505050505050565b60008060006060848603121561539557600080fd5b835192506020840151915060408401516153ae81614e69565b809150509250925092565b8082018082111561089057610890615100565b600069ffffffffffffffffffff80831681810361522157615221615100565b634e487b7160e01b600052601260045260246000fd5b600082615410576154106153eb565b500490565b600082615424576154246153eb565b500690565b60006001600160a01b0380871683528086166020840152508360408301526080606083015261545b60808301846148a0565b9695505050505050565b634e487b7160e01b600052603160045260246000fdfea164736f6c6343000811000a"
}