{
  "address": "0xaf7D1a1dF526050Cd8F44AcC4DB390590e72E5d2",
  "abi": [
    {
      "inputs": [
        {
          "internalType": "address",
          "name": "pool",
          "type": "address"
        },
        {
          "internalType": "int16",
          "name": "tickTableIndex",
          "type": "int16"
        }
      ],
      "name": "getPopulatedTicksInWord",
      "outputs": [
        {
          "components": [
            {
              "internalType": "int24",
              "name": "tick",
              "type": "int24"
            },
            {
              "internalType": "int128",
              "name": "liquidityNet",
              "type": "int128"
            },
            {
              "internalType": "uint128",
              "name": "liquidityGross",
              "type": "uint128"
            }
          ],
          "internalType": "struct ITickLens.PopulatedTick[]",
          "name": "populatedTicks",
          "type": "tuple[]"
        }
      ],
      "stateMutability": "view",
      "type": "function"
    }
  ],
  "transactionHash": "0xed32a3e2b71fd6015ed5a9e13a8a4f8b5585f4ea5a1019f4e246ca83dc24ee06",
  "args": [],
  "numDeployments": 1,
  "solcInputHash": "831346ffa42e0adcb138875a2c9aa11c",
  "bytecode": "0x608060405234801561001057600080fd5b50610527806100206000396000f3fe608060405234801561001057600080fd5b506004361061002b5760003560e01c8063351fb47814610030575b600080fd5b61004361003e3660046102f9565b610059565b6040516100509190610339565b60405180910390f35b6040517fc677e3e0000000000000000000000000000000000000000000000000000000008152600182900b600482015260609060009073ffffffffffffffffffffffffffffffffffffffff85169063c677e3e090602401602060405180830381865afa1580156100cd573d6000803e3d6000fd5b505050506040513d601f19601f820116820180604052508101906100f191906103aa565b90506000805b61010081101561011b576001811b831615610113576001909101905b6001016100f7565b508067ffffffffffffffff811115610135576101356103c3565b60405190808252806020026020018201604052801561019e57816020015b60408051606081018252600080825260208083018290529282015282527fffffffffffffffffffffffffffffffffffffffffffffffffffffffffffffffff9092019101816101535790505b50925060005b6101008110156102cb576001811b8316156102c3576040517ff30dba93000000000000000000000000000000000000000000000000000000008152600886901b600290810b83019081900b600483015290600090819073ffffffffffffffffffffffffffffffffffffffff8a169063f30dba939060240161012060405180830381865afa158015610239573d6000803e3d6000fd5b505050506040513d601f19601f8201168201806040525081019061025d919061042d565b505050505050509150915060405180606001604052808460020b815260200182600f0b8152602001836fffffffffffffffffffffffffffffffff16815250878660019003965086815181106102b4576102b46104eb565b60200260200101819052505050505b6001016101a4565b50505092915050565b73ffffffffffffffffffffffffffffffffffffffff811681146102f657600080fd5b50565b6000806040838503121561030c57600080fd5b8235610317816102d4565b91506020830135600181900b811461032e57600080fd5b809150509250929050565b602080825282518282018190526000919060409081850190868401855b8281101561039d578151805160020b855286810151600f0b878601528501516fffffffffffffffffffffffffffffffff168585015260609093019290850190600101610356565b5091979650505050505050565b6000602082840312156103bc57600080fd5b5051919050565b7f4e487b7100000000000000000000000000000000000000000000000000000000600052604160045260246000fd5b8051600281900b811461040457600080fd5b919050565b805163ffffffff8116811461040457600080fd5b8051801515811461040457600080fd5b60008060008060008060008060006101208a8c03121561044c57600080fd5b89516fffffffffffffffffffffffffffffffff8116811461046c57600080fd5b8099505060208a015180600f0b811461048457600080fd5b60408b015160608c0151919950975095506104a160808b016103f2565b94506104af60a08b016103f2565b935060c08a01516104bf816102d4565b92506104cd60e08b01610409565b91506104dc6101008b0161041d565b90509295985092959850929598565b7f4e487b7100000000000000000000000000000000000000000000000000000000600052603260045260246000fdfea164736f6c6343000811000a",
  "devdoc": {
    "details": "Credit to Uniswap Labs under GPL-2.0-or-later license: https://github.com/Uniswap/v3-periphery",
    "kind": "dev",
    "methods": {
      "getPopulatedTicksInWord(address,int16)": {
        "params": {
          "pool": "The address of the pool for which to fetch populated tick data",
          "tickTableIndex": "The index of the word in the tick bitmap for which to parse the bitmap and fetch all the populated ticks"
        },
        "returns": {
          "populatedTicks": "An array of tick data for the given word in the tick bitmap"
        }
      }
    },
    "title": "Tick Lens contract",
    "version": 1
  },
  "userdoc": {
    "kind": "user",
    "methods": {
      "getPopulatedTicksInWord(address,int16)": {
        "notice": "Get all the tick data for the populated ticks from a word of the tick bitmap of a pool"
      }
    },
    "version": 1
  },
  "storageLayout": {
    "storage": [],
    "types": null
  }
}