{
  "address": "0xEF00C455678C40F14874bAe72fF6be23dD522F23",
  "abi": [
    {
      "inputs": [],
      "stateMutability": "nonpayable",
      "type": "constructor"
    },
    {
      "anonymous": false,
      "inputs": [
        {
          "indexed": true,
          "internalType": "address",
          "name": "owner",
          "type": "address"
        },
        {
          "indexed": true,
          "internalType": "address",
          "name": "spender",
          "type": "address"
        },
        {
          "indexed": false,
          "internalType": "uint256",
          "name": "value",
          "type": "uint256"
        }
      ],
      "name": "Approval",
      "type": "event"
    },
    {
      "anonymous": false,
      "inputs": [
        {
          "indexed": true,
          "internalType": "address",
          "name": "from",
          "type": "address"
        },
        {
          "indexed": true,
          "internalType": "address",
          "name": "to",
          "type": "address"
        },
        {
          "indexed": false,
          "internalType": "uint256",
          "name": "value",
          "type": "uint256"
        }
      ],
      "name": "Transfer",
      "type": "event"
    },
    {
      "inputs": [],
      "name": "CALLBACK_SUCCESS",
      "outputs": [
        {
          "internalType": "bytes32",
          "name": "",
          "type": "bytes32"
        }
      ],
      "stateMutability": "view",
      "type": "function"
    },
    {
      "inputs": [],
      "name": "DOMAIN_SEPARATOR",
      "outputs": [
        {
          "internalType": "bytes32",
          "name": "",
          "type": "bytes32"
        }
      ],
      "stateMutability": "view",
      "type": "function"
    },
    {
      "inputs": [],
      "name": "PERMIT_TYPEHASH",
      "outputs": [
        {
          "internalType": "bytes32",
          "name": "",
          "type": "bytes32"
        }
      ],
      "stateMutability": "view",
      "type": "function"
    },
    {
      "inputs": [
        {
          "internalType": "address",
          "name": "",
          "type": "address"
        },
        {
          "internalType": "address",
          "name": "",
          "type": "address"
        }
      ],
      "name": "allowance",
      "outputs": [
        {
          "internalType": "uint256",
          "name": "",
          "type": "uint256"
        }
      ],
      "stateMutability": "view",
      "type": "function"
    },
    {
      "inputs": [
        {
          "internalType": "address",
          "name": "spender",
          "type": "address"
        },
        {
          "internalType": "uint256",
          "name": "value",
          "type": "uint256"
        }
      ],
      "name": "approve",
      "outputs": [
        {
          "internalType": "bool",
          "name": "",
          "type": "bool"
        }
      ],
      "stateMutability": "nonpayable",
      "type": "function"
    },
    {
      "inputs": [
        {
          "internalType": "address",
          "name": "spender",
          "type": "address"
        },
        {
          "internalType": "uint256",
          "name": "value",
          "type": "uint256"
        },
        {
          "internalType": "bytes",
          "name": "data",
          "type": "bytes"
        }
      ],
      "name": "approveAndCall",
      "outputs": [
        {
          "internalType": "bool",
          "name": "",
          "type": "bool"
        }
      ],
      "stateMutability": "nonpayable",
      "type": "function"
    },
    {
      "inputs": [
        {
          "internalType": "address",
          "name": "",
          "type": "address"
        }
      ],
      "name": "balanceOf",
      "outputs": [
        {
          "internalType": "uint256",
          "name": "",
          "type": "uint256"
        }
      ],
      "stateMutability": "view",
      "type": "function"
    },
    {
      "inputs": [],
      "name": "decimals",
      "outputs": [
        {
          "internalType": "uint8",
          "name": "",
          "type": "uint8"
        }
      ],
      "stateMutability": "view",
      "type": "function"
    },
    {
      "inputs": [],
      "name": "deploymentChainId",
      "outputs": [
        {
          "internalType": "uint256",
          "name": "",
          "type": "uint256"
        }
      ],
      "stateMutability": "view",
      "type": "function"
    },
    {
      "inputs": [],
      "name": "deposit",
      "outputs": [],
      "stateMutability": "payable",
      "type": "function"
    },
    {
      "inputs": [
        {
          "internalType": "address",
          "name": "to",
          "type": "address"
        }
      ],
      "name": "depositTo",
      "outputs": [],
      "stateMutability": "payable",
      "type": "function"
    },
    {
      "inputs": [
        {
          "internalType": "address",
          "name": "to",
          "type": "address"
        },
        {
          "internalType": "bytes",
          "name": "data",
          "type": "bytes"
        }
      ],
      "name": "depositToAndCall",
      "outputs": [
        {
          "internalType": "bool",
          "name": "success",
          "type": "bool"
        }
      ],
      "stateMutability": "payable",
      "type": "function"
    },
    {
      "inputs": [
        {
          "internalType": "address",
          "name": "token",
          "type": "address"
        },
        {
          "internalType": "uint256",
          "name": "",
          "type": "uint256"
        }
      ],
      "name": "flashFee",
      "outputs": [
        {
          "internalType": "uint256",
          "name": "",
          "type": "uint256"
        }
      ],
      "stateMutability": "view",
      "type": "function"
    },
    {
      "inputs": [
        {
          "internalType": "contract IERC3156FlashBorrower",
          "name": "receiver",
          "type": "address"
        },
        {
          "internalType": "address",
          "name": "token",
          "type": "address"
        },
        {
          "internalType": "uint256",
          "name": "value",
          "type": "uint256"
        },
        {
          "internalType": "bytes",
          "name": "data",
          "type": "bytes"
        }
      ],
      "name": "flashLoan",
      "outputs": [
        {
          "internalType": "bool",
          "name": "",
          "type": "bool"
        }
      ],
      "stateMutability": "nonpayable",
      "type": "function"
    },
    {
      "inputs": [
        {
          "internalType": "uint256",
          "name": "initValue",
          "type": "uint256"
        }
      ],
      "name": "flashLoanInit",
      "outputs": [
        {
          "internalType": "bool",
          "name": "",
          "type": "bool"
        }
      ],
      "stateMutability": "payable",
      "type": "function"
    },
    {
      "inputs": [],
      "name": "flashMinted",
      "outputs": [
        {
          "internalType": "uint256",
          "name": "",
          "type": "uint256"
        }
      ],
      "stateMutability": "view",
      "type": "function"
    },
    {
      "inputs": [
        {
          "internalType": "address",
          "name": "token",
          "type": "address"
        }
      ],
      "name": "maxFlashLoan",
      "outputs": [
        {
          "internalType": "uint256",
          "name": "",
          "type": "uint256"
        }
      ],
      "stateMutability": "view",
      "type": "function"
    },
    {
      "inputs": [],
      "name": "name",
      "outputs": [
        {
          "internalType": "string",
          "name": "",
          "type": "string"
        }
      ],
      "stateMutability": "view",
      "type": "function"
    },
    {
      "inputs": [
        {
          "internalType": "address",
          "name": "",
          "type": "address"
        }
      ],
      "name": "nonces",
      "outputs": [
        {
          "internalType": "uint256",
          "name": "",
          "type": "uint256"
        }
      ],
      "stateMutability": "view",
      "type": "function"
    },
    {
      "inputs": [
        {
          "internalType": "address",
          "name": "owner",
          "type": "address"
        },
        {
          "internalType": "address",
          "name": "spender",
          "type": "address"
        },
        {
          "internalType": "uint256",
          "name": "value",
          "type": "uint256"
        },
        {
          "internalType": "uint256",
          "name": "deadline",
          "type": "uint256"
        },
        {
          "internalType": "uint8",
          "name": "v",
          "type": "uint8"
        },
        {
          "internalType": "bytes32",
          "name": "r",
          "type": "bytes32"
        },
        {
          "internalType": "bytes32",
          "name": "s",
          "type": "bytes32"
        }
      ],
      "name": "permit",
      "outputs": [],
      "stateMutability": "nonpayable",
      "type": "function"
    },
    {
      "inputs": [],
      "name": "symbol",
      "outputs": [
        {
          "internalType": "string",
          "name": "",
          "type": "string"
        }
      ],
      "stateMutability": "view",
      "type": "function"
    },
    {
      "inputs": [],
      "name": "totalSupply",
      "outputs": [
        {
          "internalType": "uint256",
          "name": "",
          "type": "uint256"
        }
      ],
      "stateMutability": "view",
      "type": "function"
    },
    {
      "inputs": [
        {
          "internalType": "address",
          "name": "to",
          "type": "address"
        },
        {
          "internalType": "uint256",
          "name": "value",
          "type": "uint256"
        }
      ],
      "name": "transfer",
      "outputs": [
        {
          "internalType": "bool",
          "name": "",
          "type": "bool"
        }
      ],
      "stateMutability": "nonpayable",
      "type": "function"
    },
    {
      "inputs": [
        {
          "internalType": "address",
          "name": "to",
          "type": "address"
        },
        {
          "internalType": "uint256",
          "name": "value",
          "type": "uint256"
        },
        {
          "internalType": "bytes",
          "name": "data",
          "type": "bytes"
        }
      ],
      "name": "transferAndCall",
      "outputs": [
        {
          "internalType": "bool",
          "name": "",
          "type": "bool"
        }
      ],
      "stateMutability": "nonpayable",
      "type": "function"
    },
    {
      "inputs": [
        {
          "internalType": "address",
          "name": "from",
          "type": "address"
        },
        {
          "internalType": "address",
          "name": "to",
          "type": "address"
        },
        {
          "internalType": "uint256",
          "name": "value",
          "type": "uint256"
        }
      ],
      "name": "transferFrom",
      "outputs": [
        {
          "internalType": "bool",
          "name": "",
          "type": "bool"
        }
      ],
      "stateMutability": "nonpayable",
      "type": "function"
    },
    {
      "inputs": [
        {
          "internalType": "uint256",
          "name": "value",
          "type": "uint256"
        }
      ],
      "name": "withdraw",
      "outputs": [],
      "stateMutability": "nonpayable",
      "type": "function"
    },
    {
      "inputs": [
        {
          "internalType": "address",
          "name": "from",
          "type": "address"
        },
        {
          "internalType": "address payable",
          "name": "to",
          "type": "address"
        },
        {
          "internalType": "uint256",
          "name": "value",
          "type": "uint256"
        }
      ],
      "name": "withdrawFrom",
      "outputs": [],
      "stateMutability": "nonpayable",
      "type": "function"
    },
    {
      "inputs": [
        {
          "internalType": "address payable",
          "name": "to",
          "type": "address"
        },
        {
          "internalType": "uint256",
          "name": "value",
          "type": "uint256"
        }
      ],
      "name": "withdrawTo",
      "outputs": [],
      "stateMutability": "nonpayable",
      "type": "function"
    },
    {
      "stateMutability": "payable",
      "type": "receive"
    }
  ],
  "transactionHash": "0x91b8a16e43cd84cefefc4a2f490a7632cba3886cc4f02c7de670f54b0b79acd7",
  "args": [],
  "numDeployments": 1,
  "solcInputHash": "77da40da05b21c99c85bb1ad4e342f74",
  "bytecode": "0x6101206040527f439148f0bbc682ca079e46d6e2c2f0c1e3b820f1a291b069d8882abf8cf18dd96080527f6e71edae12b1b97f4d1f60370fef10105fa2faae0126114a169c64845d6126c960a0523480156200005a57600080fd5b504660c08190526200006c8162000085565b60e0526200007a3362000176565b6101005250620001a3565b604080518082018252601981527f57726170706564204574686572206f6e466c6173684c6f616e000000000000006020918201528151808301835260018152603160f81b9082015281517f8b73c3c69bb8fe3d512ecc4cf759cc79239f7b179b0ffacaa9a75d522b39400f918101919091527f268e537ac4ed73ff033037e89019d274e53bf9c0ca3a9208b06b3f4b66f26672918101919091527fc89efdaa54c0f20c7adf612882df0950f5a951637e0307cdcb4c672f298b8bc66060820152608081018290523060a082015260009060c0015b604051602081830303815290604052805190602001209050919050565b6040516001600160601b0319606083811b8216602084015230901b16603482015260009060480162000159565b60805160a05160c05160e0516101005161272f6200020b6000396000610d40015260008181610ecd0152611f4301526000818161059f01528181610e980152611f0e0152600081816103490152611e8601526000818161049901526113c9015261272f6000f3fe6080604052600436106101bb5760003560e01c806370a08231116100ec578063b760faf91161008a578063d0e30db011610064578063d0e30db0146105c1578063d505accf146105c9578063d9d98ce4146105e9578063dd62ed3e1461060957600080fd5b8063b760faf91461055a578063cae9ca511461056d578063cd0d00961461058d57600080fd5b80638b28d32f116100c65780638b28d32f146104bb5780639555a942146104d157806395d89b41146104f1578063a9059cbb1461053a57600080fd5b806370a082311461042d5780637ecebe001461045a5780638237e5381461048757600080fd5b8063313ce567116101595780634000aea0116101335780634000aea0146103ba5780635cffe9de146103da5780635ddb7d7e146103fa578063613255ab1461040d57600080fd5b8063313ce5671461036b5780633524996a146103925780633644e515146103a557600080fd5b8063205c287811610195578063205c2878146102d557806323b872dd146102f75780632e1a7d4d1461031757806330adf81f1461033757600080fd5b806306fdde0314610223578063095ea7b31461028257806318160ddd146102b257600080fd5b3661021e5733600090815260208190526040812080543492906101df9084906122d7565b909155505060405134815233906000907fddf252ad1be2c89b69c2b068fc378daa952ba7f163c4a11628f55a4df523b3ef9060200160405180910390a3005b600080fd5b34801561022f57600080fd5b5061026c6040518060400160405280601981526020017f57726170706564204574686572206f6e466c6173684c6f616e0000000000000081525081565b60405161027991906122ea565b60405180910390f35b34801561028e57600080fd5b506102a261029d366004612350565b610641565b6040519015158152602001610279565b3480156102be57600080fd5b506102c76106ae565b604051908152602001610279565b3480156102e157600080fd5b506102f56102f0366004612350565b6106c3565b005b34801561030357600080fd5b506102a261031236600461237c565b61082b565b34801561032357600080fd5b506102f56103323660046123bd565b610bcf565b34801561034357600080fd5b506102c77f000000000000000000000000000000000000000000000000000000000000000081565b34801561037757600080fd5b50610380601281565b60405160ff9091168152602001610279565b6102a26103a03660046123bd565b610d26565b3480156103b157600080fd5b506102c7610e93565b3480156103c657600080fd5b506102a26103d536600461241f565b610ef3565b3480156103e657600080fd5b506102a26103f536600461247b565b6111e6565b6102a26104083660046124ee565b611676565b34801561041957600080fd5b506102c7610428366004612543565b61177c565b34801561043957600080fd5b506102c7610448366004612543565b60006020819052908152604090205481565b34801561046657600080fd5b506102c7610475366004612543565b60016020526000908152604090205481565b34801561049357600080fd5b506102c77f000000000000000000000000000000000000000000000000000000000000000081565b3480156104c757600080fd5b506102c760035481565b3480156104dd57600080fd5b506102f56104ec36600461237c565b6117b0565b3480156104fd57600080fd5b5061026c6040518060400160405280600481526020017f574554480000000000000000000000000000000000000000000000000000000081525081565b34801561054657600080fd5b506102a2610555366004612350565b611a20565b6102f5610568366004612543565b611c9c565b34801561057957600080fd5b506102a261058836600461241f565b611d0d565b34801561059957600080fd5b506102c77f000000000000000000000000000000000000000000000000000000000000000081565b6102f5611db9565b3480156105d557600080fd5b506102f56105e4366004612567565b611e17565b3480156105f557600080fd5b506102c7610604366004612350565b6120f4565b34801561061557600080fd5b506102c76106243660046125de565b600260209081526000928352604080842090915290825290205481565b3360008181526002602090815260408083206001600160a01b038716808552925280832085905551919290917f8c5be1e5ebec7d5bd14f71427d1e84f3dd0314c0f7b2291e5b200ac8c7c3b9259061069c9086815260200190565b60405180910390a35060015b92915050565b6000600354476106be91906122d7565b905090565b33600090815260208190526040902054818110156107325760405162461bcd60e51b815260206004820152602160248201527f574554483a206275726e20616d6f756e7420657863656564732062616c616e636044820152606560f81b60648201526084015b60405180910390fd5b61073c8282612617565b3360008181526020818152604080832094909455925185815290927fddf252ad1be2c89b69c2b068fc378daa952ba7f163c4a11628f55a4df523b3ef910160405180910390a36000836001600160a01b03168360405160006040518083038185875af1925050503d80600081146107cf576040519150601f19603f3d011682016040523d82523d6000602084013e6107d4565b606091505b50509050806108255760405162461bcd60e51b815260206004820152601960248201527f574554483a20455448207472616e73666572206661696c6564000000000000006044820152606401610729565b50505050565b60006001600160a01b0384163314610927576001600160a01b0384166000908152600260209081526040808320338452909152902054600019811461092557828110156108ba5760405162461bcd60e51b815260206004820152601f60248201527f574554483a2072657175657374206578636565647320616c6c6f77616e6365006044820152606401610729565b60006108c68483612617565b6001600160a01b038716600081815260026020908152604080832033808552908352928190208590555184815293945090927f8c5be1e5ebec7d5bd14f71427d1e84f3dd0314c0f7b2291e5b200ac8c7c3b925910160405180910390a3505b505b6001600160a01b0383161580159061094857506001600160a01b0383163014155b15610a5e576001600160a01b038416600090815260208190526040902054828110156109c45760405162461bcd60e51b815260206004820152602560248201527f574554483a207472616e7366657220616d6f756e7420657863656564732062616044820152646c616e636560d81b6064820152608401610729565b6109ce8382612617565b6001600160a01b038087166000908152602081905260408082209390935590861681529081208054859290610a049084906122d7565b92505081905550836001600160a01b0316856001600160a01b03167fddf252ad1be2c89b69c2b068fc378daa952ba7f163c4a11628f55a4df523b3ef85604051610a5091815260200190565b60405180910390a350610bc5565b6001600160a01b03841660009081526020819052604090205482811015610ad15760405162461bcd60e51b815260206004820152602160248201527f574554483a206275726e20616d6f756e7420657863656564732062616c616e636044820152606560f81b6064820152608401610729565b610adb8382612617565b6001600160a01b03861660008181526020818152604080832094909455925186815290927fddf252ad1be2c89b69c2b068fc378daa952ba7f163c4a11628f55a4df523b3ef910160405180910390a3604051600090339085908381818185875af1925050503d8060008114610b6c576040519150601f19603f3d011682016040523d82523d6000602084013e610b71565b606091505b5050905080610bc25760405162461bcd60e51b815260206004820152601960248201527f574554483a20455448207472616e73666572206661696c6564000000000000006044820152606401610729565b50505b5060019392505050565b3360009081526020819052604090205481811015610c395760405162461bcd60e51b815260206004820152602160248201527f574554483a206275726e20616d6f756e7420657863656564732062616c616e636044820152606560f81b6064820152608401610729565b610c438282612617565b3360008181526020818152604080832094909455925185815290927fddf252ad1be2c89b69c2b068fc378daa952ba7f163c4a11628f55a4df523b3ef910160405180910390a3604051600090339084908381818185875af1925050503d8060008114610ccb576040519150601f19603f3d011682016040523d82523d6000602084013e610cd0565b606091505b5050905080610d215760405162461bcd60e51b815260206004820152601960248201527f574554483a20455448207472616e73666572206661696c6564000000000000006044820152606401610729565b505050565b600081600003610e6757476000610d3c33612157565b90507f00000000000000000000000000000000000000000000000000000000000000008114610dad5760405162461bcd60e51b815260206004820152601360248201527f466c6173684c6f616e20496e6974204661696c000000000000000000000000006044820152606401610729565b8160036000828254610dbf91906122d7565b9091555050604051600090339084908381818185875af1925050503d8060008114610e06576040519150601f19603f3d011682016040523d82523d6000602084013e610e0b565b606091505b5050905080610e5c5760405162461bcd60e51b815260206004820152601960248201527f574554483a20455448207472616e73666572206661696c6564000000000000006044820152606401610729565b506001949350505050565b3360009081526020819052604081208054849290610e869084906122d7565b9091555060009392505050565b6000467f00000000000000000000000000000000000000000000000000000000000000008114610ecb57610ec6816121b4565b610eed565b7f00000000000000000000000000000000000000000000000000000000000000005b91505090565b60006001600160a01b03851615610ffa573360009081526020819052604090205484811015610f725760405162461bcd60e51b815260206004820152602560248201527f574554483a207472616e7366657220616d6f756e7420657863656564732062616044820152646c616e636560d81b6064820152608401610729565b610f7c8582612617565b33600090815260208190526040808220929092556001600160a01b03881681529081208054879290610faf9084906122d7565b90915550506040518581526001600160a01b0387169033907fddf252ad1be2c89b69c2b068fc378daa952ba7f163c4a11628f55a4df523b3ef9060200160405180910390a35061114f565b33600090815260208190526040902054848110156110645760405162461bcd60e51b815260206004820152602160248201527f574554483a206275726e20616d6f756e7420657863656564732062616c616e636044820152606560f81b6064820152608401610729565b61106e8582612617565b3360008181526020818152604080832094909455925188815290927fddf252ad1be2c89b69c2b068fc378daa952ba7f163c4a11628f55a4df523b3ef910160405180910390a3604051600090339087908381818185875af1925050503d80600081146110f6576040519150601f19603f3d011682016040523d82523d6000602084013e6110fb565b606091505b505090508061114c5760405162461bcd60e51b815260206004820152601960248201527f574554483a20455448207472616e73666572206661696c6564000000000000006044820152606401610729565b50505b6040517fa4c0ed360000000000000000000000000000000000000000000000000000000081526001600160a01b0386169063a4c0ed369061119a903390889088908890600401612655565b6020604051808303816000875af11580156111b9573d6000803e3d6000fd5b505050506040513d601f19601f820116820180604052508101906111dd9190612688565b95945050505050565b60006001600160a01b03851630146112405760405162461bcd60e51b815260206004820152601c60248201527f574554483a20666c617368206d696e74206f6e6c7920574554483130000000006044820152606401610729565b6dffffffffffffffffffffffffffff8411156112c35760405162461bcd60e51b8152602060048201526024808201527f574554483a20696e646976696475616c206c6f616e206c696d6974206578636560448201527f65646564000000000000000000000000000000000000000000000000000000006064820152608401610729565b836003546112d191906122d7565b60038190556dffffffffffffffffffffffffffff10156113335760405162461bcd60e51b815260206004820152601f60248201527f574554483a20746f74616c206c6f616e206c696d6974206578636565646564006044820152606401610729565b6001600160a01b0386166000908152602081905260408120805486929061135b9084906122d7565b90915550506040518481526001600160a01b038716906000907fddf252ad1be2c89b69c2b068fc378daa952ba7f163c4a11628f55a4df523b3ef9060200160405180910390a36040517f23e30c8b0000000000000000000000000000000000000000000000000000000081527f0000000000000000000000000000000000000000000000000000000000000000906001600160a01b038816906323e30c8b9061141390339030908a906000908b908b906004016126aa565b6020604051808303816000875af1158015611432573d6000803e3d6000fd5b505050506040513d601f19601f8201168201806040525081019061145691906126ef565b146114a35760405162461bcd60e51b815260206004820152601760248201527f574554483a20666c617368206c6f616e206661696c65640000000000000000006044820152606401610729565b6001600160a01b0386166000908152600260209081526040808320308452909152902054600019811461158b57848110156115205760405162461bcd60e51b815260206004820152601f60248201527f574554483a2072657175657374206578636565647320616c6c6f77616e6365006044820152606401610729565b600061152c8683612617565b6001600160a01b038916600081815260026020908152604080832030808552908352928190208590555184815293945090927f8c5be1e5ebec7d5bd14f71427d1e84f3dd0314c0f7b2291e5b200ac8c7c3b925910160405180910390a3505b6001600160a01b038716600090815260208190526040902054858110156115fe5760405162461bcd60e51b815260206004820152602160248201527f574554483a206275726e20616d6f756e7420657863656564732062616c616e636044820152606560f81b6064820152608401610729565b6116088682612617565b6001600160a01b03891660008181526020818152604080832094909455925189815290927fddf252ad1be2c89b69c2b068fc378daa952ba7f163c4a11628f55a4df523b3ef910160405180910390a3856003546116659190612617565b600355506001979650505050505050565b6001600160a01b0383166000908152602081905260408120805434919083906116a09084906122d7565b90915550506040513481526001600160a01b038516906000907fddf252ad1be2c89b69c2b068fc378daa952ba7f163c4a11628f55a4df523b3ef9060200160405180910390a36040517fa4c0ed360000000000000000000000000000000000000000000000000000000081526001600160a01b0385169063a4c0ed3690611731903390349088908890600401612655565b6020604051808303816000875af1158015611750573d6000803e3d6000fd5b505050506040513d601f19601f820116820180604052508101906117749190612688565b949350505050565b60006001600160a01b03821630146117955760006106a8565b6003546106a8906dffffffffffffffffffffffffffff612617565b6001600160a01b03831633146118aa576001600160a01b038316600090815260026020908152604080832033845290915290205460001981146118a8578181101561183d5760405162461bcd60e51b815260206004820152601f60248201527f574554483a2072657175657374206578636565647320616c6c6f77616e6365006044820152606401610729565b60006118498383612617565b6001600160a01b038616600081815260026020908152604080832033808552908352928190208590555184815293945090927f8c5be1e5ebec7d5bd14f71427d1e84f3dd0314c0f7b2291e5b200ac8c7c3b925910160405180910390a3505b505b6001600160a01b0383166000908152602081905260409020548181101561191d5760405162461bcd60e51b815260206004820152602160248201527f574554483a206275726e20616d6f756e7420657863656564732062616c616e636044820152606560f81b6064820152608401610729565b6119278282612617565b6001600160a01b03851660008181526020818152604080832094909455925185815290927fddf252ad1be2c89b69c2b068fc378daa952ba7f163c4a11628f55a4df523b3ef910160405180910390a36000836001600160a01b03168360405160006040518083038185875af1925050503d80600081146119c3576040519150601f19603f3d011682016040523d82523d6000602084013e6119c8565b606091505b5050905080611a195760405162461bcd60e51b815260206004820152601b60248201527f574554483a204574686572207472616e73666572206661696c656400000000006044820152606401610729565b5050505050565b60006001600160a01b03831615801590611a4357506001600160a01b0383163014155b15611b3e573360009081526020819052604090205482811015611ab65760405162461bcd60e51b815260206004820152602560248201527f574554483a207472616e7366657220616d6f756e7420657863656564732062616044820152646c616e636560d81b6064820152608401610729565b611ac08382612617565b33600090815260208190526040808220929092556001600160a01b03861681529081208054859290611af39084906122d7565b90915550506040518381526001600160a01b0385169033907fddf252ad1be2c89b69c2b068fc378daa952ba7f163c4a11628f55a4df523b3ef9060200160405180910390a350611c93565b3360009081526020819052604090205482811015611ba85760405162461bcd60e51b815260206004820152602160248201527f574554483a206275726e20616d6f756e7420657863656564732062616c616e636044820152606560f81b6064820152608401610729565b611bb28382612617565b3360008181526020818152604080832094909455925186815290927fddf252ad1be2c89b69c2b068fc378daa952ba7f163c4a11628f55a4df523b3ef910160405180910390a3604051600090339085908381818185875af1925050503d8060008114611c3a576040519150601f19603f3d011682016040523d82523d6000602084013e611c3f565b606091505b5050905080611c905760405162461bcd60e51b815260206004820152601960248201527f574554483a20455448207472616e73666572206661696c6564000000000000006044820152606401610729565b50505b50600192915050565b6001600160a01b03811660009081526020819052604081208054349290611cc49084906122d7565b90915550506040513481526001600160a01b038216906000907fddf252ad1be2c89b69c2b068fc378daa952ba7f163c4a11628f55a4df523b3ef9060200160405180910390a350565b3360008181526002602090815260408083206001600160a01b038916808552925280832087905551919290917f8c5be1e5ebec7d5bd14f71427d1e84f3dd0314c0f7b2291e5b200ac8c7c3b92590611d689088815260200190565b60405180910390a36040517eba451f0000000000000000000000000000000000000000000000000000000081526001600160a01b0386169062ba451f9061119a903390889088908890600401612655565b3360009081526020819052604081208054349290611dd89084906122d7565b909155505060405134815233906000907fddf252ad1be2c89b69c2b068fc378daa952ba7f163c4a11628f55a4df523b3ef9060200160405180910390a3565b83421115611e675760405162461bcd60e51b815260206004820152601460248201527f574554483a2045787069726564207065726d69740000000000000000000000006044820152606401610729565b6001600160a01b038716600090815260016020526040812080544692917f0000000000000000000000000000000000000000000000000000000000000000918b918b918b9186611eb683612708565b909155506040805160208101969096526001600160a01b0394851690860152929091166060840152608083015260a082015260c0810187905260e00160405160208183030381529060405280519060200120905060007f00000000000000000000000000000000000000000000000000000000000000008314611f4157611f3c836121b4565b611f63565b7f00000000000000000000000000000000000000000000000000000000000000005b6040517f1901000000000000000000000000000000000000000000000000000000000000602082015260228101919091526042810183905260620160408051601f198184030181528282528051602091820120600080855291840180845281905260ff8a169284019290925260608301889052608083018790529092509060019060a0016020604051602081039080840390855afa158015612009573d6000803e3d6000fd5b5050604051601f1901519150506001600160a01b0381161580159061203f57508a6001600160a01b0316816001600160a01b0316145b61208b5760405162461bcd60e51b815260206004820152601460248201527f574554483a20696e76616c6964207065726d69740000000000000000000000006044820152606401610729565b6001600160a01b038b81166000818152600260209081526040808320948f16808452948252918290208d905590518c81527f8c5be1e5ebec7d5bd14f71427d1e84f3dd0314c0f7b2291e5b200ac8c7c3b925910160405180910390a35050505050505050505050565b60006001600160a01b038316301461214e5760405162461bcd60e51b815260206004820152601c60248201527f574554483a20666c617368206d696e74206f6e6c7920574554483130000000006044820152606401610729565b50600092915050565b6040517fffffffffffffffffffffffffffffffffffffffff000000000000000000000000606083811b8216602084015230901b1660348201526000906048015b604051602081830303815290604052805190602001209050919050565b604080518082018252601981527f57726170706564204574686572206f6e466c6173684c6f616e0000000000000060209182015281518083018352600181527f31000000000000000000000000000000000000000000000000000000000000009082015281517f8b73c3c69bb8fe3d512ecc4cf759cc79239f7b179b0ffacaa9a75d522b39400f918101919091527f268e537ac4ed73ff033037e89019d274e53bf9c0ca3a9208b06b3f4b66f26672918101919091527fc89efdaa54c0f20c7adf612882df0950f5a951637e0307cdcb4c672f298b8bc66060820152608081018290523060a082015260009060c001612197565b7f4e487b7100000000000000000000000000000000000000000000000000000000600052601160045260246000fd5b808201808211156106a8576106a86122a8565b600060208083528351808285015260005b81811015612317578581018301518582016040015282016122fb565b506000604082860101526040601f19601f8301168501019250505092915050565b6001600160a01b038116811461234d57600080fd5b50565b6000806040838503121561236357600080fd5b823561236e81612338565b946020939093013593505050565b60008060006060848603121561239157600080fd5b833561239c81612338565b925060208401356123ac81612338565b929592945050506040919091013590565b6000602082840312156123cf57600080fd5b5035919050565b60008083601f8401126123e857600080fd5b50813567ffffffffffffffff81111561240057600080fd5b60208301915083602082850101111561241857600080fd5b9250929050565b6000806000806060858703121561243557600080fd5b843561244081612338565b935060208501359250604085013567ffffffffffffffff81111561246357600080fd5b61246f878288016123d6565b95989497509550505050565b60008060008060006080868803121561249357600080fd5b853561249e81612338565b945060208601356124ae81612338565b935060408601359250606086013567ffffffffffffffff8111156124d157600080fd5b6124dd888289016123d6565b969995985093965092949392505050565b60008060006040848603121561250357600080fd5b833561250e81612338565b9250602084013567ffffffffffffffff81111561252a57600080fd5b612536868287016123d6565b9497909650939450505050565b60006020828403121561255557600080fd5b813561256081612338565b9392505050565b600080600080600080600060e0888a03121561258257600080fd5b873561258d81612338565b9650602088013561259d81612338565b95506040880135945060608801359350608088013560ff811681146125c157600080fd5b9699959850939692959460a0840135945060c09093013592915050565b600080604083850312156125f157600080fd5b82356125fc81612338565b9150602083013561260c81612338565b809150509250929050565b818103818111156106a8576106a86122a8565b818352818160208501375060006020828401015260006020601f19601f840116840101905092915050565b6001600160a01b038516815283602082015260606040820152600061267e60608301848661262a565b9695505050505050565b60006020828403121561269a57600080fd5b8151801515811461256057600080fd5b60006001600160a01b03808916835280881660208401525085604083015284606083015260a060808301526126e360a08301848661262a565b98975050505050505050565b60006020828403121561270157600080fd5b5051919050565b6000600019820361271b5761271b6122a8565b506001019056fea164736f6c6343000811000a",
  "devdoc": {
    "details": "Wrapped Ether v10 (WETH10) is an Ether (ETH) ERC-20 wrapper. You can `deposit` ETH and obtain a WETH10 balance which can then be operated as an ERC-20 token. You can `withdraw` ETH from WETH10, which will then burn WETH10 token in your wallet. The amount of WETH10 token in any wallet is always identical to the balance of ETH deposited minus the ETH withdrawn with that specific wallet.",
    "kind": "dev",
    "methods": {
      "DOMAIN_SEPARATOR()": {
        "details": "Return the DOMAIN_SEPARATOR."
      },
      "approve(address,uint256)": {
        "details": "Sets `value` as allowance of `spender` account over caller account's WETH10 token. Emits {Approval} event. Returns boolean value indicating whether operation succeeded."
      },
      "approveAndCall(address,uint256,bytes)": {
        "details": "Sets `value` as allowance of `spender` account over caller account's WETH10 token, after which a call is executed to an ERC677-compliant contract with the `data` parameter. Emits {Approval} event. Returns boolean value indicating whether operation succeeded. For more information on {approveAndCall} format, see https://github.com/ethereum/EIPs/issues/677."
      },
      "deposit()": {
        "details": "`msg.value` of ETH sent to this contract grants caller account a matching increase in WETH10 token balance. Emits {Transfer} event to reflect WETH10 token mint of `msg.value` from `address(0)` to caller account."
      },
      "depositTo(address)": {
        "details": "`msg.value` of ETH sent to this contract grants `to` account a matching increase in WETH10 token balance. Emits {Transfer} event to reflect WETH10 token mint of `msg.value` from `address(0)` to `to` account."
      },
      "depositToAndCall(address,bytes)": {
        "details": "`msg.value` of ETH sent to this contract grants `to` account a matching increase in WETH10 token balance, after which a call is executed to an ERC677-compliant contract with the `data` parameter. Emits {Transfer} event. Returns boolean value indicating whether operation succeeded. For more information on {transferAndCall} format, see https://github.com/ethereum/EIPs/issues/677."
      },
      "flashFee(address,uint256)": {
        "details": "Return the fee (zero) for flash lending an amount of WETH10 token."
      },
      "flashLoan(address,address,uint256,bytes)": {
        "details": "Flash lends `value` WETH10 token to the receiver address. By the end of the transaction, `value` WETH10 token will be burned from the receiver. The flash-minted WETH10 token is not backed by real ETH, but can be withdrawn as such up to the ETH balance of this contract. Arbitrary data can be passed as a bytes calldata parameter. Emits {Approval} event to reflect reduced allowance `value` for this contract to spend from receiver account (`receiver`), unless allowance is set to `type(uint256).max` Emits two {Transfer} events for minting and burning of the flash-minted amount. Returns boolean value indicating whether operation succeeded. Requirements:   - `value` must be less or equal to type(uint112).max.   - The total of all flash loans in a tx must be less or equal to type(uint112).max."
      },
      "flashLoanInit(uint256)": {
        "details": "Return the initialized Flashloan"
      },
      "maxFlashLoan(address)": {
        "details": "Return the amount of WETH10 token that can be flash-lent."
      },
      "permit(address,address,uint256,uint256,uint8,bytes32,bytes32)": {
        "details": "Sets `value` as allowance of `spender` account over `owner` account's WETH10 token, given `owner` account's signed approval. Emits {Approval} event. Requirements:   - `deadline` must be timestamp in future.   - `v`, `r` and `s` must be valid `secp256k1` signature from `owner` account over EIP712-formatted function arguments.   - the signature must use `owner` account's current nonce (see {nonces}).   - the signer cannot be `address(0)` and must be `owner` account. For more information on signature format, see https://eips.ethereum.org/EIPS/eip-2612#specification[relevant EIP section]. WETH10 token implementation adapted from https://github.com/albertocuestacanada/ERC20Permit/blob/master/contracts/ERC20Permit.sol."
      },
      "totalSupply()": {
        "details": "Returns the total supply of WETH10 token as the ETH held in this contract."
      },
      "transfer(address,uint256)": {
        "details": "Moves `value` WETH10 token from caller's account to account (`to`). A transfer to `address(0)` triggers an ETH withdraw matching the sent WETH10 token in favor of caller. Emits {Transfer} event. Returns boolean value indicating whether operation succeeded. Requirements:   - caller account must have at least `value` WETH10 token."
      },
      "transferAndCall(address,uint256,bytes)": {
        "details": "Moves `value` WETH10 token from caller's account to account (`to`), after which a call is executed to an ERC677-compliant contract with the `data` parameter. A transfer to `address(0)` triggers an ETH withdraw matching the sent WETH10 token in favor of caller. Emits {Transfer} event. Returns boolean value indicating whether operation succeeded. Requirements:   - caller account must have at least `value` WETH10 token. For more information on {transferAndCall} format, see https://github.com/ethereum/EIPs/issues/677."
      },
      "transferFrom(address,address,uint256)": {
        "details": "Moves `value` WETH10 token from account (`from`) to account (`to`) using allowance mechanism. `value` is then deducted from caller account's allowance, unless set to `type(uint256).max`. A transfer to `address(0)` triggers an ETH withdraw matching the sent WETH10 token in favor of caller. Emits {Approval} event to reflect reduced allowance `value` for caller account to spend from account (`from`), unless allowance is set to `type(uint256).max` Emits {Transfer} event. Returns boolean value indicating whether operation succeeded. Requirements:   - `from` account must have at least `value` balance of WETH10 token.   - `from` account must have approved caller to spend at least `value` of WETH10 token, unless `from` and caller are the same account."
      },
      "withdraw(uint256)": {
        "details": "Burn `value` WETH10 token from caller account and withdraw matching ETH to the same. Emits {Transfer} event to reflect WETH10 token burn of `value` to `address(0)` from caller account. Requirements:   - caller account must have at least `value` balance of WETH10 token."
      },
      "withdrawFrom(address,address,uint256)": {
        "details": "Burn `value` WETH10 token from account (`from`) and withdraw matching ETH to account (`to`). Emits {Approval} event to reflect reduced allowance `value` for caller account to spend from account (`from`), unless allowance is set to `type(uint256).max` Emits {Transfer} event to reflect WETH10 token burn of `value` to `address(0)` from account (`from`). Requirements:   - `from` account must have at least `value` balance of WETH10 token.   - `from` account must have approved caller to spend at least `value` of WETH10 token, unless `from` and caller are the same account."
      },
      "withdrawTo(address,uint256)": {
        "details": "Burn `value` WETH10 token from caller account and withdraw matching ETH to account (`to`). Emits {Transfer} event to reflect WETH10 token burn of `value` to `address(0)` from caller account. Requirements:   - caller account must have at least `value` balance of WETH10 token."
      }
    },
    "stateVariables": {
      "allowance": {
        "details": "Records number of WETH10 token that account (second) will be allowed to spend on behalf of another account (first) through {transferFrom}."
      },
      "balanceOf": {
        "details": "Records amount of WETH10 token owned by account."
      },
      "flashMinted": {
        "details": "Current amount of flash-minted WETH10 token."
      },
      "nonces": {
        "details": "Records current ERC2612 nonce for account. This value must be included whenever signature is generated for {permit}. Every successful call to {permit} increases account's nonce by one. This prevents signature from being used multiple times."
      }
    },
    "version": 1
  },
  "userdoc": {
    "kind": "user",
    "methods": {},
    "version": 1
  },
  "storageLayout": {
    "storage": [
      {
        "astId": 612,
        "contract": "contracts/WrappedEther.sol:WrappedEther",
        "label": "balanceOf",
        "offset": 0,
        "slot": "0",
        "type": "t_mapping(t_address,t_uint256)"
      },
      {
        "astId": 618,
        "contract": "contracts/WrappedEther.sol:WrappedEther",
        "label": "nonces",
        "offset": 0,
        "slot": "1",
        "type": "t_mapping(t_address,t_uint256)"
      },
      {
        "astId": 626,
        "contract": "contracts/WrappedEther.sol:WrappedEther",
        "label": "allowance",
        "offset": 0,
        "slot": "2",
        "type": "t_mapping(t_address,t_mapping(t_address,t_uint256))"
      },
      {
        "astId": 630,
        "contract": "contracts/WrappedEther.sol:WrappedEther",
        "label": "flashMinted",
        "offset": 0,
        "slot": "3",
        "type": "t_uint256"
      }
    ],
    "types": {
      "t_address": {
        "encoding": "inplace",
        "label": "address",
        "numberOfBytes": "20"
      },
      "t_mapping(t_address,t_mapping(t_address,t_uint256))": {
        "encoding": "mapping",
        "key": "t_address",
        "label": "mapping(address => mapping(address => uint256))",
        "numberOfBytes": "32",
        "value": "t_mapping(t_address,t_uint256)"
      },
      "t_mapping(t_address,t_uint256)": {
        "encoding": "mapping",
        "key": "t_address",
        "label": "mapping(address => uint256)",
        "numberOfBytes": "32",
        "value": "t_uint256"
      },
      "t_uint256": {
        "encoding": "inplace",
        "label": "uint256",
        "numberOfBytes": "32"
      }
    }
  }
}